:020000021000EC
:1000000000BCFF1F8D2602007DAB010089AB010003
:1000100095AB0100A1AB0100ADAB010000000000F9
:10002000000000000000000000000000494902003C
:10003000B9AB0100000000008D4A0200DD4A020059
:10004000418001002981010011820100B9290200CB
:10005000B9290200B9290200B9290200B929020010
:10006000B9290200B9290200B9290200B929020000
:10007000B9290200B9290200B9290200B9290200F0
:10008000B9290200B9290200B9290200B9290200E0
:10009000B9290200B9290200B9290200B9290200D0
:1000A000B9290200B9290200B9290200B9290200C0
:1000B000B9290200119A0200B9290200B9290200E7
:1000C000B9290200B9290200B9290200B9290200A0
:1000D000B9290200B9290200B9290200B929020090
:1000E000B9290200B9290200B9290200B929020080
:1000F000B9290200B9290200B9290200B929020070
:10010000B9290200B9290200B9290200B92902005F
:10011000B9290200C5BB0200B9290200B9290200B1
:10012000B9290200B9290200B9290200B92902003F
:10013000B9290200B9290200B9290200B92902002F
:10014000B9290200B9290200B9290200B92902001F
:10015000B9290200B9290200B9290200B92902000F
:10016000B9290200B9290200B9290200B9290200FF
:10017000B9290200B9290200B9290200B9290200EF
:10018000B9290200B9290200B9290200B9290200DF
:10019000B9290200B9290200B9290200B9290200CF
:1001A000B9290200B9290200B9290200B9290200BF
:1001B000B9290200B9290200B9290200B9290200AF
:1001C000B9290200B9290200B9290200B92902009F
:1001D000B9290200B9290200B9290200B92902008F
:0801E000B9290200B92902004F
:100200005555555555555555FFFFFFFFFEFFFFFF4F
:1002100080B582B000AF78604FF0640015F0DEFC6E
:1002200000E000BF4FF0020015F0D8FC49F2506327
:10023000C1F6FF734FF00002DA6249F25063C1F673
:10024000FF734FF000029A6249F25063C1F6FF73E8
:100250004FF000021A634FF00E0040F27801C1F631
:10026000FF7106F0DBF840F27803C1F6FF731B88DC
:1002700003F001039BB2002B02D00BF0C5FED0E7C8
:1002800040F27803C1F6FF731B8803F004039BB2AE
:10029000002B02D011F010F8C3E740F27803C1F64A
:1002A000FF731B8803F008039BB2002BB9D011F039
:1002B00023FCB6E780B582B000AF78604FF06400F1
:1002C00015F08CFC06F066F9024640F26C03C1F6AC
:1002D000FF731A6040F26C03C1F6FF731B68002BBA
:1002E00007D106F081F9024640F26C03C1F6FF73B4
:1002F0001A6040F26C03C1F6FF731B68002B19D023
:1003000049F25063C1F6FF734FF0020283F84720B1
:100310004FF004004FF0050106F014FB40F26C03AF
:10032000C1F6FF731B689BB24FF00D00194606F033
:100330004DF80FE049F25063C1F6FF734FF0010230
:1003400083F847204FF004004FF0050106F026FB2C
:1003500000E000BF4FF0010015F040FC4FF004003A
:1003600040F27001C1F6FF7106F058F840F27003D8
:10037000C1F6FF731B8803F020039BB2002B40F0F3
:1003800075824FF00E0040F27201C1F6FF7106F067
:1003900045F840F27203C1F6FF731B8803F00103B6
:1003A0009BB2002B3ED00BF011FF024640F26C03D3
:1003B000C1F6FF731A6040F26C03C1F6FF731B684D
:1003C000002B19D049F25063C1F6FF734FF00202BF
:1003D00083F849204FF004004FF0060106F0B2FA0E
:1003E00040F26C03C1F6FF731B689BB24FF00D0027
:1003F000194605F0EBFF61E049F25063C1F6FF7367
:100400004FF0010283F849204FF004004FF006013D
:1004100006F0C4FA49F25063C1F6FF734FF00102CF
:100420001A604BE049F25063C1F6FF731B68002B62
:1004300044D049F25063C1F6FF734FF000021A60D6
:1004400005F076FF40F27403C1F6FF734FF0AC0283
:100450001A602AE040F27403C1F6FF731B6849F288
:100460000012C1F6FF7203F1F4034FEA4303D318FD
:100470004FF6FF729A8040F27403C1F6FF731A6858
:1004800049F20013C1F6FF739B184FF0030283F883
:10049000602040F27403C1F6FF731B6803F1010290
:1004A00040F27403C1F6FF731A6040F27403C1F6A0
:1004B000FF731B68E12BCDDD05F050FF40F27203A6
:1004C000C1F6FF731B8803F002039BB2002B45D0DB
:1004D00049F25063C1F6FF734FF006029A660EF0C0
:1004E00017FB024640F26C03C1F6FF731A6040F23C
:1004F0006C03C1F6FF731B68002B19D049F25063DF
:10050000C1F6FF734FF0020283F84A204FF0040057
:100510004FF0070106F016FA40F26C03C1F6FF73C4
:100520001B689BB24FF00D00194605F04FFF61E0CC
:1005300049F25063C1F6FF734FF0010283F84A207D
:100540004FF004004FF0070106F028FA49F250631B
:10055000C1F6FF734FF001025A604BE049F250635D
:10056000C1F6FF735B68002B44D049F25063C1F6BB
:10057000FF734FF000025A6005F0DAFE40F2740398
:10058000C1F6FF734FF02D021A602AE040F27403A7
:10059000C1F6FF731B6849F20012C1F6FF7203F146
:1005A000F4034FEA4303D3184FF6FF729A8040F2E8
:1005B0007403C1F6FF731A6849F20013C1F6FF73A2
:1005C0009B184FF0030283F8602040F27403C1F6D9
:1005D000FF731B6803F1010240F27403C1F6FF735D
:1005E0001A6040F27403C1F6FF731B68302BCDDD37
:1005F00005F0B4FE40F27203C1F6FF731B8803F0EE
:1006000008039BB2002B45D049F25063C1F6FF733B
:100610004FF006029A6611F04BFB024640F26C0363
:10062000C1F6FF731A6040F26C03C1F6FF731B68DA
:10063000002B19D049F25063C1F6FF734FF002024C
:1006400083F84B204FF004004FF0070106F07AF9D1
:1006500040F26C03C1F6FF731B689BB24FF00D00B4
:10066000194605F0B3FE63E049F25063C1F6FF732B
:100670004FF0010283F84B204FF004004FF00701C8
:1006800006F08CF949F25063C1F6FF734FF0010296
:100690009A604DE049F25063C1F6FF739B68002BEE
:1006A00046D049F25063C1F6FF734FF000029A60E2
:1006B00005F03EFE40F27403C1F6FF734FF48B72F7
:1006C0001A602AE040F27403C1F6FF731B6849F216
:1006D0000012C1F6FF7203F1F4034FEA4303D3188B
:1006E0004FF6FF729A8040F27403C1F6FF731A68E6
:1006F00049F20013C1F6FF739B184FF0030283F811
:10070000602040F27403C1F6FF731B6803F101021D
:1007100040F27403C1F6FF731A6040F27403C1F62D
:10072000FF731A6840F227139A42CBDD05F016FEDC
:1007300040F27203C1F6FF731B8803F004039BB2FF
:10074000002B45D049F25063C1F6FF734FF006020B
:100750009A6610F05BFE024640F26C03C1F6FF732E
:100760001A6040F26C03C1F6FF731B68002B19D0AE
:1007700049F25063C1F6FF734FF0020283F84D2037
:100780004FF004004FF00C0106F0DCF840F26C036F
:10079000C1F6FF731B689BB24FF00D00194605F0C0
:1007A00015FED6E549F25063C1F6FF734FF0010222
:1007B00083F84D204FF004004FF0070106F0EEF8EB
:1007C00049F25063C1F6FF734FF00102DA60C0E5F1
:1007D00049F25063C1F6FF73DB68002B3FF4B9ADFB
:1007E00049F25063C1F6FF734FF00002DA6005F082
:1007F0009FFD40F27403C1F6FF734FF027021A60A9
:100800002AE040F27403C1F6FF731B6849F200123C
:10081000C1F6FF7203F1F4034FEA4303D3184FF616
:10082000FF729A8040F27403C1F6FF731A6849F2AE
:100830000013C1F6FF739B184FF0030283F860208A
:1008400040F27403C1F6FF731B6803F1010240F22A
:100850007403C1F6FF731A6040F27403C1F6FF73AC
:100860001B682C2BCDDD05F079FD72E500BF70E52E
:1008700080B582B000AF78604FF24013C4F20F032E
:100880004FF020029A604FF24013C4F20F034FF072
:1008900040029A6014F0BCF84FF40053C4F2050310
:1008A0004AF202629A814FF40053C4F205034BF2FC
:1008B00080429A8114F0C2F84FF4FA7015F08EF964
:1008C00049F25063C1F6FF7393F84E3003F1FF33E2
:1008D000042B00F20E8101A252F823F061090100FD
:1008E000F108010017090100D10901008709010081
:1008F0004FF24013C4F20F034FF020029A604FF200
:100900004013C4F20F034FF040025A604FF4FA70E4
:1009100015F064F900E14FF24013C4F20F034FF0F9
:1009200020029A604FF24013C4F20F034FF04002CE
:100930005A604FF4FA7015F051F94FF24013C4F2B7
:100940000F034FF020029A604FF24013C4F20F03DE
:100950004FF040029A604FF4FA7015F03FF9DBE077
:100960004FF24013C4F20F034FF040029A604FF26F
:100970004013C4F20F034FF020025A604FF4FA7094
:1009800015F02CF9C8E04FF24013C4F20F034FF0FA
:1009900040029A604FF24013C4F20F034FF020025E
:1009A0005A604FF4FA7015F019F94FF24013C4F27F
:1009B0000F034FF020029A604FF24013C4F20F036E
:1009C0004FF040029A604FF4FA7015F007F9A3E077
:1009D0004FF24013C4F20F034FF040029A604FF2FF
:1009E0004013C4F20F034FF020025A604FF4FA7024
:1009F00015F0F4F84FF24013C4F20F034FF0200249
:100A00009A604FF24013C4F20F034FF040029A6015
:100A10004FF4FA7015F0E2F84FF24013C4F20F03EE
:100A20004FF020029A604FF24013C4F20F034FF0D0
:100A300040025A604FF4FA7015F0D0F84FF24013AC
:100A4000C4F20F034FF020029A604FF24013C4F239
:100A50000F034FF040029A604FF4FA7015F0BEF8A1
:100A60004FF24013C4F20F034FF020029A604FF28E
:100A70004013C4F20F034FF040025A604FF4FA7073
:100A800015F0ACF84FF24013C4F20F034FF0200200
:100A90009A604FF24013C4F20F034FF040029A6085
:100AA0004FF4FA7015F09AF84FF24013C4F20F03A6
:100AB0004FF020029A604FF24013C4F20F034FF040
:100AC00040025A604FF4FA7015F088F84FF2401364
:100AD000C4F20F034FF020029A604FF24013C4F2A9
:100AE0000F034FF040029A604FF4FA7015F076F859
:100AF00012E04FF24013C4F20F034FF020029A604D
:100B00004FF24013C4F20F034FF040029A604FF4CB
:100B1000FA7015F063F800BF49F25063C1F6FF7335
:100B200093F84830022B08D149F25063C1F6FF73A5
:100B30004FF0020283F84E20ACE649F25063C1F652
:100B4000FF7393F84530022B08D149F25063C1F688
:100B5000FF734FF0030283F84E209BE649F2506387
:100B6000C1F6FF7393F84430022B08D149F2506369
:100B7000C1F6FF734FF0030283F84E208AE649F274
:100B80005063C1F6FF7393F84630022B08D149F247
:100B90005063C1F6FF734FF0030283F84E2079E6ED
:100BA00049F25063C1F6FF7393F84930022B08D124
:100BB00049F25063C1F6FF734FF0030283F84E20F1
:100BC00068E649F25063C1F6FF7393F84730022B91
:100BD00008D149F25063C1F6FF734FF0040283F865
:100BE0004E2057E649F25063C1F6FF7393F84C303C
:100BF000022B08D149F25063C1F6FF734FF0050292
:100C000083F84E2046E649F25063C1F6FF734FF079
:100C1000010283F84E203DE680B584B000AF7860D5
:100C200016F0A6FD49F25063C1F6FF734FF00102C2
:100C300083F84E2049F25063C1F6FF7393F84530B4
:100C4000022B06D14FF004004FF0010105F07AFEAF
:100C500005E04FF004004FF0010105F09FFE4FF05A
:100C6000320014F0BBFF4FF00E0040F25C01C1F601
:100C7000FF7105F0D3FB4FF24013C4F20F031B6961
:100C80004FEA135303F00103002B0ED149F25063D6
:100C9000C1F6FF734FF0020283F848204FF00400C2
:100CA0004FF0000105F04EFE0DE049F25063C1F631
:100CB000FF734FF0010283F848204FF004004FF01B
:100CC000000105F06BFE40F20003C1F6FF731B68E4
:100CD000022B46D10FF02EFF49F25063C1F6FF738D
:100CE00093F84130022B24D107F10E034FF01E0080
:100CF000194605F093FBFB89002B07D140F2000356
:100D0000C1F6FF734FF003021A602AE007F10E03E9
:100D10004FF01D00194605F081FBFB8903F101032B
:100D20009BB2FB81FB894FF01D00194605F04EFB7D
:100D300017E04FF01E004FF0020105F047FB07F1EE
:100D40000E034FF01C00194605F068FBFB8903F108
:100D500001039BB2FB81FB894FF01C00194605F093
:100D600035FB40F20003C1F6FF731B68032B46D12D
:100D700010F046F949F25063C1F6FF7393F8423020
:100D8000022B24D107F10E034FF01E00194605F087
:100D900045FBFB89002B07D140F20003C1F6FF732E
:100DA0004FF001021A602AE007F10E034FF01D0018
:100DB000194605F033FBFB8903F101039BB2FB816C
:100DC000FB894FF01D00194605F000FB17E04FF0BE
:100DD0001E004FF0030105F0F9FA07F10E034FF082
:100DE0001C00194605F01AFBFB8903F101039BB2B5
:100DF000FB81FB894FF01C00194605F0E7FA40F231
:100E00000003C1F6FF731B68012B46D10FF032FDC2
:100E100049F25063C1F6FF7393F84030022B24D19E
:100E200007F10E034FF01E00194605F0F7FAFB8993
:100E3000002B07D140F20003C1F6FF734FF002020E
:100E40001A602AE007F10E034FF01D00194605F065
:100E5000E5FAFB8903F101039BB2FB81FB894FF0AB
:100E60001D00194605F0B2FA17E04FF01E004FF0D2
:100E7000010105F0ABFA07F10E034FF01C00194613
:100E800005F0CCFAFB8903F101039BB2FB81FB89DE
:100E90004FF01C00194605F099FA49F25063C1F66B
:100EA000FF7393F84130022B36D149F25063C1F6FB
:100EB000FF7393F84030022B2ED149F25063C1F6F4
:100EC000FF7393F84230022B26D140F26003C1F643
:100ED000FF731B680A2B0EDD49F25063C1F6FF73E6
:100EE0004FF0020283F844204FF004004FF0040159
:100EF00005F028FD0BE040F26003C1F6FF731B68AC
:100F000003F1010240F26003C1F6FF731A604FF46F
:100F10007A7014F063FE14E049F25063C1F6FF7377
:100F20004FF0010283F844204FF004004FF0040119
:100F300005F034FD40F26003C1F6FF734FF000028C
:100F40001A6005F027FB024640F26403C1F6FF7306
:100F50001A6040F26403C1F6FF731B68002B07D1CF
:100F600005F042FB024640F26403C1F6FF731A60CB
:100F700040F26403C1F6FF731B68002B19D049F2DD
:100F80005063C1F6FF734FF0020283F847204FF021
:100F900004004FF0050105F0D5FC40F26403C1F6F2
:100FA000FF731B689BB24FF00D00194605F00EFA57
:100FB00044E006F09BF8024640F26403C1F6FF737A
:100FC0001A6007F10E034FF4B770194605F026FAC0
:100FD00040F26403C1F6FF731B68002B05D1FB8947
:100FE000002B02D0FB890A2B14D949F25063C1F6B9
:100FF000FF734FF0020283F847204FF004004FF0D8
:101000000D0105F09FFC4FF00D004FF0D80105F0E9
:10101000DDF913E049F25063C1F6FF734FF00102AE
:1010200083F847204FF004004FF00D0105F0B6FCA7
:101030004FF004004FF0050105F0B0FC49F2506399
:10104000C1F6FF73DB699BB24FF49470194605F04B
:10105000BDF904E680B582B000AF786041F2F820B7
:10106000C0F2030013F0E6FA12F07AFF07F1080766
:10107000BD4680BD80B588B000AF78604FF00003FA
:101080003B614FF00003FB834FF00003BB834FF045
:1010900000037B834FF000033B834FF00003FB8290
:1010A0004FF00003BB8200E000BF4FF0140014F0CB
:1010B00095FD49F25063C1F6FF735B6A03F11402B8
:1010C00049F25063C1F6FF735A6249F25063C1F6A8
:1010D000FF731B6A002B0BD049F25063C1F6FF73FC
:1010E0009B6903F1140249F25063C1F6FF739A61E0
:1010F000FB8B03F10103FB83FB8B312BD4D94FF026
:101100000003FB83BB8A002B1AD107F10E034FF4B7
:10111000C370194605F082F9FB8903F101039BB204
:10112000FB81FB894FF4C370194605F04FF9FB8929
:101130004FF0310019460AF059FD4FF00103BB8210
:10114000BB8B03F10103BB83BB8B3B2BACD94FF0B3
:101150000003BB837B8B03F101037B837B8B3B2BE6
:101160001CD94FF000037B833B8B03F101033B83CE
:101170003B8B172B0CD94FF000033B83FB8A03F109
:101180000103FB82FB8A4FF00700194605F01EF9A8
:101190003B8B4FF00600194605F018F97B8B4FF09A
:1011A0000500194605F012F97EE700BF80B584B04E
:1011B00000AF78604FF00A0014F010FD0EF056F901
:1011C000F860FB68002B0FD04FF004004FF00801CF
:1011D00005F0B8FB49F25063C1F6FF734FF002020D
:1011E00083F84C2000BFE5E74FF004004FF0080102
:1011F00005F0D4FB0EF0B8F80346002B14D049F2EA
:101200005063C1F6FF734FF0020283F84C204FF099
:1012100004004FF0090105F095FB4FF00D004FF46D
:10122000B17105F0D3F8C5E749F25063C1F6FF7319
:101230004FF0010283F84C204FF004004FF00901F9
:1012400005F0ACFBB6E700BF80B500AF49F2B8735C
:10125000C1F6FF7393F870304FEA431303F1FE5366
:1012600003F550334FEA430343F080431A4649F6EF
:101270002C03C1F6FF731A6549F62C03C1F6FF7300
:101280004BF6C072C3F686721A6749F2B873C1F69C
:10129000FF7393F8712048F6AC63C1F6FF7383F8CF
:1012A000442249F2B873C1F6FF7393F871304FF0DE
:1012B0001000194605F08AF848F6AC63C1F6FF73D2
:1012C00093F844324FF01100194605F07FF818F0FA
:1012D00069FA80BD90B585B000AF4FF00003FB60A8
:1012E0004FF40043BB60BB687B607B681A684FF6B5
:1012F0005A73CAF200539A4203D04FF0CE03FB60F8
:1013000005E17B68DB8F9BB21C4678684FF03E019D
:101310001CF0F2FE03469C4203D04FF0CF03FB606B
:10132000F5E07B681A6949F2B873C1F6FF739A64F5
:101330007B685A6949F2B873C1F6FF73DA647B6857
:101340009A6949F2B873C1F6FF731A657B68DA6966
:1013500049F2B873C1F6FF735A6549F2B873C1F622
:10136000FF739B6C41F2FC20C0F2030019461DF094
:10137000E1F849F2B873C1F6FF73DB6C41F2143047
:10138000C0F2030019461DF0D5F849F2B873C1F652
:10139000FF731B6D41F22C30C0F2030019461DF0A3
:1013A000C9F849F2B873C1F6FF735B6D41F244307E
:1013B000C0F2030019461DF0BDF87B685B8F9AB23E
:1013C0004FF6FF739A4206D17B681B8F9AB24FF695
:1013D000FF739A4221D07B685B8F9BB24FEA032355
:1013E0009AB27B681B8F9BB29BB2DBB29BB213435A
:1013F0009BB29AB249F20013C1F6FF73A3F8CA2454
:1014000049F20013C1F6FF73B3F8CA34DAB248F6F2
:101410005843C1F6FF7383F8442249F2B873C1F60A
:10142000FF739B6C4FEA13439AB249F20013C1F663
:10143000FF73A3F8142249F2B873C1F6FF739B6CD3
:101440009AB249F20013C1F6FF73A3F8162249F2CB
:10145000B873C1F6FF73DB6C4FEA13439AB249F2DB
:101460000013C1F6FF73A3F8182249F2B873C1F64E
:10147000FF73DB6C9AB249F20013C1F6FF73A3F855
:101480001A2249F2B873C1F6FF731B6D4FEA13437A
:101490009AB249F20013C1F6FF73A3F81C2249F275
:1014A000B873C1F6FF731B6D9AB249F20013C1F60F
:1014B000FF73A3F81E2249F2B873C1F6FF735B6D88
:1014C0004FEA13439AB249F20013C1F6FF73A3F82F
:1014D000202249F2B873C1F6FF735B6D9AB249F2EC
:1014E0000013C1F6FF73A3F8222205F02DFE034678
:1014F000002B0CD149F20013C1F6FF73B3F8CA34C4
:10150000DAB248F65843C1F6FF7383F84422FB6809
:10151000184607F11407BD4690BD00BF80B500AF67
:101520004FF4E043C4F204034FF4E042C4F2040277
:1015300002F5815202F11802126842F0010203F52D
:10154000815303F118031A604FF48043C4F2060379
:101550004FF48042C4F206021278D2B242F0020284
:10156000D2B21A704FF48043C4F206034FF48042A3
:10157000C4F206025278D2B242F00102D2B25A70DC
:101580004FF00003C4F204034FF000021A604FF062
:101590000003C4F204034FF6FF729A604FF0000399
:1015A000C4F204034FF000025A604FF00003C4F28B
:1015B00004034FF00002C4F20402126842F0010278
:1015C0001A604FF00003C4F204034FF00102DA6026
:1015D0004FF00003C4F20403DB6841F25C30C0F258
:1015E000030019461CF0A6FF4FF00003C4F20403E9
:1015F0004FF00102DA604FF00003C4F20403DB682D
:1016000041F25C30C0F2030019461CF093FF80BD2C
:1016100080B483B000AF78604FF47143C4F20F031D
:101620004FF000625A6007F10C07BD4680BC70475E
:1016300080B400AF4FF47143C4F20F034FF0006267
:101640009A60BD4680BC704780B586B004AF4FF04D
:10165000530011F099F94FF48043C4F206031B794B
:10166000DBB2002B02D111F0EFFB14E040F26C135F
:10167000C1F6FF734DF2C042C0F201021A6040F29F
:101680006C13C1F6FF731B684FEA630240F27013DC
:10169000C1F6FF731A6011F017FD08F0B1F94FF2AF
:1016A0004013C4F20F034FF020029A604FF2401330
:1016B000C4F20F034FF040025A600AF077FA7860E4
:1016C00009F0E0F908F0CCFE41F26830C0F2030006
:1016D0001CF030FF41F28030C0F203001CF02AFF02
:1016E00041F28C30C0F203001CF024FF41F2903034
:1016F000C0F203001CF01EFF4FF40053C4F20503B8
:101700004CF22052DA814FF40053C4F205034DF637
:101710002812DA814FF40053C4F2050340F2D112CB
:101720001A804FF40053C4F205034FF4FA52DA80E2
:101730004FF40053C4F205034FF000029A8009F001
:101740009FF84FF4E043C4F2040303F5825303F11E
:1017500014031B6841F29C30C0F2030019461CF0D0
:10176000E9FE4FF4E043C4F2040303F5825303F1AE
:1017700018031B6841F2B430C0F2030019461CF094
:10178000D9FE4FF4E043C4F2040303F5825303F19E
:101790001C031B6841F2CC30C0F2030019461CF058
:1017A000C9FE4FF4E043C4F2040303F583531B68FE
:1017B00041F2E430C0F2030019461CF0BBFE41F2D6
:1017C000FC30C0F203004FF028011CF0B3FE40F2E1
:1017D0007013C1F6FF731B6841F21040C0F20300A2
:1017E00019461CF0A7FE40F26C13C1F6FF731B688C
:1017F00041F22440C0F2030019461CF09BFE41F266
:101800003840C0F203004FF4FA711CF093FE41F22D
:101810004C40C0F203004FF416711CF08BFE41F2F5
:101820006040C0F203004FF08001C1F200411CF0A3
:1018300081FE41F27840C0F2030040F28C71C0F2A8
:1018400009011CF077FE4FF4E043C4F2040303F5F2
:10185000835303F10C031B6841F28C40C0F2030078
:1018600019461CF067FE41F2A440C0F203004CF69A
:10187000D811C0F2C3411CF05DFE41F2BC40C0F281
:1018800003004FF0F0411CF055FE41F2D440C0F28D
:10189000030043F22861C7F23C311CF04BFE4FF4C9
:1018A0007043C4F207031B78DBB241F2EC40C0F294
:1018B000030019461CF03EFE4FF47043C4F20703C8
:1018C0005B78DBB241F20450C0F2030019461CF011
:1018D00031FE4FF24013C4F20F031B694FEA13535A
:1018E00003F00103002B05D141F21C50C0F20300AC
:1018F0001CF020FE49F6B803C1F6FF734FF020023A
:101900001A6349F6B803C1F6FF734FF02002DA6399
:1019100049F6B803C1F6FF734FF003029A6249F625
:10192000B803C1F6FF734FF002025A6318F05EFB72
:1019300038603B68002B07D041F22C50C0F2030006
:101940001CF0F8FD09F0FAF848F2C860C1F6FF7023
:1019500018F048FC38603B68002B07D041F2585023
:10196000C0F203001CF0E6FD09F0E8F848F2C86395
:10197000C1F6FF734FF00A025A6048F2C863C1F61D
:10198000FF734FF02002DA6148F65010C1F6FF7085
:1019900018F028FC38603B68002B07D041F29050CB
:1019A000C0F203001CF0C6FD09F0C8F848F6501359
:1019B000C1F6FF734FF009025A6048F65013C1F6A2
:1019C000FF734FF00302DA6149F20013C1F6FF73AF
:1019D0004FF0AB025A6149F20013C1F6FF734FF0AA
:1019E00021029A6149F20013C1F6FF734FF02202FF
:1019F000DA6149F20013C1F6FF734FF001021A6277
:101A000049F20013C1F6FF734FF002025A6249F225
:101A10000013C1F6FF734FF0E2029A6249F200131D
:101A2000C1F6FF734FF0E302DA6249F20013C1F628
:101A3000FF734FF0E4021A6349F20013C1F6FF731B
:101A40004FF0E5025A6349F20013C1F6FF734FF0FD
:101A500027029A6349F20013C1F6FF734FF0280280
:101A6000DA6349F20013C1F6FF734FF029021A64DA
:101A700004F072F838603B68002B07D041F2CC507C
:101A8000C0F203001CF056FD09F058F849F20013AB
:101A9000C1F6FF73B3F8CA34DBB29AB249F200134D
:101AA000C1F6FF73A3F80C2249F20013C1F6FF73CD
:101AB000B3F80C2249F20013C1F6FF73A3F80E220B
:101AC0007B68002B26D049F20013C1F6FF734FF05C
:101AD0000302A3F8F0217B689AB249F20013C1F621
:101AE000FF73A3F80A227B689AB249F20013C1F689
:101AF000FF73A3F8062249F20013C1F6FF73B3F88F
:101B0000F43143F008039AB249F20013C1F6FF73AF
:101B1000A3F8F42148F2C863C1F6FF734FF0010245
:101B20005A6148F2C860C1F6FF7018F01DFB3860BA
:101B30003B68002B08D041F2FC50C0F2030039682A
:101B40001CF0F8FC08F0FAFF48F65010C1F6FF70E0
:101B500018F00AFB38603B68002B08D041F2346073
:101B6000C0F2030039681CF0E5FC08F0E7FF48F21A
:101B7000C863C1F6FF735A6948F67013C1F6FF7364
:101B80001A6148F2C863C1F6FF73DA6948F6701348
:101B9000C1F6FF739A6148F67010C1F6FF7019F034
:101BA0007FFB38603B68002B08D041F26860C0F2D0
:101BB000030039681CF0BEFC08F0C0FF48F6701343
:101BC000C1F6FF735A6948F2C863C1F6FF739A61A0
:101BD00049F6B803C1F6FF739A6B48F67013C1F665
:101BE000FF73DA6149F20013C1F6FF731A6948F610
:101BF000AC63C1F6FF73C3F8382248F6AC63C1F694
:101C0000FF73E04AC3F8402248F6AC63C1F6FF73A5
:101C1000DD4AC3F83C2248F6AC63C1F6FF7340F2DC
:101C20008B12C3F8282249F20013C1F6FF739A6899
:101C300048F6AC63C1F6FF73C3F8342248F6AC63D0
:101C4000C1F6FF73D14AC3F82C2248F6AC63C1F643
:101C5000FF734FF00C02C3F8302249F2F403C1F6CF
:101C6000FF7348F6AC62C1F6FF729A6049F2F40362
:101C7000C1F6FF734FF001021A7148F67010C1F6F9
:101C8000FF7049F2F401C1F6FF7119F0EFFD034650
:101C90003B603B68002B08D041F2A060C0F203001B
:101CA00039681CF047FC08F049FF48F6AC63C1F600
:101CB000FF734FF0FF0283F8442249F20013C1F68C
:101CC000FF731A6948F65843C1F6FF73C3F8382208
:101CD00048F65843C1F6FF73AA4AC3F8402248F6B3
:101CE0005843C1F6FF73A84AC3F83C2248F658434C
:101CF000C1F6FF7340F28B12C3F8282249F2001399
:101D0000C1F6FF739A6848F65843C1F6FF73C3F8EB
:101D1000342248F65843C1F6FF739C4AC3F82C227C
:101D200048F65843C1F6FF734FF00C02C3F8302257
:101D300048F6A063C1F6FF7348F65842C1F6FF7239
:101D40009A6048F6A063C1F6FF734FF007021A715C
:101D500048F67010C1F6FF7048F6A061C1F6FF7139
:101D600019F084FD03463B603B68002B08D041F22C
:101D7000DC60C0F2030039681CF0DCFB08F0DEFE1A
:101D800049F20013C1F6FF73B3F8CA34DAB248F669
:101D90005843C1F6FF7383F8442248F65013C1F646
:101DA000FF735A6949F2B873C1F6FF731A6648F6B1
:101DB0005013C1F6FF73DA6949F2B873C1F6FF73C5
:101DC0009A6617F0E9F838603B68002B08D041F2BA
:101DD0001870C0F2030039681CF0ACFB08F0AEFECE
:101DE00049F2B873C1F6FF735A6E48F65013C1F644
:101DF000FF739A6149F6B803C1F6FF739A6B49F213
:101E0000B873C1F6FF73DA6649F2B873C1F6FF73AF
:101E100041F24922C0F20102DA65FFF75BFA48F6A7
:101E20001043C1F6FF734FF007021A7148F61040D5
:101E3000C1F6FF7018F048FA38603B68002B07D0F5
:101E400041F25070C0F203001CF074FB08F076FE03
:101E500048F61043C1F6FF734FF003021A6148F6CB
:101E60001043C1F6FF734FF002025A6148F610406A
:101E7000C1F6FF7018F0D4F938603B68002B07D02A
:101E800041F28C70C0F203001CF054FB08F056FEC7
:101E900048F2E863C1F6FF734FF0070283F864224B
:101EA00048F2E863C1F6FF7348F69032C1F6FF725C
:101EB000C3F8382248F61043C1F6FF731A6948F296
:101EC000E863C1F6FF73C3F8402248F61043C1F639
:101ED000FF735A6948F2E863C1F6FF73C3F83C2206
:101EE00048F2E863C1F6FF734FF02002C3F84422C2
:101EF00048F2E860C1F6FF7041F2BC71C0F2030124
:101F000041F2C472C0F2030218F05CFE38603B6814
:101F1000002B07D041F2CC70C0F203001CF00AFB8A
:101F200008F00CFE49F6B803C1F6FF73DA6A48F20E
:101F3000E863C1F6FF73C3F8502248F61043C1F6B8
:101F4000FF73DA6948F2E863C1F6FF73C3F84C2205
:101F500048F63443C1F6FF734FF001021A7148F698
:101F60003440C1F6FF7018F0AFF938603B68002BC1
:101F70000ED041F60400C0F203001CF0DBFA08F0BA
:101F8000DDFD05E0EC92FF1F6091FF1F1491FF1F24
:101F900048F63443C1F6FF734FF003021A6148F666
:101FA0003443C1F6FF734FF002025A6148F63443DE
:101FB000C1F6FF734FF00A029A6148F63440C1F649
:101FC000FF7018F02DF93B68002B07D041F63C005C
:101FD000C0F203001CF0AEFA08F0B0FD49F6B803F9
:101FE000C1F6FF73DA6A49F62C03C1F6FF735A642F
:101FF00048F63443C1F6FF73DA6949F62C03C1F69B
:10200000FF739A6448F63443C1F6FF731A6949F6C0
:102010002C03C1F6FF731A6348F63443C1F6FF730D
:102020005A6949F62C03C1F6FF735A6348F63443E4
:10203000C1F6FF739A6949F62C03C1F6FF739A63E0
:1020400017F088FA38603B68002B07D041F668002B
:10205000C0F203001CF06EFA08F070FD49F62C0384
:10206000C1F6FF7347F6C072C7F68672DA6449F6A6
:102070002C03C1F6FF7347F6C072C3F68672DA66A8
:1020800049F62C03C1F6FF73DA694FF01D0161F3C5
:102090001F62DA6149F62C03C1F6FF73DA696FF348
:1020A0009752DA6149F62C03C1F6FF73DA694FF0F3
:1020B000050161F30202DA6149F62C03C1F6FF73F0
:1020C000DA694FF0060161F3D542DA6149F62C0373
:1020D000C1F6FF73DA694FF0010161F31242DA6170
:1020E00017F060FB48F69033C1F6FF734FF004021F
:1020F00083F8212048F69033C1F6FF734FF4E132A4
:102100001A6048F69033C1F6FF734FF000021A7759
:1021100048F69033C1F6FF734FF000025A7748F645
:102120009033C1F6FF734FF003029A7748F690336D
:10213000C1F6FF7341F23162C0F201025A6640F209
:102140007013C1F6FF731B6818461AF0D7F948F6EA
:102150009030C1F6FF701AF073F838603B68002BBE
:1021600008D041F69800C0F2030039681CF0E2F98B
:1021700008F0E4FC48F2E863C1F6FF73D3F84822A4
:1021800048F29463C1F6FF73DA6248F29463C1F6D1
:10219000FF734FF000029A6048F29463C1F6FF7338
:1021A0004FF000021A6148F69033C1F6FF734BF608
:1021B0005522C0F202021A6748F69033C1F6FF7347
:1021C00048F29462C1F6FF729A6748F69033C1F6FE
:1021D000FF7341F21162C0F201025A6748F6903370
:1021E000C1F6FF734FF00002DA6748F69030C1F68F
:1021F000FF701AF047F938603B68002B08D041F6B1
:10220000D000C0F2030039681CF094F908F096FC85
:102210004FF035001AF0CEFE4FF035004FF00F01B1
:102220001BF046F84FF0000249F20463C1F6FF7359
:102230005A6449F20463C1F6FF731A6449F20463F5
:10224000C1F6FF73DA6305F055F938603B68002B7F
:1022500007D041F60010C0F203001CF06BF908F043
:102260006DFC06F049F848F63443C1F6FF73DB69AC
:1022700018460DF01DF841F6AC50C0F2030011F005
:102280003FFE4FF0000300934FF0000301934FF027
:10229000000302934FF00003039341F25500C0F294
:1022A000010041F62011C0F203014FF400724FF01B
:1022B000000313F0BFFA0346012B07D041F62810A4
:1022C000C0F203001CF036F908F038FC4FF00103AF
:1022D00000934FF0000301934FF0000302934FF07F
:1022E0000003039340F67100C0F2010041F64C1167
:1022F000C0F203014FF480724FF0000313F09AFA1A
:102300000346012B07D041F65010C0F203001CF029
:1023100011F908F013FC4FF0000300934FF0000395
:1023200001934FF0000302934FF00003039340F238
:10233000B520C0F2010041F67011C0F203014FF464
:1023400080624FF0000313F075FA0346012B07D0AB
:1023500041F67810C0F203001CF0ECF808F0EEFB38
:102360004FF0030300934FF0000301934FF000037D
:1023700002934FF00003039340F21120C0F20100DA
:1023800041F69C11C0F203014FF400724FF00003BC
:1023900013F050FA0346012B07D041F6A410C0F207
:1023A00003001CF0C7F808F0C9FB4FF000030093CE
:1023B0004FF0000301934FF0000302934FF000032E
:1023C000039340F61940C0F2010041F6C811C0F273
:1023D00003014FF480724FF0000313F02BFA034611
:1023E000012B07D041F6D010C0F203001CF0A2F878
:1023F00008F0A4FB4FF0040300934FF00003019397
:102400004FF0000302934FF00003039341F2750075
:10241000C0F2010041F6F411C0F203014FF0800256
:102420004FF0000313F006FA0346012B07D041F6E4
:10243000FC10C0F203001CF07DF808F07FFB4FF0A9
:10244000000300934FF0000301934FF00003029349
:102450004FF00003039341F2AD10C0F2010041F6CA
:102460002021C0F203014FF480724FF0000313F0FB
:10247000E1F90346012B07D041F62820C0F2030002
:102480001CF058F808F05AFB12F016FA034641F611
:102490004C20C0F2030019461CF04CF8FFF73EF840
:1024A0004FF4E043C4F2040303F5805303F118032F
:1024B0004FF084021A604FF4E043C4F204034FF477
:1024C000E042C4F2040202F5805202F118021268DE
:1024D00042F4044203F5805303F118031A604FF4E9
:1024E000E043C4F204034FF4E042C4F2040202F5F4
:1024F000805202F11802126842F4040203F580537C
:1025000003F118031A604FF4E043C4F204034FF4DC
:10251000E042C4F2040202F5815202F11C02126888
:1025200042F4000203F5815303F11C031A604FF4D7
:10253000E043C4F203034FF4E042C4F20302126822
:1025400022F002021A604FF4E043C4F203034FF496
:102550001672C3F800214FF4E043C4F203034FF4B2
:10256000E042C4F20302D2F8082142F00102C3F8AB
:10257000082113F08FFDFEE780B500AF41F64C70E7
:10258000C0F2030011F0AEFF80BD00BF80B500AF08
:1025900041F67870C0F2030011F0A4FF80BD00BFC7
:1025A00080B582B000AF4FF000037B604FF00003B6
:1025B0003B6041F68C70C0F2030011F093FF41F6CE
:1025C000B470C0F2030011F08DFF41F6E870C0F264
:1025D000030011F087FF42F22000C0F2030011F067
:1025E00081FF4FF000037B6041F6AC53C0F2030360
:1025F0007A684FEA02129B181B6841F6A450C0F299
:10260000030019461DF07DFF0346002B6BD042F2FC
:102610003000C0F2030011F065FF41F6AC53C0F288
:1026200003037A684FEA02129B181B68184611F0E0
:1026300059FF41F6AC53C0F203037A684FEA021225
:102640009B181B6818461DF070FF0346C3F10C036E
:102650003B6003E04FF02E0011F0B8FF3B68002B09
:102660000CBF00230123DBB23A6802F1FF323A606B
:10267000002BEFD141F6AC53C0F203037A684FEA66
:1026800002129B1803F108031B78012B0AD0022BBE
:102690000FD0002B14D142F23400C0F2030011F02D
:1026A00021FF0DE042F24400C0F2030011F01AFFD6
:1026B00006E042F25400C0F2030011F013FF00BF25
:1026C00041F6AC53C0F203037A684FEA02129B183A
:1026D00003F10C031B68184611F004FF7B6803F13B
:1026E00001037B6080E700BF07F10807BD4680BD9E
:1026F00080B500AF42F26400C0F203004FF07201F7
:1027000011F098FF42F27C00C0F2030011F092FF3A
:1027100042F29000C0F2030011F08CFF42F29C00E4
:10272000C0F2030011F086FF42F2A400C0F20300E1
:1027300011F080FF80BD00BF80B582B000AF4FF0C8
:1027400008033B604FF48043C4F202031B6B03F0A9
:102750002003002B48D04FF48043C4F20203D3F887
:10276000843042F2B000C0F20300194611F062FF5B
:102770004FF48043C4F20203D3F88030C3F3034321
:10278000DBB23B6042F2C000C0F20300396811F0D6
:1027900051FF3B68082B02DD4FF008033B604FF010
:1027A00000037B6014E04FF48043C4F202037A68B4
:1027B0009B1803F188031B78DBB242F2CC00C0F215
:1027C0000300194611F036FF7B6803F101037B60BB
:1027D0007A683B689A42E6DB4FF48043C4F2020316
:1027E0004FF020021A63ADE700BF07F10807BD46AE
:1027F00080BD00BF80B582B000AF49F62C03C1F6A2
:10280000FF735B6A42F2D000C0F20300194611F078
:1028100011FF49F62C03C1F6FF731B6AC3F3034390
:10282000DBB242F2E400C0F20300194611F002FFED
:1028300049F62C03C1F6FF731B6842F2F000C0F2A8
:102840000300194611F0F6FE49F62C03C1F6FF739A
:102850001B6AC3F30343DBB23B603B68082B02DD1A
:102860004FF008033B604FF000037B6014E049F633
:102870002C03C1F6FF737A689B1803F128031B78B9
:10288000DBB242F2CC00C0F20300194611F0D2FED6
:102890007B6803F101037B607A683B689A42E6DB60
:1028A00007F10807BD4680BD80B500AF42F2FC00CD
:1028B000C0F2030011F0BEFE49F62C03C1F6FF730F
:1028C0001B6842F21810C0F20300194611F0B2FE64
:1028D00049F62C03C1F6FF735B6842F23810C0F270
:1028E0000300194611F0A6FE49F62C03C1F6FF734A
:1028F0009B6942F25810C0F20300194611F09AFE8B
:1029000049F62C03C1F6FF731B6B42F27810C0F23C
:102910000300194611F08EFE49F62C03C1F6FF7331
:102920005B6B42F29810C0F20300194611F082FE70
:1029300049F62C03C1F6FF739B6B42F2B810C0F24C
:102940000300194611F076FE49F62C03C1F6FF7319
:10295000DB6B42F2D810C0F20300194611F06AFE98
:1029600049F62C03C1F6FF731B6C42F2F810C0F25B
:102970000300194611F05EFE49F62C03C1F6FF7301
:102980001B6942F21820C0F20300194611F052FEF2
:1029900049F62C03C1F6FF735B6942F23820C0F29E
:1029A0000300194611F046FE49F62C03C1F6FF73E9
:1029B0009B6842F25820C0F20300194611F03AFE1B
:1029C00049F62C03C1F6FF73DB6842F23820C0F2EF
:1029D0000300194611F02EFE49F62C03C1F6FF73D1
:1029E0005B6C42F2D810C0F20300194611F022FECF
:1029F00049F62C03C1F6FF739B6C42F2F810C0F24B
:102A00000300194611F016FE80BD00BF80B584B0EA
:102A100000AF42F27820C0F2030011F00BFE49F63D
:102A2000B803C1F6FF735B6942F29820C0F203005D
:102A3000194611F0FFFD49F6B803C1F6FF731B6993
:102A400042F2B820C0F20300194611F0F3FD49F636
:102A5000B803C1F6FF739B6A42F27810C0F203001C
:102A6000194611F0E7FD49F6B803C1F6FF735B6B39
:102A700042F29810C0F20300194611F0DBFD49F64E
:102A8000B803C1F6FF73DB6A42F2D810C0F203004C
:102A9000194611F0CFFD49F6B803C1F6FF731B6B61
:102AA00042F2D820C0F20300194611F0C3FD49F6E6
:102AB000B803C1F6FF739B6B42F2F810C0F203003B
:102AC000194611F0B7FD49F6B803C1F6FF73DB6B89
:102AD00042F2F820C0F20300194611F0ABFD49F6AE
:102AE000B803C1F6FF731B6842F25820C0F203001E
:102AF000194611F09FFD49F6B803C1F6FF735B68F4
:102B000042F21830C0F20300194611F093FD49F665
:102B1000B803C1F6FF739B6842F23830C0F203007D
:102B2000194611F087FD49F6B803C1F6FF73DB685B
:102B300042F25830C0F20300194611F07BFD49F60D
:102B4000B803C1F6FF739B69BB604FF00003FB60E5
:102B500052E042F23000C0F2030011F06BFD42F28D
:102B60007830C0F20300F96811F064FDBB685B685F
:102B700042F29830C0F20300194611F05BFDBB68C9
:102B80001B7A42F2B830C0F20300194611F052FD30
:102B9000BB685B6942F2D830C0F20300194611F0FD
:102BA00049FDBB689B6942F2D810C0F20300194688
:102BB00011F040FDBB68DB6942F2D820C0F203008F
:102BC000194611F037FDBB68DB6842F21820C0F2ED
:102BD0000300194611F02EFDBB681B6942F2382034
:102BE000C0F20300194611F025FDBB681B68BB60ED
:102BF000FB6803F10103FB60FA6849F6B803C1F60C
:102C0000FF731B699A42A4D349F6B803C1F6FF7358
:102C10001B6A7B604FF00003FB6064E042F230000F
:102C2000C0F2030011F006FD42F2F830C0F20300DA
:102C3000F96811F0FFFC7B681B7942F29830C0F212
:102C40000300194611F0F6FC7B685B7942F2B8305C
:102C5000C0F20300194611F0EDFC7B681B6942F2DB
:102C60007810C0F20300194611F0E4FC7B685B6940
:102C700042F29810C0F20300194611F0DBFC7B68A9
:102C80009B6942F2B810C0F20300194611F0D2FC61
:102C90007B68DB6942F2F810C0F20300194611F0BC
:102CA000C9FC7B681B6A42F2F820C0F20300194697
:102CB00011F0C0FC7B689B6842F21820C0F2030050
:102CC000194611F0B7FC7B68DB6842F23820C0F28D
:102CD0000300194611F0AEFC7B681B687B60FB6843
:102CE00003F10103FB60FA6849F6B803C1F6FF730C
:102CF0005B699A4292D307F11007BD4680BD00BFC1
:102D000080B584B000AF11F0E3FBF860FB6893F886
:102D10004D30002B2FD149F20013C1F6FF731B6811
:102D2000A3F51C43A3F1410307F10602184611461F
:102D300003F074FBB860BB68002B07D042F2184068
:102D4000C0F20300B96811F075FC36E049F20013D7
:102D5000C1F6FF731B6842F22840C0F20300194617
:102D600011F068FCFB8842F23040C0F203001946C3
:102D700011F060FC21E0FB6893F84D30012B1CD171
:102D8000FB681B6D9BB2FB8049F20013C1F6FF7319
:102D90001B68A3F51C43A3F14103FA8818461146AA
:102DA00003F014FBB860BB68002B06D042F234403D
:102DB000C0F20300B96811F03DFC07F11007BD46F1
:102DC00080BD00BF80B582B000AF11F081FB78609C
:102DD0007B6893F84D30002B0CD149F20013C1F6FB
:102DE000FF731B6842F24840C0F20300194611F01D
:102DF00021FC23E07B6893F84D30012B1ED17B68CA
:102E00001A6D49F640439A4205D97B681A6D49F616
:102E1000CB539A420AD942F25040C0F2030049F61D
:102E2000414149F6CB5211F005FC07E07B681B6D70
:102E30001A4649F20013C1F6FF731A6007F108073A
:102E4000BD4680BD80B584B000AF4FF001037B600C
:102E50003B464FF02000194603F0E0FA3B8842F26F
:102E60007C40C0F20300194611F0E4FB49F2001364
:102E7000C1F6FF73DA6807F10403104619464FF0F4
:102E80000A024FF0000312F00DF80346012B06D0A2
:102E900042F28840C0F2030011F0CCFB92E007F14F
:102EA00002034FF02300194603F0B8FA7B8803F1C0
:102EB0000A03184612F092FE07F102034FF02200B7
:102EC000194603F0ABFA7B88012B06D042F2A840EA
:102ED000C0F2030011F0AEFB74E03B88052B05D077
:102EE0003B88062B02D03B88042B0ED149F20013FD
:102EF000C1F6FF73DA6C4AF6AB23CAF6AA23A3FB2A
:102F000002134FEA5303BB6007E049F20013C1F616
:102F1000FF73DB6C4FEA5303BB604FF00003FB60B1
:102F20004CE042F2C040C0F20300F96811F082FBAD
:102F300049F20013C1F6FF735A6DFB684FEA430371
:102F4000D3181B8842F2C840C0F20300194611F0A2
:102F500071FB49F20013C1F6FF735A6DF968BB6843
:102F6000CB184FEA4303D3181B8842F2C840C0F283
:102F70000300194611F05EFB3B88052B05D03B880A
:102F8000062B02D03B88042B14D149F20013C1F662
:102F9000FF735A6DBB684FEA4301FB68CB184FEAD9
:102FA0004303D3181B8842F2C840C0F203001946FD
:102FB00011F040FBFB6803F10103FB60FA68BB689A
:102FC0009A42AEDB07F11007BD4680BD80B58AB0DE
:102FD00000AF844805F044FA0346FB61824805F0DF
:102FE0003FFA03463B62814805F03AFA03467B62AA
:102FF0007F4805F035FA03463B617E4805F030FA1C
:1030000003467B617C4805F02BFA0346BB6149F21D
:103010000463C1F6FF73DB6B42F2D040C0F20300E1
:10302000194611F007FB49F20463C1F6FF731B6CEC
:1030300042F2E440C0F20300194611F0FBFA49F2F3
:103040000463C1F6FF735B6C42F2F840C0F2030008
:10305000194611F0EFFAFB6942F20C50C0F203007E
:10306000194611F0E7FA3B6A42F22050C0F2030021
:10307000194611F0DFFA7B6A42F22050C0F20300D9
:10308000194611F0D7FA3B6942F22450C0F203000E
:10309000194611F0CFFA7B6942F22050C0F20300CA
:1030A000194611F0C7FABB6942F22050C0F2030082
:1030B000194611F0BFFA3A697B699A4204D93A6914
:1030C0007B69D31A7B6003E07A693B69D31A7B6022
:1030D0003A69BB699A4204D93A69BB69D31ABB60A1
:1030E00003E0BA693B69D31ABB60BA697B699A424B
:1030F00004D9BA697B69D31AFB6003E07A69BB69BA
:10310000D31AFB607B6842F23450C0F203001946C8
:1031100011F090FABB6842F22050C0F20300194649
:1031200011F088FAFB6842F22050C0F20300194601
:1031300011F080FA4FF43043C4F203031B6842F2EB
:103140004050C0F20300194611F074FA4FF43043B6
:10315000C4F20B031B6842F25050C0F20300194640
:1031600011F068FA4FF44043C4F203031B6842F2C3
:103170006050C0F20300194611F05CFA49F2506346
:10318000C1F6FF73DB6A42F27050C0F203001946C9
:1031900011F050FA49F25063C1F6FF735B6B42F2D3
:1031A0009050C0F20300194611F044FA49F25063FE
:1031B000C1F6FF739B6A42F2B050C0F20300194699
:1031C00011F038FA49F25063C1F6FF731B6B42F2FB
:1031D000D050C0F20300194611F02CFA07F128076D
:1031E000BD4680BD1096FF1F2496FF1F3896FF1F17
:1031F0001496FF1F2896FF1F3C96FF1F80B586B0D0
:1032000000AF786039604FF00003FB6042F2F0508D
:10321000C0F2030011F00EFA7B687B617B683B61B2
:103220000BE07B694FF000021A607B6903F1040335
:103230007B613B6903F101033B617A683B68D2180B
:103240003B699A42EDD87B687B617B683B611BE000
:103250007B691B68002B0CBF00230123DBB27A695A
:1032600002F104027A61002B0AD04FF00103FB60E7
:1032700049F25063C1F6FF734FF0020283F8452014
:103280003B6903F101033B617A683B68D2183B69F3
:103290009A42DDD8FB68002B06D042F20860C0F2EB
:1032A000030011F0C7F905E042F21060C0F203001C
:1032B00011F0C0F907F11807BD4680BD80B588B090
:1032C00000AFF860B9607A603B604FF00003FB75B7
:1032D0004FF00103BB75BB68DBB203F13003DBB217
:1032E0003B744FF020037B744FF00003BB7442F239
:1032F0001460C0F2030011F09DF907F110031846A5
:1033000011F098F97B68FB617B68BB614BE0BB689F
:10331000052B01D1BB69FB60BB68062B09D1BB69DA
:103320004FEA0342BB694FEA03434FEA1343134397
:10333000FB60BB68072B03D1BB694FEA0343FB600B
:10334000BB68082B05D1BB694FEA03434FEA13431F
:10335000FB60FB69FA681A60FB6903F10403FB6117
:10336000BB7D002B1BD04FF24013C4F20F031B692F
:103370004FEA135303F00103002B10D142F21C60FB
:10338000C0F2030011F056F94FF00003BB7549F28B
:103390005063C1F6FF734FF0020283F84520BB690A
:1033A00003F10103BB617A683B68D218BB699A429A
:1033B000ADD87B68FB617B68BB613AE0BB68052BDD
:1033C00001D1BB69FB60BB68062B09D1BB694FEA21
:1033D0000342BB694FEA03434FEA13431343FB60C5
:1033E000BB68072B03D1BB694FEA0343FB60BB6893
:1033F000082B05D1BB694FEA03434FEA1343FB6037
:10340000FB691A68FB689A420BD04FF00103FB7509
:1034100049F25063C1F6FF734FF0020283F8452072
:103420000DE0FB6903F10403FB61BB6903F10103D8
:10343000BB617A683B68D218BB699A42BED8FB7DF3
:10344000002B16D042F20860C0F2030011F0F2F82F
:1034500042F22C60C0F20300F96811F0EBF8FB694E
:103460001B6842F23C60C0F20300194611F0E2F81A
:1034700005E042F24860C0F2030011F0DBF807F10A
:103480002007BD4680BD00BF80B582B000AF4FF0C1
:10349000E0437B604FF000733B6042F25060C0F24B
:1034A000030011F0C7F84FF000004FF001017A68F7
:1034B0003B68FFF703FF4FF0FF304FF002017A68DF
:1034C0003B68FFF7FBFE4FF0AA304FF003017A682C
:1034D0003B68FFF7F3FE4FF055304FF004017A6878
:1034E0003B68FFF7EBFE4FF000004FF005017A68F4
:1034F0003B68FFF7E3FE4FF000004FF006017A68EB
:103500003B68FFF7DBFE4FF000004FF007017A68E1
:103510003B68FFF7D3FE4FF000004FF008017A68D8
:103520003B68FFF7CBFE78683968FFF767FE42F229
:103530006460C0F203001AF0FDFF07F10807BD4602
:1035400080BD00BF80B586B000AF49F25063C1F6C0
:10355000FF7393F840203B461046194607F0D4F815
:10356000034642F27860C0F20300194611F062F897
:1035700049F25063C1F6FF731B6E42F29060C0F2D5
:103580000300194611F056F849F25063C1F6FF7373
:1035900093F841203B461046194607F0B5F803461C
:1035A00042F2A860C0F20300194611F043F849F254
:1035B0005063C1F6FF735B6E42F2C060C0F203005D
:1035C000194611F037F849F25063C1F6FF73B3F8AA
:1035D00072301BB242F2D860C0F20300194611F0FB
:1035E00029F849F25063C1F6FF73B3F870301BB28B
:1035F00042F2F860C0F20300194611F01BF807F11F
:103600001807BD4680BD00BF80B582B000AF4FF047
:10361000A0537B6010F05CFF38603B6893F84D303E
:10362000002B1BD149F25063C1F6FF735B6942F274
:103630002840C0F20300194610F0FCFF49F2506325
:10364000C1F6FF735B697A68D3181B7842F2304089
:10365000C0F20300194610F0EDFF1AE03B6893F842
:103660004D30012B15D149F25063C1F6FF735B69F0
:103670007A68D3183A68126DD2B21A7000BF4FF050
:103680000003C4F202031B78DBB2DBB25BB2002B97
:10369000F5DA07F10807BD4680BD00BF80B582B0EE
:1036A00000AF10F015FF78607B6893F84D30002B69
:1036B0000CD149F25063C1F6FF735B6942F2484096
:1036C000C0F20300194610F0B5FF1BE07B6893F8C9
:1036D0004D30012B16D17B681B6DB3F5804F0AD995
:1036E00042F25040C0F203004FF0000143F6FF7277
:1036F00010F0A0FF06E07B681A6D49F25063C1F636
:10370000FF735A6107F10807BD4680BD80B584B0DC
:1037100000AF4FF0A0537B604FF02003BB6010F070
:10372000D7FE38603B6893F84D30002B07D03B68DC
:1037300093F84D30012B02D13B681B6DBB604FF0FD
:103740000003FB6027E0FB6803F00703002B0DD1AB
:1037500049F25063C1F6FF735A69FB68D31842F20D
:103760001870C0F20300194610F064FF49F250636C
:10377000C1F6FF735A69FB68D3187A68D3181B78AF
:1037800042F22070C0F20300194610F053FFFB68AC
:1037900003F10103FB60BA68FB689A42D3DC07F1CE
:1037A0001007BD4680BD00BF80B584B000AF4FF0AC
:1037B000A0537B604FF02003BB6010F089FE38609F
:1037C0003B6893F84D30002B2BD03B6893F84D307D
:1037D000012B02D13B681B6DBB604FF00003FB6007
:1037E0001AE049F25063C1F6FF735A69FB68D318B7
:1037F0007A68D3184FF0FF021A7000BF4FF0000331
:10380000C4F202031B78DBB2DBB25BB2002BF5DA49
:10381000FB6803F10103FB60BA68FB689A42E0DCD5
:1038200000E000BF07F11007BD4680BD80B582B043
:1038300000AF42F22870C0F2030010F0FBFE07F167
:1038400004034FF0AC00194603F0F8F87B68184603
:103850001BF02AF802460B4642F24070C0F2030009
:1038600010F0E8FE07F104034FF0BE00194603F024
:10387000E5F87B6818461BF017F802460B4642F243
:103880004C70C0F2030010F0D5FE07F104034FF0B6
:10389000D000194603F0D2F87B6818461BF004F8F4
:1038A00002460B4642F25870C0F2030010F0C2FE0E
:1038B00042F26470C0F2030010F0BCFE07F1040392
:1038C0004FF0B200194603F0B9F87B6818461AF0B9
:1038D000EBFF02460B4642F24070C0F2030010F0CC
:1038E000A9FE07F104034FF0C400194603F0A6F83F
:1038F0007B6818461AF0D8FF02460B4642F24C701D
:10390000C0F2030010F096FE07F104034FF0D6005A
:10391000194603F093F87B6818461AF0C5FF024673
:103920000B4642F25870C0F2030010F083FE42F2E0
:103930002870C0F2030010F07DFE07F104034FF081
:10394000AE00194603F07AF87B6818461AF0ACFF0F
:1039500002460B4642F27870C0F2030010F06AFE95
:1039600007F104034FF0C000194603F067F87B68C5
:1039700018461AF099FF02460B4642F28470C0F2D4
:10398000030010F057FE07F104034FF0D200194670
:1039900003F054F87B6818461AF086FF02460B467F
:1039A00042F29070C0F2030010F044FE42F26470E4
:1039B000C0F2030010F03EFE07F104034FF0B40024
:1039C000194603F03BF87B6818461AF06DFF024673
:1039D0000B4642F27870C0F2030010F02BFE07F1A4
:1039E00004034FF0C600194603F028F87B68184618
:1039F0001AF05AFF02460B4642F29C70C0F20300D6
:103A000010F018FE07F104034FF0D800194603F038
:103A100015F87B6818461AF047FF02460B4642F23B
:103A20009070C0F2030010F005FE42F22870C0F260
:103A3000030010F0FFFD07F104034FF0B00019463A
:103A400002F0FCFF7B6818461AF02EFF02460B4678
:103A500042F2A870C0F2030010F0ECFD07F104037D
:103A60004FF0C200194602F0E9FF7B6818461AF0D1
:103A70001BFF02460B4642F2B470C0F2030010F086
:103A8000D9FD07F104034FF0D400194602F0D6FF28
:103A90007B6818461AF008FF02460B4642F2C070D7
:103AA000C0F2030010F0C6FD42F26470C0F20300E1
:103AB00010F0C0FD07F104034FF0B600194602F004
:103AC000BDFF7B6818461AF0EFFE02460B4642F235
:103AD000A870C0F2030010F0ADFD07F104034FF031
:103AE000C800194602F0AAFF7B6818461AF0DCFEEF
:103AF00002460B4642F2B470C0F2030010F09AFD89
:103B000007F104034FF0DA00194602F097FF7B68D3
:103B100018461AF0C9FE02460B4642F2C070C0F2C7
:103B2000030010F087FD07F10807BD4680BD00BF08
:103B300080B584B000AF07F106034FF01F001946AF
:103B400002F06CFCFB881AB246F26763C6F2666349
:103B500083FB02034FEAA3014FEAE273CB1A9BB245
:103B60001BB242F2CC70C0F20300194610F062FDA5
:103B7000FB881AB246F26763C6F2666383FB0213E0
:103B80004FEAA3014FEAE273C91A0B464FEA8303D7
:103B90005B184FEA4303D31AFB81B7F90E30002BB1
:103BA00004DAFB89C3F100039BB2FB81B7F90E3045
:103BB00042F2E870C0F20300194610F03BFD49F2F2
:103BC0005063C1F6FF73B3F876301AB246F26763FA
:103BD000C6F2666383FB02034FEAA3014FEAE27376
:103BE000CB1A9BB21BB242F2F070C0F2030019462E
:103BF00010F020FD49F25063C1F6FF73B3F8763040
:103C00001AB246F26763C6F2666383FB02134FEA99
:103C1000A3014FEAE273C91A0B464FEA83035B180C
:103C20004FEA4303D31AFB81B7F90E30002B04DAB5
:103C3000FB89C3F100039BB2FB81B7F90E3042F25E
:103C4000E870C0F20300194610F0F4FC49F250632A
:103C5000C1F6FF73B3F874301BB242F60C00C0F229
:103C60000300194610F0E6FC49F25063C1F6FF73F9
:103C7000DB6942F62800C0F20300194610F0DAFCB6
:103C800049F25063C1F6FF735A6A49F25063C1F6B4
:103C9000FF73596A4BF27323C4F2E753A3FB01038A
:103CA0004FEA933342F64400C0F2030011461A462D
:103CB00010F0C0FC4FF08003C1F20043BB60BB6852
:103CC0001B8A42F66C00C0F20300194610F0B2FCE9
:103CD00042F68000C0F203004FF0900110F0AAFC01
:103CE00010F0EAFD034642F69400C0F203001946C4
:103CF00010F0A0FC07F11007BD4680BD80B582B072
:103D000000AF4FF000037B6046E07B6803F51C4387
:103D100003F1410349F20011C1F6FF717A6802F123
:103D2000F4024FEA42028A18928842F6A800C0F2D2
:103D30000300194610F07EFC49F20013C1F6FF7330
:103D40007A689B1803F160031B78012B12D0032BB8
:103D500002D0002B07D014E042F6B800C0F20300F6
:103D600010F068FC14E042F6C000C0F2030010F04E
:103D700061FC0DE042F6CC00C0F2030010F05AFCEA
:103D800006E042F6D800C0F2030010F053FC00BF7A
:103D90007B6803F101037B607B68B3F5C57FB4DD0D
:103DA00007F10807BD4680BD80B58AB000AF07F1B6
:103DB000060340F23710194602F030FBFB8842F64A
:103DC000E400C0F20300194610F034FC4FF0000389
:103DD0007B6221E17A6A13464FEA83039B184FEA1C
:103DE00043033B6207F10803FB6102F0A1FA3B6A5F
:103DF00003F59C7349F20012C1F6FF7203F1F4035C
:103E00004FEA4303D3189B883B813B6A03F2391383
:103E100049F20012C1F6FF7203F1F4034FEA4303C3
:103E2000D3189B887B8107F1080303F10403FB612E
:103E30003B6A03F23B1349F20012C1F6FF7203F131
:103E4000F4034FEA4303D3189A88FB691A80FB698D
:103E500003F10203FB613B6A03F59D7349F2001213
:103E6000C1F6FF7203F1F4034FEA4303D3189A88B3
:103E7000FB691A8007F1080303F10803FB613B6A41
:103E800003F23D1349F20012C1F6FF7203F1F4038D
:103E90004FEA4303D3189A88FB691A80FB6903F140
:103EA0000203FB613B6A03F59E7349F20012C1F6FF
:103EB000FF7203F1F4034FEA4303D3189A88FB69B6
:103EC0001A8007F1080303F10C03FB613B6A03F25C
:103ED0003F1349F20012C1F6FF7203F1F4034FEAF7
:103EE0004303D3189A88FB691A80FB6903F1020324
:103EF000FB613B6A03F59F7349F20012C1F6FF7242
:103F000003F1F4034FEA4303D3189A88FB691A803C
:103F100007F1080303F11003FB613B6A03F241134D
:103F200049F20012C1F6FF7203F1F4034FEA4303B2
:103F3000D3189A88FB691A80FB6903F10203FB61BD
:103F40003B6A03F5A07349F20012C1F6FF7203F158
:103F5000F4034FEA4303D3189A88FB691A8002F0EE
:103F6000FDF942F6F400C0F20300796A10F062FB3A
:103F700049F2D063C1F6FF737A6A4FEA02129B18C6
:103F80009B8842F60010C0F20300194610F052FB65
:103F90003B8942F60C10C0F20300194610F04AFBB0
:103FA0007B8942F61810C0F20300194610F042FB5C
:103FB000FB6818461AF078FC02460B4642F62410BD
:103FC000C0F2030010F036FB3B6918461AF06CFC97
:103FD00002460B4642F63010C0F2030010F02AFBF6
:103FE0007B6918461AF060FC02460B4642F63C100C
:103FF000C0F2030010F01EFBBB6918461AF054FC17
:1040000002460B4642F64810C0F2030010F012FBC5
:104010007B6A03F101037B627B6A032B7FF6DAAED6
:1040200007F12807BD4680BD80B584B000AF10F011
:104030004FFAF860FB6893F84D30002B34D149F209
:104040000013C1F6FF731B68A3F51C43A3F14103E2
:104050001A4607F104031046194602F0EFFCB86057
:10406000BB68002B07D042F21840C0F20300B968C9
:1040700010F0E0FA3FE049F20013C1F6FF731B684D
:1040800042F22840C0F20300194610F0D3FA7B68D0
:1040900018461AF009FC02460B4642F65410C0F2CC
:1040A000030010F0C7FA26E0FB6893F84D30012BAF
:1040B00021D1FB68D3ED147AF8EE677AC7ED017A67
:1040C00049F20013C1F6FF731B68A3F51C43A3F16B
:1040D00041031A4607F104031046194602F0E4FCB6
:1040E000B860BB68002B06D042F23440C0F2030037
:1040F000B96810F09FFA07F11007BD4680BD00BFF8
:1041000080B582B000AF4FF0FF337B6040F26C139C
:10411000C1F6FF731B684FF43040C4F20600194625
:104120004FF416520FF010F84FF43040C4F206006E
:104130004FF0F0010FF024F900BF4FF43043C4F208
:1041400006031B79DBB203F04003002BF5D04FF4DC
:104150003040C4F206000FF029F90346002B06D0C8
:104160004FF43040C4F206000FF0F4F8786042F6E5
:104170005C10C0F20300796810F05CFA07F10807E0
:10418000BD4680BDB0B584B002AF42F66810C0F243
:10419000030010F04FFA4FF000037B604FE07B68A4
:1041A00003F1270207F102031046194602F036F91F
:1041B0007B6803F1010145F25653C5F2555383FB69
:1041C00001024FEAE173D21A13464FEA43039B18E8
:1041D000CA1A796845F25653C5F2555383FB01C09C
:1041E0004FEAE173C31A03F1010579884CF6CD4318
:1041F000CCF6CC43A3FB01034FEAD3039BB21C468E
:1042000079884CF6CD43CCF6CC43A3FB01C34FEAEF
:10421000D30003464FEA83031B184FEA4303CB1A2C
:104220009BB2009342F67810C0F2030011462A4672
:10423000234610F0FFF97B6803F101037B607B6884
:10424000052BACDD07F10807BD46B0BD80B586B0D3
:1042500000AF49F25063C1F6FF73DB6EBB6010F034
:1042600037F978607B6893F84D30002B03D14FF01D
:1042700040037B6107E07B6893F84D30012B02D14E
:104280007B681B6D7B614FF000033B6166E03B691F
:1042900003F00F03002B5DD149F25063C1F6FF73A9
:1042A000DB6E1A463B69D31842F23000C0F20300BD
:1042B00019464FF0080210F00FFA4FF00003FB60B0
:1042C0003B693B6012E03A68FB68D318BA68D318C0
:1042D0001B7842F68810C0F2030019464FF0020224
:1042E00010F0FAF9FB6803F10103FB60FB680F2B88
:1042F000E9D94FF00003FB603B693B6027E03A6877
:10430000FB68D318BA68D3181B781F2B15D93A68E5
:10431000FB68D318BA68D3181B787E2B0DD83A687F
:10432000FB68D318BA68D3181B7842F68C10C0F219
:104330000300194610F07EF905E042F69010C0F235
:10434000030010F077F9FB6803F10103FB60FB68E1
:104350000F2BD4D93B6903F110033B617A693B69A8
:104360009A4294D807F11807BD4680BD80B582B047
:1043700000AF10F0ADF878607B6893F84D30002BFB
:104380001AD149F25063C1F6FF73DB6E42F230007E
:10439000C0F2030019464FF0080210F09DF949F2EF
:1043A0005063C1F6FF73DB6E42F69410C0F2030057
:1043B000194610F03FF90CE07B6893F84D30012B63
:1043C00007D17B681B6D1A4649F25063C1F6FF7333
:1043D000DA6607F10807BD4680BD00BF80B582B030
:1043E00000AF78604FF0640011F0F8FBFAE700BF0F
:1043F00080B483B000AF7860D0F800D0D0F804F07B
:1044000007F10C07BD4680BC704700BF80B582B085
:1044100000AF4FF470437B607B683B6072B64EF236
:104420001003CEF200034FF000021A604EF21003A8
:10443000CEF200034FF000025A603B68DB6818467A
:10444000FFF7D6FF07F10807BD4680BD80B489B0ED
:1044500000AFF860B9607A60D7ED017AB8EE677A9C
:10446000D7ED027AF8EE677AC7EE277AC7ED047ABD
:104470007A68BB689A42C0F090804FF00103FB61FC
:10448000D7ED077AF8EE677AC7ED057A4FF00003AB
:10449000BB6141E0BB694FEA4303FA68D318FA698C
:1044A0004FEA4202F9688A1812881A80BA697B6852
:1044B000D3184FEA4303FA68D318F9697A688A185F
:1044C0004FEA4202F9688A1812881A807B684FEA1C
:1044D0004302BB69D3184FEA4303FA68D3187A68DA
:1044E0004FEA4201FA698A184FEA4202F9688A18CB
:1044F00012881A8097ED057AD7ED047A77EE277A3D
:10450000C7ED057AD7ED057AFCEEE77AC7ED077AB5
:10451000BB6903F10103BB61BA69BB689A42B9D3B5
:104520004FF00003BB6113E0BA69BB68D3184FEAD0
:104530004303FA68D318B9697A688A184FEA4202C5
:10454000F9688A1812881A80BB6903F10103BB61FC
:10455000BA69BB689A42E7D34FF00003BB6117E02A
:10456000BB684FEA4302BB69D3184FEA4303FA68BA
:10457000D3187A684FEA4201BA698A184FEA4202B0
:10458000F9688A1812881A80BB6903F10103BB61BC
:10459000BA69BB689A42E3D3AEE07B6803F1FF33AC
:1045A000FB61D7ED077AF8EE677AC7ED057A7B688D
:1045B000BB611FE0BB684FEA4302BB69D31803F13C
:1045C000004303F1FF334FEA4303FA68D2187B68D4
:1045D0004FEA4301BB69CB1803F1004303F1FF33FA
:1045E0004FEA4303F968CB181B881380BB6903F1BA
:1045F000FF33BB61BB69002BDCD17B68BB611BE077
:10460000BA69BB68D31803F1004303F1FF334FEAE3
:104610004303FA68D218B9697B68CB1803F10043E9
:1046200003F1FF334FEA4303F968CB181B8813806B
:10463000BB6903F1FF33BB61BB69002BE0D1BB68F1
:10464000BB6156E0BB6903F1FF334FEA4303FA68ED
:10465000D318FA694FEA4202F9688A1812881A8058
:10466000BA69BB68D31803F1004303F1FF334FEA83
:104670004303FA68D318F969BA688A184FEA420204
:10468000F9688A1812881A80BB684FEA4302BB692E
:10469000D31803F1004303F1FF334FEA4303FA68F1
:1046A000D318BA684FEA4201FA698A184FEA4202FF
:1046B000F9688A1812881A8097ED057AD7ED047A7E
:1046C00077EE677AC7ED057AD7ED057AF5EEC07A11
:1046D000F1EE10FA06DBD7ED057AFCEEE77AC7EDCE
:1046E000077A02E04FF00003FB61BB6903F1FF337F
:1046F000BB61BB69002BA5D107F12407BD4680BC77
:10470000704700BF80B582B000AF786049F20013F7
:10471000C1F6FF73DB68184640F28C01C1F6FF71E9
:104720004FF0FF324FF0000310F0E2FC40F28C0338
:10473000C1F6FF731B68022B00F07781032B00F09A
:104740006D81012B40F04E824FF022004FF00201AC
:1047500001F03CFE4FF0200040F29001C1F6FF71E5
:1047600001F05CFE4FF0230040F29201C1F6FF71B0
:1047700001F054FE40F29203C1F6FF731A8847F22B
:1047800030539A4212D940F29403C1F6FF734FF0AE
:10479000CD021A6040F29403C1F6FF731B689BB20E
:1047A0004FF02200194601F011FE1DE249F20013FC
:1047B000C1F6FF735B6C03F00103002B0AD049F2D2
:1047C0000013C1F6FF73DA6D49F20013C1F6FF73EF
:1047D0005A6509E049F20013C1F6FF739A6D49F278
:1047E0000013C1F6FF735A6549F20013C1F6FF7357
:1047F0005B6C03F1010249F20013C1F6FF735A64C6
:104800004FF0240040F29801C1F6FF7101F006FE5E
:1048100040F29803C1F6FF731B881A4640F29C03CE
:10482000C1F6FF731A6040F29C03C1F6FF731B6868
:104830004FEA034240F29C03C1F6FF731A604FF047
:10484000250040F29801C1F6FF7101F0E7FD40F24A
:104850009803C1F6FF731B881A4640F29C03C1F609
:10486000FF731B681A4340F29C03C1F6FF731A6082
:1048700040F29203C1F6FF731A884CF6CD43CCF692
:10488000CC43A3FB02134FEAD3039BB24FF4FA725B
:1048900002FB03F240F2A003C1F6FF731A6040F27C
:1048A0009C03C1F6FF731B68B3F1FF3F06D040F2D3
:1048B0009C03C1F6FF731B68002B21D140F2A003BB
:1048C000C1F6FF731A6840F29C03C1F6FF731A60C9
:1048D00040F29C03C1F6FF731B689BB24FF02500AA
:1048E000194601F073FD40F29C03C1F6FF731B688B
:1048F0004FEA13439BB24FF02400194601F066FDC6
:1049000040F2A003C1F6FF731A6840F29C03C1F69F
:10491000FF731B68B2FBF3F240F2A403C1F6FF730E
:104920001A6040F29003C1F6FF731B88184640F2EC
:104930009203C1F6FF731B88194640F2A403C1F627
:10494000FF731A6849F20013C1F6FF735B6D03F041
:104950009BFD024640F29403C1F6FF731A6040F2D9
:104960009403C1F6FF731B68002B0BD040F2940335
:10497000C1F6FF731B689BB24FF02200194601F08D
:1049800025FD31E149F20013C1F6FF73596D40F284
:104990009C03C1F6FF731A6840F2A003C1F6FF73CF
:1049A0001B68084611461A46FFF750FD40F29C036B
:1049B000C1F6FF731B684FEA430249F20013C1F6C8
:1049C000FF73DA6440F29003C1F6FF731B88052B76
:1049D0000DD040F29003C1F6FF731B88062B06D062
:1049E00040F29003C1F6FF731B88042B0FD149F2EC
:1049F0000013C1F6FF73DA6C40F29C03C1F6FF733B
:104A00001B68D21849F20013C1F6FF73DA644FF045
:104A100022004FF0010101F0D9FCE5E006F00AF8B0
:104A20000CF042FF06F01CF8DEE04FF022004FF0E1
:104A3000000101F0CBFC4FF0230040F29201C1F6DF
:104A4000FF7101F0EBFC49F20013C1F6FF735B6CE0
:104A500003F00103002B0AD049F20013C1F6FF73E3
:104A6000DA6D49F20013C1F6FF735A6509E049F2A5
:104A70000013C1F6FF739A6D49F20013C1F6FF737C
:104A80005A6549F20013C1F6FF735B6C03F1010232
:104A900049F20013C1F6FF735A6405F0CBFF49F2E7
:104AA0000013C1F6FF735B6D4FF00200194645F22B
:104AB0004042C0F289020CF005FF024640F2940326
:104AC000C1F6FF731A6005F0CBFF40F29403C1F604
:104AD000FF731B68002B06D04FF022004FF003013C
:104AE00001F074FC80E04FF022004FF0020101F071
:104AF0006DFC15E04FF0640011F070F80CF050FF01
:104B00000346042B14D040F29203C1F6FF731B88B6
:104B100003F1FF339AB240F29203C1F6FF731A8099
:104B200040F29203C1F6FF731B88002BE2D100E034
:104B300000BF40F29203C1F6FF731B88002B13D114
:104B40004FF022004FF0040101F040FC05F072FF2D
:104B50000CF0AAFE05F084FF40F29403C1F6FF7347
:104B60004FF0D7021A603FE00CF042FF024640F2DD
:104B70009C03C1F6FF731A6040F29C03C1F6FF73F9
:104B80001B689BB24FF02500194601F01FFC40F254
:104B90009C03C1F6FF731B684FEA13439BB24FF0AF
:104BA0002400194601F012FC40F29C03C1F6FF7389
:104BB0001A6849F20013C1F6FF73DA6405F03AFF90
:104BC0000CF072FE05F04CFF40F29403C1F6FF7347
:104BD0001B68002B07D14FF022004FF0010101F0BC
:104BE000F5FB00E000E000BF90E500BF90B583B0AA
:104BF00000AF786049F20013C1F6FF739B68184656
:104C000040F27C01C1F6FF714FF0FF324FF000031C
:104C100010F06EFA40F27C03C1F6FF731B68292B7B
:104C200013D8272B80F08C87022B00F0D985022B1C
:104C300003D8012B1ED000F082BF212B00F08E86FE
:104C4000222B00F0BA8600F07ABFE32B00F06887D1
:104C5000E32B07D8AB2B00F0DA85E22B00F05B8763
:104C600000F06DBFE42B00F06087E52B00F0628759
:104C700000F065BF4FF0010040F28001C1F6FF7106
:104C800001F0CCFB40F28003C1F6FF731B884AF2AF
:104C90005A42934200F0AF824AF25A4293421FDCDA
:104CA00043F26E02934200F03F8143F26E02934260
:104CB00007DC032B00F04D83042B5AD0012B3FD08F
:104CC00051E0B3F5C04F00F0CC8046F201029342B0
:104CD00000F0F18143F2A202934200F05D8142E0D4
:104CE0004DF60312934200F062854DF60312934293
:104CF0000FDC4BF2F312934200F0AB844BF2F41250
:104D0000934200F0DE844AF25B42934200F0AB82B1
:104D100029E04EF66722934200F0DF834EF66722C9
:104D2000934204DC4EF6662293421ED01BE04EF600
:104D30006822934221D04EF66922934241D012E07C
:104D40004FF032004FF0010106F050FF4FF06400C9
:104D500010F044FF4FF0E0224FF00403C0F2FA538A
:104D6000C2F80C3DFEE700F02ABD0DF04FFE00F04A
:104D700026BD04F045FE00F022BD4EF28813C4F2B9
:104D80000A031A6840F28403C1F6FF731A6040F206
:104D90008403C1F6FF731B684FEA13439BB24FF0C5
:104DA0003100194601F012FB40F28403C1F6FF7393
:104DB0001B689BB24FF03200194601F007FB00F070
:104DC000FEBC4FF0310040F28001C1F6FF7101F0EE
:104DD00025FB40F28003C1F6FF731B881A4640F2A0
:104DE0008403C1F6FF731A6040F28403C1F6FF73B7
:104DF0001B684FEA034240F28403C1F6FF731A6056
:104E00004FF0320040F28001C1F6FF7101F006FB65
:104E100040F28003C1F6FF731B881A4640F28403F8
:104E2000C1F6FF731B681A4340F28403C1F6FF7397
:104E30001A604EF28C13C4F20A0340F28402C1F6E7
:104E4000FF7212681A604EF28413C4F20A034EF223
:104E50008412C4F20A02126842F400421A6000F09E
:104E6000AEBC40F28403C1F6FF7340F22B121A600D
:104E700019E040F28403C1F6FF731A6849F2001387
:104E8000C1F6FF739B184FF0000283F8602040F2D8
:104E90008403C1F6FF731B6803F1010240F284032F
:104EA000C1F6FF731A6040F28403C1F6FF731B68FA
:104EB000B3F59B7FDDD940F28403C1F6FF734FF455
:104EC000B0721A6019E040F28403C1F6FF731A68E9
:104ED00049F20013C1F6FF739B184FF0000283F8EC
:104EE000602040F28403C1F6FF731B6803F10102E6
:104EF00040F28403C1F6FF731A6040F28403C1F6E6
:104F0000FF731A6840F265139A42DCD94FF0020031
:104F10004FF0010101F05AFA4FF00F004FF000017D
:104F200001F054FA00F04BBC40F28403C1F6FF7369
:104F30004FF000021A6019E040F28403C1F6FF73DB
:104F40001A6849F20013C1F6FF739B184FF0000274
:104F500083F8602040F28403C1F6FF731B6803F1FD
:104F6000010240F28403C1F6FF731A6040F2840329
:104F7000C1F6FF731B68B3F5C57FDDD94FF00200A2
:104F80004FF0010101F022FA4FF00F004FF0000145
:104F900001F01CFA00F013BC40F28803C1F6FF7365
:104FA0004FF48D721A604FF4957040F28001C1F693
:104FB000FF7101F033FA40F28003C1F6FF731A88E3
:104FC00043F2A2039A4239D140F28803C1F6FF733B
:104FD0004FF000021A6040F28403C1F6FF734FF0F5
:104FE00000021A6021E040F28403C1F6FF731B68DF
:104FF00018464FF0FF3106F0F9FD024640F28803F3
:10500000C1F6FF731B681A4340F28803C1F6FF73B1
:105010001A6040F28403C1F6FF731B6803F10102BA
:1050200040F28403C1F6FF731A6040F28403C1F6B4
:10503000FF731A6840F6FF739A42D4D940F288038E
:10504000C1F6FF731B68002B22D04FF002004FF017
:10505000030101F0BBF940F28803C1F6FF731B683E
:105060009BB24FF00F00194601F0B0F940F28803EF
:10507000C1F6FF731B689BB24FF00D00194601F09B
:10508000A5F94FF004004FF0030101F05BFC96E33B
:105090004FF002004FF0010101F098F94FF00F00BE
:1050A0004FF0000101F092F94FF004004FF00301BE
:1050B00001F074FC83E340F28403C1F6FF7340F215
:1050C0002B121A6019E040F28403C1F6FF731A68CC
:1050D00049F20013C1F6FF739B184FF0010283F8E9
:1050E000602040F28403C1F6FF731B6803F10102E4
:1050F00040F28403C1F6FF731A6040F28403C1F6E4
:10510000FF731B68B3F59B7FDDD940F28403C1F6C2
:10511000FF734FF4B0721A6019E040F28403C1F6D5
:10512000FF731A6849F20013C1F6FF739B184FF022
:10513000010283F8602040F28403C1F6FF731B680C
:1051400003F1010240F28403C1F6FF731A6040F2DA
:105150008403C1F6FF731A6840F265139A42DCD9E2
:105160004FF002004FF0020101F030F901F07EF93A
:10517000024640F28803C1F6FF731A6040F28803CA
:10518000C1F6FF731B68002B22D04FF002004FF0D6
:10519000030101F01BF940F28803C1F6FF731B689D
:1051A0009BB24FF00F00194601F010F940F288034E
:1051B000C1F6FF731B689BB24FF00D00194601F05A
:1051C00005F94FF004004FF0030101F0BBFBF6E2DC
:1051D0004FF002004FF0010101F0F8F84FF00F001E
:1051E0004FF0000101F0F2F84FF004004FF003011E
:1051F00001F0D4FBE3E240F28403C1F6FF7340F216
:1052000037121A6019E040F28403C1F6FF731A687E
:1052100049F20013C1F6FF739B184FF0000283F8A8
:10522000602040F28403C1F6FF731B6803F10102A2
:1052300040F28403C1F6FF731A6040F28403C1F6A2
:10524000FF731A6840F25F139A42DCD94FF00200F4
:105250004FF0010101F0BAF84FF00F004FF00001DC
:1052600001F0B4F8ABE240F28403C1F6FF7340F200
:1052700037121A6019E040F28403C1F6FF731A680E
:1052800049F20013C1F6FF739B184FF0010283F837
:10529000602040F28403C1F6FF731B6803F1010232
:1052A00040F28403C1F6FF731A6040F28403C1F632
:1052B000FF731A6840F25F139A42DCD94FF0020084
:1052C0004FF0020101F082F801F0CAFC024640F200
:1052D0008803C1F6FF731A6040F28803C1F6FF73BA
:1052E0001B68002B22D04FF002004FF0030101F0A9
:1052F0006DF840F28803C1F6FF731B689BB24FF054
:105300000F00194601F062F840F28803C1F6FF73FE
:105310001B689BB24FF00D00194601F057F84FF093
:1053200004004FF0030101F00DFB48E24FF00200D2
:105330004FF0010101F04AF84FF00F004FF000016B
:1053400001F044F84FF004004FF0030101F026FB98
:1053500035E24FF0120040F28001C1F6FF7101F01A
:105360005DF840F28003C1F6FF731B881A4649F2CC
:105370000013C1F6FF739A6449F20013C1F6FF737C
:105380009B6C4FEA034249F20013C1F6FF739A6423
:105390004FF0130040F28001C1F6FF7101F03EF8BA
:1053A00049F20013C1F6FF739A6C40F28003C1F614
:1053B000FF731B881A4349F20013C1F6FF739A6406
:1053C00049F20013C1F6FF739A6C49F20013C1F65B
:1053D000FF73DB6C9A4280F0F18140F28403C1F6E6
:1053E000FF734FF031021A6000F0A2FF40F2840315
:1053F000C1F6FF73196849F20013C1F6FF739B6C85
:1054000098B249F20012C1F6FF7201F1F4034FEABB
:105410004303D31802469A8001F1010240F284034B
:10542000C1F6FF731A604EE049F20013C1F6FF7334
:105430009A6C49F20013C1F6FF73DB6C9A4225D2D5
:1054400040F28403C1F6FF731C6849F20013C1F6F1
:10545000FF731A6D49F20013C1F6FF73996C4FEA9E
:105460004103D318188849F20012C1F6FF7204F103
:10547000F4034FEA4303D31802469A8001F1010274
:1054800049F20013C1F6FF739A6410E040F28403FE
:10549000C1F6FF731B6849F20012C1F6FF7203F1F7
:1054A000F4034FEA4303D3184FF000029A8040F20E
:1054B0008403C1F6FF731B6803F1010240F2840309
:1054C000C1F6FF731A6040F28403C1F6FF731B68D4
:1054D000AB2BA9D900F042FF71E14FF0120040F26E
:1054E0008001C1F6FF7100F099FF40F28003C1F620
:1054F000FF731B881A4649F20013C1F6FF739A64C2
:1055000049F20013C1F6FF739B6C4FEA034249F264
:105510000013C1F6FF739A644FF0130040F280014C
:10552000C1F6FF7100F07AFF49F20013C1F6FF7374
:105530009A6C40F28003C1F6FF731B881A4349F24C
:105540000013C1F6FF739A6440F28403C1F6FF733F
:105550004FF031021A6000F0EBFE40F28403C1F616
:10556000FF73196849F20013C1F6FF739B6C98B280
:1055700049F20012C1F6FF7201F1F4034FEA43034E
:10558000D31802469A8001F1010240F28403C1F669
:10559000FF731A6053E049F20013C1F6FF739A6C6F
:1055A00049F20013C1F6FF73DB6C9A4224D249F230
:1055B0000013C1F6FF731A6D49F20013C1F6FF73B1
:1055C000996C4FEA4103D01840F28403C1F6FF738F
:1055D0001B6849F20012C1F6FF7203F1F4034FEAAF
:1055E0004303D3189B88038001F1010249F20013A1
:1055F000C1F6FF739A6416E049F20013C1F6FF7317
:10560000196D49F20013C1F6FF739B6C4FEA430218
:105610008A184FF00001118003F1010249F20013D2
:10562000C1F6FF739A6440F28403C1F6FF731B68EE
:1056300003F1010240F28403C1F6FF731A6040F2E5
:105640008403C1F6FF731B68AB2BA4D900F086FE60
:10565000B5E040F28403C1F6FF734FF4B3721A60F1
:1056600019E040F28403C1F6FF731A6849F200138F
:10567000C1F6FF739B184FF0000283F8602040F2E0
:105680008403C1F6FF731B6803F1010240F2840337
:10569000C1F6FF731A6040F28403C1F6FF731A6803
:1056A00040F285139A42DCD94FF002004FF001011D
:1056B00000F08CFE4FF00F004FF0000100F086FE6E
:1056C0007DE040F28403C1F6FF734FF4B3721A60B9
:1056D00019E040F28403C1F6FF731A6849F200131F
:1056E000C1F6FF739B184FF0010283F8602040F26F
:1056F0008403C1F6FF731B6803F1010240F28403C7
:10570000C1F6FF731A6040F28403C1F6FF731A6892
:1057100040F285139A42DCD94FF002004FF00201AB
:1057200000F054FE01F066FC024640F28803C1F628
:10573000FF731A6040F28803C1F6FF731B68002BE9
:1057400022D04FF002004FF0030100F03FFE40F284
:105750008803C1F6FF731B689BB24FF00F00194618
:1057600000F034FE40F28803C1F6FF731B689BB261
:105770004FF00D00194600F029FE4FF004004FF0E5
:10578000030101F0DFF81AE04FF002004FF00101D1
:1057900000F01CFE4FF00F004FF0000100F016FE6D
:1057A0004FF004004FF0030101F0F8F807E04FF06C
:1057B000640010F013FAFEF729FE00E000BF40F28B
:1057C0008003C1F6FF731B884FF00A00194600F0F2
:1057D000FDFD4FF001004FF0000100F0F7FDB8E1D2
:1057E0004FF0020040F28001C1F6FF7100F016FE9A
:1057F00040F28003C1F6FF731B88022B00F0A281E8
:105800004FF002004FF0000100F0E0FD9AE149F294
:105810000013C1F6FF739A6C49F20013C1F6FF73CF
:10582000DB6C9A4280F0908140F28403C1F6FF73F2
:105830004FF031021A6000F07BFD40F28403C1F6A4
:10584000FF73196849F20013C1F6FF739B6C98B29D
:1058500049F20012C1F6FF7201F1F4034FEA43036B
:10586000D31802469A8001F1010240F28403C1F686
:10587000FF731A604EE049F20013C1F6FF739A6C91
:1058800049F20013C1F6FF73DB6C9A4225D240F255
:105890008403C1F6FF731C6849F20013C1F6FF735D
:1058A0001A6D49F20013C1F6FF73996C4FEA410378
:1058B000D318188849F20012C1F6FF7204F1F403FC
:1058C0004FEA4303D31802469A8001F1010249F2DC
:1058D0000013C1F6FF739A6410E040F28403C1F62E
:1058E000FF731B6849F20012C1F6FF7203F1F40363
:1058F0004FEA4303D3184FF000029A8040F284032A
:10590000C1F6FF731B6803F1010240F28403C1F684
:10591000FF731A6040F28403C1F6FF731B68AB2B60
:10592000A9D949F20013C1F6FF739B6C4FEA1343E8
:105930009AB249F20013C1F6FF73A3F8102249F29C
:105940000013C1F6FF739B6C9AB249F20013C1F6C3
:10595000FF73A3F8122200F001FDFAE04FF02100DE
:1059600040F28001C1F6FF7100F058FD4FF02100B8
:105970004FF0000100F02AFD49F20013C1F6FF7359
:10598000DB68184640F28001C1F6FF714FF00A0251
:105990004FF000030FF086FA0346012B00F0D6808B
:1059A00049F20013C1F6FF735B6803F1010249F28B
:1059B0000013C1F6FF735A60C8E04FF0220040F2B6
:1059C0008001C1F6FF7100F029FD40F28003C1F6AD
:1059D000FF731B88012B05D14FF022004FF000010F
:1059E00000F0F4FC40F28003C1F6FF731B88012B2A
:1059F00040F0AE8049F20013C1F6FF735A6D49F2D0
:105A00000013C1F6FF731A6540F28403C1F6FF73F9
:105A10004FF031021A6049F20013C1F6FF734FF0E4
:105A200000029A6400F084FC40F28403C1F6FF7324
:105A3000196849F20013C1F6FF739B6C98B249F2E2
:105A40000012C1F6FF7201F1F4034FEA4303D318C9
:105A500002469A8001F1010240F28403C1F6FF730D
:105A60001A604EE049F20013C1F6FF739A6C49F2D6
:105A70000013C1F6FF73DB6C9A4225D240F2840317
:105A8000C1F6FF731C6849F20013C1F6FF731A6D6B
:105A900049F20013C1F6FF73996C4FEA4103D31822
:105AA000188849F20012C1F6FF7204F1F4034FEABC
:105AB0004303D31802469A8001F1010249F2001310
:105AC000C1F6FF739A6410E040F28403C1F6FF73DD
:105AD0001B6849F20012C1F6FF7203F1F4034FEAAA
:105AE0004303D3184FF000029A8040F28403C1F6BA
:105AF000FF731B6803F1010240F28403C1F6FF73D8
:105B00001A6040F28403C1F6FF731B68AB2BA9D95E
:105B100000F024FC1CE04FF0000009F091FC18E0BC
:105B20004FF0010009F08CFC13E04FF0020009F087
:105B300087FC0EE04FF0030009F082FC09E008E06A
:105B400000BF06E000BF04E000BF02E000BF00E0CD
:105B500000BFFFF74FB800BF80B588B004AF4FF06B
:105B60000003BB604FF080037B604FF001000FF03B
:105B70009DF8024649F20013C1F6FF731A6149F21B
:105B80000013C1F6FF731B69002B03D14FF0CC0348
:105B9000BB60C7E34FF008004FF004014FF0000274
:105BA0000FF038F8024649F20013C1F6FF739A600D
:105BB00049F20013C1F6FF739B68002B03D14FF02D
:105BC000C903BB60AEE34FF001004FF004014FF09A
:105BD00000020FF01FF8024649F20013C1F6FF73EE
:105BE000DA6049F20013C1F6FF73DB68002B03D1C2
:105BF0004FF0C903BB6095E37B689BB24FF0020294
:105C000000924FF0000201924FF0000202924FF01A
:105C10000002039244F6ED30C0F2010042F69C11FE
:105C2000C0F203011A464FF000030FF003FE0346D3
:105C3000012B03D04FF0CA03BB6073E37B689BB2B8
:105C40004FF0030200924FF0000201924FF0000269
:105C500002924FF00002039244F20570C0F201007C
:105C600042F6A411C0F203011A464FF000030FF0F0
:105C7000E1FD0346012B03D04FF0CA03BB6051E3A3
:105C80007B689BB24FF0000200924FF0000201923D
:105C90004FF0000202924FF00002039244F2DD3016
:105CA000C0F2010042F6AC11C0F203011A464FF0F7
:105CB00000030FF0BFFD0346012B03D04FF0CA03D2
:105CC000BB602FE34FF00003FB601BE049F20012C2
:105CD000C1F6FF72FB6803F1F4034FEA4303D318E4
:105CE0004FF6FF729A8049F20013C1F6FF73FA680B
:105CF0009B1803F160034FF003021A70FB6803F175
:105D00000103FB60FB68B3F5C57FDFDD49F20013DB
:105D1000C1F6FF7340F27232A3F8EC2149F200138E
:105D2000C1F6FF734FF04102A3F8162449F20013A5
:105D3000C1F6FF734FF00002A3F8F02149F20013FF
:105D4000C1F6FF734FF00002A3F8F22149F20013ED
:105D5000C1F6FF734FF00002A3F8F42149F20013DB
:105D6000C1F6FF734FF00102A3F8082249F20013B5
:105D7000C1F6FF734FF00002A3F80A2249F20013A4
:105D8000C1F6FF734FF00002A3F8062249F2001398
:105D9000C1F6FF734FF00002A3F8F62149F2001399
:105DA000C1F6FF734FF00002A3F8F82149F2001387
:105DB000C1F6FF734FF00002A3F8FA2149F2001375
:105DC000C1F6FF734FF00002A3F8242249F200133A
:105DD000C1F6FF734FF00002A3F8262249F2001328
:105DE000C1F6FF734FF00002A3F8282200F038FD3F
:105DF0000346002B01D000F0B3FE00F0CDFF0346B8
:105E0000002B01D001F020F801F09EF90346002B91
:105E100001D001F013FA49F20013C1F6FF734FF0FD
:105E20000002A3F8342249F20013C1F6FF734FF4C5
:105E30000072A3F8362249F20013C1F6FF7347F24D
:105E40003052A3F8322249F20013C1F6FF734FF02B
:105E50000002A3F82C2249F20013C1F6FF734FF0A1
:105E60000002A3F82E2249F20013C1F6FF734FF08F
:105E70000002A3F8302204F0E7FA03469AB249F28E
:105E80000013C1F6FF73A3F8022249F20013C1F612
:105E9000FF734FF00002A3F804224FF47043C4F2E2
:105EA00007035B78DBB24FEA03239AB24FF47043E7
:105EB000C4F207031B78DBB213439BB29AB249F2D8
:105EC0000013C1F6FF73A3F8FA244FF0C403C1F224
:105ED00000431B689AB249F20013C1F6FF73A3F89E
:105EE000F8244FF0C803C1F200431B689AB249F28C
:105EF0000013C1F6FF73A3F8FC2449F20013C1F6A6
:105F0000FF734FF00202A3F8FE2449F20013C1F61A
:105F1000FF734FF00002A3F83E244FF0E203FB6052
:105F200010E049F20012C1F6FF72FB6803F1F403BE
:105F30004FEA4303D3184FF000029A80FB6803F145
:105F40000103FB60FB68E52BEBDD49F20013C1F6B2
:105F5000FF734FF00002A3F8C82349F20013C1F603
:105F6000FF734FF0000283F8612049F20013C1F67D
:105F7000FF734FF0000283F86E2049F20013C1F660
:105F8000FF734FF0000283F8722049F20013C1F64C
:105F9000FF734FF0000283F8732049F20013C1F63B
:105FA000FF734FF0000283F8842049F20013C1F61A
:105FB000FF734FF0000283F8852049F20013C1F609
:105FC000FF734FF0000283F8832049F20013C1F6FB
:105FD000FF734FF0000283F8802049F20013C1F6EE
:105FE000FF734FF0000283F8812049F20013C1F6DD
:105FF000FF734FF0000283F84E2149F20013C1F6FF
:10600000FF734FF0000283F8E92149F20013C1F653
:10601000FF734FF0010283F8602049F20013C1F6CC
:10602000FF734FF0010283F8622049F20013C1F6BA
:10603000FF734FF0010283F8632049F20013C1F6A9
:10604000FF734FF0010283F8642049F20013C1F698
:10605000FF734FF0010283F86D2049F20013C1F67F
:10606000FF734FF0010283F86F2049F20013C1F66D
:10607000FF734FF0010283F8702049F20013C1F65C
:10608000FF734FF0010283F8712049F20013C1F64B
:10609000FF734FF0010283F8822049F20013C1F62A
:1060A000FF734FF0010283F8862049F20013C1F616
:1060B000FF734FF0010283F8712049F20013C1F61B
:1060C000FF734FF0010283F8702049F20013C1F60C
:1060D000FF734FF0010283F8652049F20013C1F607
:1060E000FF734FF0010283F8662049F20013C1F6F6
:1060F000FF734FF0010283F8672049F20013C1F6E5
:10610000FF734FF0000283F86A2049F20013C1F6D2
:10611000FF734FF0010283F8D62149F20013C1F654
:10612000FF734FF0010283F87C2049F20013C1F69F
:10613000FF734FF0010283F87D2049F20013C1F68E
:10614000FF734FF0010283F87E2049F20013C1F67D
:10615000FF734FF0010283F86C204FF01403FB60D3
:106160000EE049F20013C1F6FF73FA689B1803F1C1
:1061700060034FF001021A70FB6803F10103FB603A
:10618000FB681B2BEDDD4FF03103FB600EE049F2A5
:106190000013C1F6FF73FA689B1803F160034FF018
:1061A00000021A70FB6803F10103FB60FB68AB2B74
:1061B000EDDD40F23713FB600EE049F20013C1F64B
:1061C000FF73FA689B1803F160034FF001021A7025
:1061D000FB6803F10103FB60FA6840F25F139A4227
:1061E000EBDD4FF4B373FB600EE049F20013C1F630
:1061F000FF73FA689B1803F160034FF001021A70F5
:10620000FB6803F10103FB60FA6840F285139A42D0
:10621000EBDD49F20013C1F6FF734FF0010283F882
:106220006B2049F20013C1F6FF734FF0010283F8AF
:10623000E62149F20013C1F6FF734FF0010283F823
:10624000E72149F20013C1F6FF734FF0010283F812
:10625000E82149F20013C1F6FF734FF0010283F801
:10626000EA2149F20013C1F6FF734FF0010283F8EF
:10627000892149F20013C1F6FF734FF0010283F840
:10628000882149F20013C1F6FF734FF0010283F831
:10629000752149F20013C1F6FF7349F641421A60B5
:1062A00049F20013C1F6FF734FF000029A6449F2FD
:1062B0000013C1F6FF734FF00002DA6449F20013D5
:1062C000C1F6FF734FF000025A6049F20013C1F6A5
:1062D000FF7342F6E062C7F200029A6549F20013CA
:1062E000C1F6FF739A6D49F20013C1F6FF731A6588
:1062F00049F20013C1F6FF731A6D49F20013C1F69B
:10630000FF735A6549F20013C1F6FF734FF00002A4
:106310005A6449F20013C1F6FF7348F22032C7F203
:106320008902DA65BB68184607F11007BD4680BDD3
:1063300080B500AF00BF49F20013C1F6FF731B69BF
:1063400018464FF000014FF001024FF000030EF02D
:10635000CFFE0346012BEED180BD00BF80B500AF5C
:1063600049F20013C1F6FF731B6918464FF0000194
:106370004FF000024FF000030EF094FD80BD00BF0F
:1063800080B584B000AF78600B46FB704FF000031F
:10639000FB60FFF7CDFF7B68B3F5C57F0ADC49F2F0
:1063A0000013C1F6FF737A689B1803F16003FA7853
:1063B0001A7002E04FF0CB03FB60FFF7CFFFFB68E2
:1063C000184607F11007BD4680BD00BF80B584B0F8
:1063D00000AF78600B467B804FF00003FB60FFF757
:1063E000A7FF7B68B3F5C57F0CDC49F20012C1F64C
:1063F000FF727B6803F1F4034FEA4303D3187A88F2
:106400009A8002E04FF0CB03FB60FFF7A7FFFB6829
:10641000184607F11007BD4680BD00BF80B584B0A7
:1064200000AF786039604FF00003FB60FFF780FF3A
:106430007B68B3F5C57F0DDC49F20012C1F6FF722F
:106440007B6803F1F4034FEA4303D3189A883B684F
:106450001A8002E04FF0CB03FB60FFF77FFFFB6881
:10646000184607F11007BD4680BD00BF80B590B04B
:1064700000AF4FF00003FB6307F104033B6340F2FE
:106480002B137B6310E007F10203786B1946FFF7CB
:10649000C5FF7A883B6B1A803B6B03F102033B63B9
:1064A0007B6B03F101037B637B6BB3F59B7FEADDC1
:1064B00007F1040303F118034FF4B0701946FFF716
:1064C000ADFF07F1040303F11A0340F2611019460E
:1064D000FFF7A4FF07F1040303F11C034FF4B170AD
:1064E0001946FFF79BFF07F1040303F11E0340F277
:1064F00063101946FFF792FF07F1040303F120032D
:106500004FF4B2701946FFF789FF07F1040303F156
:10651000220340F265101946FFF780FF45F2AA53A7
:106520003B8507F1040318464FF0260117F0E4FD00
:1065300003469BB27B854FF00003BB6307F1040366
:10654000FB624FF000037B6316E0BA6BBB6B03F199
:106550000103BB637B6B4FEA8303F96ACB181B68AB
:106560001046194605F042FBF863FB6B002B0AD17D
:106570007B6B03F101037B637B6B092BE5D900F097
:1065800009F8F86300E000BFFB6B184607F140070D
:10659000BD4680BD80B584B000AF4FF00003FB6006
:1065A0004FF0A053BB60BB689A8C45F2AA539A4245
:1065B00003D04FF0D003FB600FE0B8684FF0260126
:1065C00017F09AFD0346FB80BB68DB8CFA889A4281
:1065D00003D04FF0D103FB6000BFFB68184607F102
:1065E0001007BD4680BD00BF80B584B000AF4FF03E
:1065F0000003FB6040F22B13BB6016E007F10603BB
:10660000B8681946FFF70AFFF860FB68002B11D144
:10661000FA884FF6FF739A4203D14FF0D603FB601E
:1066200009E0BB6803F10103BB60BB68B3F59B7F66
:10663000E4DD00E000BF07F104034FF00E0019464F
:10664000FFF7ECFEBB8803F004039BB2002B21D0C4
:106650004FF4B073BB6016E007F10603B868194643
:10666000FFF7DCFEF860FB68002B12D1FA884FF6CA
:10667000FF739A4203D14FF0D603FB600AE0BB6878
:1066800003F10103BB60BA6840F265139A42E3DD8F
:1066900000E000BFFB68002B40F0898007F1060393
:1066A0004FF00A001946FFF7B9FEF860FB68002BAF
:1066B00040F0D080FB88B3F5C04F00F0CB8040F2B3
:1066C0002B13BB6020E049F20013C1F6FF73BA68D8
:1066D0009B1803F160034FF001021A7049F2001396
:1066E000C1F6FF73BA689B1803F160031A7849F288
:1066F0000013C1F6FF73B9685B1803F160031A70E9
:10670000BB6803F10103BB60BB68B3F59B7FDADDB7
:106710004FF4B073BB6044E0BB8803F004039BB24A
:10672000002B1DD049F20013C1F6FF73BA689B1805
:1067300003F160034FF001021A7049F20013C1F631
:10674000FF73BA689B1803F160031A7849F20013CB
:10675000C1F6FF73B9685B1803F160031A701CE09F
:1067600049F20013C1F6FF73BA689B1803F1600386
:106770004FF003021A7049F20013C1F6FF73BA68B2
:106780009B1803F160031A7849F20013C1F6FF73F6
:10679000B9685B1803F160031A70BB6803F1010369
:1067A000BB60BA6840F265139A42B5DD52E007F16A
:1067B00006034FF00A001946FFF730FEF860FB6849
:1067C000002B44D1FB88B3F5C04F40D040F22B13CF
:1067D000BB600EE049F20013C1F6FF73BA689B1864
:1067E00003F160034FF003021A70BB6803F1010369
:1067F000BB60BB68B3F59B7FECDD4FF4B073BB604F
:1068000020E049F20013C1F6FF73BA689B1803F148
:1068100060034FF003021A7049F20013C1F6FF73D0
:10682000BA689B1803F160031A7849F20013C1F6A5
:10683000FF73B9685B1803F160031A70BB6803F15A
:106840000103BB60BA6840F265139A42D9DD4FF08C
:10685000D603FB60FB68184607F11007BD4680BDF4
:1068600080B586B000AF4FF000033B614FF0A053FE
:10687000BB60BB689A8C45F2AA539A4203D04FF092
:10688000D0033B6157E0B8684FF0260117F034FCA5
:106890000346FB80BB68DB8CFA889A4203D04FF03A
:1068A000D1033B6147E0BB68FB6040F22B137B6187
:1068B00015E0FB68198849F20012C1F6FF727B6986
:1068C00003F1F4034FEA4303D3180A469A80FB68A6
:1068D00003F10203FB607B6903F101037B617B69C8
:1068E000B3F59B7FE5D94FF4B0737B6115E0FB688E
:1068F000198849F20012C1F6FF727B6903F1F403B3
:106900004FEA4303D3180A469A80FB6803F1020357
:10691000FB607B6903F101037B617A6940F26513D7
:106920009A42E4D9FFF736FE38613B69002B02D169
:10693000FFF75AFE38613B69184607F11807BD4654
:1069400080BD00BF80B584B000AF786039604FF083
:106950000003FB607A6807F10A0310461946FFF747
:106960005DFDF860FB68002B01D0FB6811E03B681F
:106970004FF0010202FA03F39AB27B8913439BB2F0
:106980007B817A687B8910461946FFF71FFDF86006
:10699000FB68184607F11007BD4680BD80B584B07E
:1069A00000AF786039604FF00003FB607A6807F150
:1069B0000A0310461946FFF731FDF860FB68002B0B
:1069C00001D0FB6814E03B684FF0010202FA03F3C8
:1069D0009BB26FEA03039AB27B8913409BB27B811F
:1069E0007A687B8910461946FFF7F0FCF860FB686F
:1069F000184607F11007BD4680BD00BF80B485B0C2
:106A000000AF78607B68FB60FB6803F10203FB600A
:106A1000FB681B88184607F11407BD4680BC704709
:106A200080B485B000AF78607B68FB60FB681B8832
:106A3000184607F11407BD4680BC704780B586B084
:106A400000AF786039604FF000037B613B683B61C9
:106A50007B6803F101031A4607F10E03104619463D
:106A6000FFF7DCFC7B69002B01D07B6916E0FA891B
:106A70003B691A803B6903F102033B617A6807F1C5
:106A80000E0310461946FFF7C9FC7B69002B01D0A5
:106A90007B6903E0FA893B691A807B69184607F134
:106AA0001807BD4680BD00BF80B485B000AF7860D8
:106AB00039604FF00003FB603B68BB607B6803F10B
:106AC0000103B3F5C57F40D87B6803F10103BA68C1
:106AD000118849F20012C1F6FF7203F1F4034FEA84
:106AE0004303D3180A469A80BB6803F10203BB60D4
:106AF000BB68198849F20012C1F6FF727B6803F186
:106B0000F4034FEA4303D3180A469A807B6803F1E3
:106B1000010149F20013C1F6FF737A689B1803F173
:106B200060034FF001021A7049F20013C1F6FF73BF
:106B30007A689B1803F160031A7849F20013C1F6D2
:106B4000FF735B1883F8602002E04FF0CB03FB601B
:106B5000FB68184607F11407BD4680BC704700BFAC
:106B600080B483B000AF4FF000037B607B681846B1
:106B700007F10C07BD4680BC704700BF80B586B0EA
:106B800000AF786039604FF000037B613B68FB60C9
:106B90004FF000033B6116E0FB68FA6802F1040263
:106BA000FA6078681946FFF77FFF78617B69002BF0
:106BB00001D07B690BE07B6803F102037B603B69DA
:106BC00003F101033B613B69082BE5D97B6918465A
:106BD00007F11807BD4680BD80B487B000AF78606C
:106BE00039604FF00003FB603B683B614FF00003EE
:106BF0007B612BE07B6803F1010349F20012C1F6CF
:106C0000FF7203F1F4034FEA4303D3189A883B69F8
:106C10001A803B6903F102033B6149F20012C1F69D
:106C2000FF727B6803F1F4034FEA4303D3189A8899
:106C30003B691A803B6903F102033B617B6803F106
:106C400002037B607B6903F101037B617B69082B95
:106C5000D0D9FB68184607F11C07BD4680BC7047B9
:106C600080B59CB000AF4FF00003FB6607F1040352
:106C70003B6640F237137B661DE007F10203786E36
:106C80001946FFF7CBFB7A883B6E1A803B6E03F107
:106C900002033B667A6E40F237139A4207D13B6E8D
:106CA0004FF000021A803B6E03F102033B667B6EDD
:106CB00003F101037B667A6E40F25F139A42DCDDDA
:106CC00046F2BB63A7F8583007F1040318464FF0AB
:106CD000560117F011FA03469BB2A7F85A304FF04D
:106CE0000A03BB6607F10403FB654FF000037B66F4
:106CF00016E0BA6EBB6E03F10103BB667B6E4FEA12
:106D00008303F96DCB181B681046194604F06EFF1B
:106D1000F866FB6E002B0AD17B6E03F101037B66E4
:106D20007B6E152BE5D900F009F8F86600E000BF8E
:106D3000FB6E184607F17007BD4680BD80B584B074
:106D400000AF4FF00003FB604FF02803C1F2004397
:106D5000BB60BB68B3F8542046F2BB639A4203D0D1
:106D60004FF0D203FB6010E0B8684FF0560117F007
:106D7000C3F90346FB80BB68B3F85630FA889A42E1
:106D800003D04FF0D303FB6000BFFB68184607F148
:106D90001007BD4680BD00BF80B586B000AF4FF084
:106DA00000033B614FF02803C1F20043BB60BB68A6
:106DB000B3F8542046F2BB639A4203D04FF0D2039B
:106DC0003B613AE0B8684FF0560117F095F9034679
:106DD000FB80BB68B3F85630FA889A4203D04FF074
:106DE000D3033B6129E0BB68FB6040F237137B6152
:106DF0001EE0FB68198849F20012C1F6FF727B6938
:106E000003F1F4034FEA4303D3180A469A80FB6860
:106E100003F10203FB607A6940F237139A4203D10F
:106E2000FB6803F10203FB607B6903F101037B61F3
:106E30007A6940F25F139A42DBD93B69184607F141
:106E40001807BD4680BD00BF80B584B000AF4FF0CD
:106E500000037B604FF000033B6040F23713BB60E0
:106E600049F20012C1F6FF72BB6803F1F4034FEA66
:106E70004303D3184FF000029A80BB6803F101036B
:106E8000BB604FF00003FB60A9E049F20012C1F6BD
:106E9000FF72BB6803F1F4034FEA4303D3184FF0CA
:106EA00000029A80BB6803F10103BB6049F2001243
:106EB000C1F6FF72BB6803F1F4034FEA4303D31832
:106EC0004FF000029A80BB6803F10103BB603B46B0
:106ED0001846FFF793FD0346194649F20012C1F622
:106EE000FF72BB6803F1F4034FEA4303D3180A4669
:106EF0009A80BB6803F10103BB603B461846FFF76D
:106F00008FFD0346194649F20012C1F6FF72BB68B5
:106F100003F1F4034FEA4303D3180A469A80BB688F
:106F200003F10103BB603B461846FFF767FD0346CC
:106F3000194649F20012C1F6FF72BB6803F1F4036F
:106F40004FEA4303D3180A469A80BB6803F1010352
:106F5000BB603B461846FFF763FD0346194649F2FE
:106F60000012C1F6FF72BB6803F1F4034FEA43035A
:106F7000D3180A469A80BB6803F10103BB603B4605
:106F80001846FFF73BFD0346194649F20012C1F6C9
:106F9000FF72BB6803F1F4034FEA4303D3180A46B8
:106FA0009A80BB6803F10103BB603B461846FFF7BC
:106FB00037FD0346194649F20012C1F6FF72BB685D
:106FC00003F1F4034FEA4303D3180A469A80BB68DF
:106FD00003F10103BB60FB6803F10103FB60FB6885
:106FE000042B7FF752AF7B68184607F11007BD46A8
:106FF00080BD00BF80B598B000AF4FF00003FB65C7
:1070000007F104033B654FF4B373BB6510E007F170
:107010000203B86D1946FFF701FA7A883B6D1A80B2
:107020003B6D03F102033B65BB6D03F10103BB65DF
:10703000BA6D40F285139A42E9DD4FF08003C1F248
:107040000043FB64BA8AFB6C1B8A9A4210D0FB6C2B
:107050001A8A4FF6FF739A420AD0FB6C1B8A4FF4D0
:10706000B7701946FFF7B2F94FF0D803FB6537E068
:1070700047F2CC73A7F8443007F1040318464FF0E9
:10708000420117F039F803469BB2A7F846304FF09B
:1070900020037B6507F10403BB644FF00003BB656D
:1070A00016E07A6D7B6D03F101037B65BB6D4FEAE2
:1070B0008303B96CCB181B681046194604F096FD83
:1070C000F865FB6D002B0AD1BB6D03F10103BB65B5
:1070D000BB6D102BE5D900F009F8F86500E000BFA2
:1070E000FB6D184607F16007BD4680BD80B584B0D2
:1070F00000AF4FF00003FB604FF08003C1F200438C
:10710000BB60BB68B3F8402047F2CC739A4203D00F
:107110004FF0D403FB6010E0B8684FF0420116F066
:10712000EBFF0346FB80BB68B3F84230FA889A4213
:1071300003D04FF0D503FB6000BFFB68184607F192
:107140001007BD4680BD00BF80B586B000AF4FF0D0
:1071500000033B614FF08003C1F20043BB60BB689A
:10716000B3F8402047F2CC739A4203D04FF0D403D7
:107170003B615DE0B8684FF0420116F0BDFF034689
:10718000FB80BB68B3F84230FA889A4203D04FF0D4
:10719000D5033B614CE0BB68FB604FF4B3737B618C
:1071A00015E0FB68198849F20012C1F6FF727B698D
:1071B00003F1F4034FEA4303D3180A469A80FB68AD
:1071C00003F10203FB607B6903F101037B617A69D0
:1071D00040F285139A42E4D949F20013C1F6FF73D5
:1071E000B3F8BA244FF6FF739A4207D149F200135D
:1071F000C1F6FF734FF48042A3F8BA2449F200139A
:10720000C1F6FF73B3F8C2244FF6FF739A4207D159
:1072100049F20013C1F6FF734FF40052A3F8C224E1
:10722000BB68DA8B49F20013C1F6FF73A3F808229A
:107230003B69184607F11807BD4680BD80B584B08C
:1072400000AF4FF00003FB604FF4B373BB6049F233
:107250000012C1F6FF72BB6803F1F4034FEA430367
:10726000D3184FF001029A80BB6803F10103BB60A1
:1072700049F20012C1F6FF72BB6803F1F4034FEA52
:107280004303D3184FF480429A80BB6803F1010393
:10729000BB6049F20012C1F6FF72BB6803F1F40350
:1072A0004FEA4303D3184FF000029A80BB6803F102
:1072B0000103BB6049F20012C1F6FF72BB6803F123
:1072C000F4034FEA4303D3184FF001029A80BB68DE
:1072D00003F10103BB6049F20012C1F6FF72BB6803
:1072E00003F1F4034FEA4303D3184FF000029A80EE
:1072F000BB6803F10103BB6049F20012C1F6FF72E3
:10730000BB6803F1F4034FEA4303D3184FF4005270
:107310009A80BB6803F10103BB6049F20012C1F619
:10732000FF72BB6803F1F4034FEA4303D3184FF035
:1073300000029A80BB6803F10103BB6049F20012AE
:10734000C1F6FF72BB6803F1F4034FEA4303D3189D
:107350004FF000029A80BB6803F10103BB6049F261
:107360000012C1F6FF72BB6803F1F4034FEA430356
:10737000D3184FF6FF729A80BB6803F10103BB601C
:1073800049F20012C1F6FF72BB6803F1F4034FEA41
:107390004303D3184FF0FE029A80BB6803F1010348
:1073A000BB604FF00003C4F2C0037B6007F104032D
:1073B0004FF4B8701946FFF777FBF860FB68002BB5
:1073C0006BD14FF082437B6007F104034FF4B97037
:1073D0001946FFF769FBF860BB6803F10403BB6063
:1073E00049F20012C1F6FF72BB6803F1F4034FEAE1
:1073F0004303D3184FF416729A80BB6803F101035C
:10740000BB6049F20013C1F6FF73B3F8081249F2EA
:107410000012C1F6FF72BB6803F1F4034FEA4303A5
:10742000D3180A469A80BB6803F10103BB6049F296
:107430000012C1F6FF72BB6803F1F4034FEA430385
:10744000D3184FF000029A80BB6803F10103BB60C0
:1074500049F20012C1F6FF72BB6803F1F4034FEA70
:107460004303D31844F620629A80BB6803F10103FA
:10747000BB6049F20012C1F6FF72BB6803F1F4036E
:107480004FEA4303D3184FF00F029A80BB6803F111
:107490000103BB6000F008F800E000BFFB6818467D
:1074A00007F11007BD4680BD80B400AF49F200135C
:1074B000C1F6FF73B3F8C834022B08D149F20013A8
:1074C000C1F6FF734FF40052A3F8BA2407E049F263
:1074D0000013C1F6FF734FF48042A3F8BA2449F2B7
:1074E0000013C1F6FF734FF40052A3F8C224BD4647
:1074F00080BC704780B582B000AF4FF000037B6066
:1075000049F20463C1F6FF734FF000021A6049F2BA
:107510000463C1F6FF734FF000025A6049F204633E
:10752000C1F6FF734FF001029A6049F20463C1F69D
:10753000FF734FF00002DA6049F20463C1F6FF7393
:107540004FF000021A6149F20463C1F6FF734FF075
:1075500000025A6149F20463C1F6FF734FF0000262
:107560009A6149F20463C1F6FF734FF00102DA61D8
:1075700049F20463C1F6FF734FF000021A6249F248
:107580000463C1F6FF734FF000025A6249F20463CC
:10759000C1F6FF734FF000029A6249F20463C1F62C
:1075A000FF734FF00002DA6249F20463C1F6FF7321
:1075B0004FF00102DA6149F20463C1F6FF734FF044
:1075C00000025A6349F20463C1F6FF734FF00002F0
:1075D0009A6349F20463C1F6FF734FF0130283F814
:1075E000482049F20463C1F6FF734FF0000283F8AC
:1075F000492000F045F800F0E5F800F0A3F900F0AC
:1076000075F800F049FA00F007FB00F0A5F800F06B
:10761000ADFB00F06BFC7B68184607F10807BD4620
:1076200080BD00BF80B483B000AF78607B684FF04E
:107630007C021A707B684FF004025A707B6841F23A
:1076400034225A807B6845F278629A807B684FF0DA
:107650005C029A717B684FF00002DA717B684FF42C
:10766000C022DA607B684FF01F021A727B684FF00D
:107670001F025A7207F10C07BD4680BC704700BF5D
:1076800080B584B000AF4FF4E043C4F204034FF47C
:10769000E042C4F2040202F5815202F11C021268B7
:1076A00042F0006203F5815303F11C031A603B466C
:1076B0001846FFF7B7FF3B464FF43040C4F20300D3
:1076C00019460BF0A1F84FF43040C4F203000AF061
:1076D000FFFF3B464FF43040C4F2030019460BF065
:1076E00093F807F11007BD4680BD00BF80B584B098
:1076F00000AF4FF4E043C4F204034FF4E042C4F29D
:10770000040202F5815202F11002126842F0006296
:1077100003F5815303F110031A603B461846FFF747
:1077200081FF3B464FF43040C4F20B0019460BF08A
:107730006BF84FF43040C4F20B000AF0C9FF3B462F
:107740004FF43040C4F20B0019460BF05DF807F11E
:107750001007BD4680BD00BF80B584B000AF4FF4B8
:10776000E043C4F204034FF4E042C4F2040202F521
:10777000815202F11C02126842F0805203F58153DB
:1077800003F11C031A603B461846FFF74BFF3B46CC
:107790004FF44040C4F2030019460BF035F84FF4A3
:1077A0004040C4F203000AF093FF3B464FF44040D0
:1077B000C4F2030019460BF027F807F11007BD4685
:1077C00080BD00BF80B500AF4FF4E043C4F20403B6
:1077D0004FF4E042C4F2040202F5815202F11C02AD
:1077E000126842F0040203F5815303F11C031A608E
:1077F0004FF4E043C4F204034FF4E042C4F2040245
:1078000002F58252126842F0020203F582531A60B6
:107810004FF40053C4F202034FF0A8021A704FF461
:107820000043C4F2000303F590524BF21003C4F27C
:10783000030313604FF40043C4F2000303F59053B5
:1078400003F104034FF000021A804FF40043C4F226
:10785000000303F5905303F10C034FF000021A608C
:107860004FF40043C4F2000303F5905303F11003F7
:107870004FF44142C2F200021A604FF40043C4F2D6
:10788000000303F5905303F114034FF002021A8032
:107890004FF40043C4F2000303F5905303F11803BF
:1078A0004FF000021A604FF40043C4F2000303F5E6
:1078B000905303F108034FF002021A604FF40043A3
:1078C000C4F2000303F5905303F11E034AF2F4726D
:1078D0001A804FF40043C4F2000303F5905303F100
:1078E00016034AF2F4721A804FF40043C4F2000304
:1078F00003F5905303F1060340F201121A804FF48E
:107900000043C4F2000303F5905303F11C034FF04E
:1079100000021A804FF40043C4F200034FF4004207
:10792000C4F20002D26842F48032DA604FF0000004
:1079300015F040FB4FF000004FF0000115F0B8FCCF
:1079400080BD00BF80B400AF4FF4E043C4F2040335
:107950004FF4E042C4F2040202F5815202F11C022B
:10796000126842F0040203F5815303F11C031A600C
:107970004FF4E043C4F204034FF4E042C4F20402C3
:1079800002F58252126842F0020203F582531A6035
:107990004FF40053C4F202034FF0B602DA704FF412
:1079A0000043C4F200033B4A03F593531A604FF4BB
:1079B0000043C4F2000303F5935303F104034FF0B3
:1079C00001021A804FF40043C4F2000303F59353FD
:1079D00003F10C036FF001021A604FF40043C4F28C
:1079E000000303F5935303F110034FF43042C4F244
:1079F00003021A604FF40043C4F2000303F59353EB
:107A000003F114034FF000021A804FF40043C4F254
:107A1000000303F5935303F118034FF000021A60BB
:107A20004FF40043C4F2000303F5935303F108033A
:107A30004FF001021A604FF40043C4F2000303F553
:107A4000935303F11E034FF002021A804FF40043D8
:107A5000C4F2000303F5935303F116034FF002023F
:107A60001A804FF40043C4F2000303F5935303F16B
:107A700006034FF000021A804FF40043C4F20003E3
:107A800003F5935303F11C034FF000021A80BD4627
:107A900080BC70474C96FF1F80B500AF4FF4E043A9
:107AA000C4F204034FF4E042C4F2040202F581522E
:107AB00002F11C02126842F0040203F5815303F143
:107AC0001C031A604FF4E043C4F204034FF4E04295
:107AD000C4F2040202F58252126842F0020203F577
:107AE00082531A604FF40053C4F202034FF0A9020C
:107AF0005A704FF40043C4F2000303F591524BF265
:107B00001003C4F20B0313604FF40043C4F20003EC
:107B100003F5915303F104034FF000021A804FF470
:107B20000043C4F2000303F5915303F10C034FF03B
:107B300000021A604FF40043C4F2000303F59153AE
:107B400003F110034CF6D002C2F200021A604FF4A7
:107B50000043C4F2000303F5915303F114034FF003
:107B600002021A804FF40043C4F2000303F591535C
:107B700003F118034FF000021A604FF40043C4F2FF
:107B8000000303F5915303F108034FF002021A605A
:107B90004FF40043C4F2000303F5915303F11E03B5
:107BA0004AF6F4121A804FF40043C4F2000303F5BE
:107BB000915303F116034AF6F4121A804FF400436E
:107BC000C4F2000303F5915303F1060340F20112DE
:107BD0001A804FF40043C4F2000303F5915303F1FC
:107BE0001C034FF000021A804FF40043C4F200035C
:107BF0004FF40042C4F20002D26842F40032DA606C
:107C00004FF0010015F0D6F94FF001004FF00001E0
:107C100015F04EFB80BD00BF80B400AF4FF4E043D1
:107C2000C4F204034FF4E042C4F2040202F58152AC
:107C300002F11C02126842F0040203F5815303F1C1
:107C40001C031A604FF4E043C4F204034FF4E04213
:107C5000C4F2040202F58252126842F0020203F5F5
:107C600082531A604FF40053C4F202034FF0B7027C
:107C70001A714FF40043C4F200033B4A03F59453D6
:107C80001A604FF40043C4F2000303F5945303F168
:107C900004034FF001021A804FF40043C4F20003C2
:107CA00003F5945303F10C036FF001021A604FF4D3
:107CB0000043C4F2000303F5945303F110034FF49F
:107CC0003042C4F20B021A604FF40043C4F20003C6
:107CD00003F5945303F114034FF000021A804FF49C
:107CE0000043C4F2000303F5945303F118034FF06B
:107CF00000021A604FF40043C4F2000303F59453EA
:107D000003F108034FF001021A604FF40043C4F27C
:107D1000000303F5945303F11E034FF002021A808F
:107D20004FF40043C4F2000303F5945303F1160328
:107D30004FF002021A804FF40043C4F2000303F52F
:107D4000945303F106034FF000021A804FF40043EE
:107D5000C4F2000303F5945303F11C034FF0000237
:107D60001A80BD4680BC70474C96FF1F80B500AF9F
:107D70004FF4E043C4F204034FF4E042C4F20402BF
:107D800002F5815202F11C02126842F0040203F56E
:107D9000815303F11C031A604FF4E043C4F204035F
:107DA0004FF4E042C4F2040202F58252126842F03B
:107DB000020203F582531A604FF40053C4F2020327
:107DC0004FF0AA029A704FF40043C4F2000303F587
:107DD00092524CF21003C4F2030313604FF40043B9
:107DE000C4F2000303F5925303F104034FF00002C1
:107DF0001A804FF40043C4F2000303F5925303F1D9
:107E00000C034FF000021A604FF40043C4F2000369
:107E100003F5925303F110034DF2A002C2F20002E7
:107E20001A604FF40043C4F2000303F5925303F1C8
:107E300014034FF002021A804FF40043C4F200030F
:107E400003F5925303F118034FF000021A604FF448
:107E50000043C4F2000303F5925303F108034FF00B
:107E600002021A604FF40043C4F2000303F5925378
:107E700003F11E034AF6F4321A804FF40043C4F2B1
:107E8000000303F5925303F116034AF6F4321A8005
:107E90004FF40043C4F2000303F5925303F10603C9
:107EA00040F201121A804FF40043C4F2000303F5BC
:107EB000925303F11C034FF000021A804FF4004369
:107EC000C4F200034FF40042C4F20002D26842F44C
:107ED0008022DA604FF0020015F06CF84FF00200DB
:107EE0004FF0000115F0E4F980BD00BF80B400AF91
:107EF0004FF4E043C4F204034FF4E042C4F204023E
:107F000002F5815202F11C02126842F0040203F5EC
:107F1000815303F11C031A604FF4E043C4F20403DD
:107F20004FF4E042C4F2040202F58252126842F0B9
:107F3000020203F582531A604FF40053C4F20203A5
:107F40004FF0B8025A714FF40043C4F200033B4AA9
:107F500003F595531A604FF40043C4F2000303F590
:107F6000955303F104034FF001021A804FF40043CC
:107F7000C4F2000303F5955303F10C036FF0010203
:107F80001A604FF40043C4F2000303F5955303F164
:107F900010034FF44042C4F203021A604FF400434E
:107FA000C4F2000303F5955303F114034FF00002EC
:107FB0001A804FF40043C4F2000303F5955303F114
:107FC00018034FF000021A604FF40043C4F200039C
:107FD00003F5955303F108034FF001021A604FF4C3
:107FE0000043C4F2000303F5955303F11E034FF061
:107FF00002021A804FF40043C4F2000303F59553C4
:1080000003F116034FF002021A804FF40043C4F24A
:10801000000303F5955303F106034FF000021A80A5
:108020004FF40043C4F2000303F5955303F11C031E
:108030004FF000021A80BD4680BC70474C96FF1F6F
:1080400080B400AF49F20463C1F6FF731B6803F10B
:1080500001031A4649F20463C1F6FF731A6049F23C
:108060000463C1F6FF735B689A4253D349F2046319
:10807000C1F6FF73DB6803F1010249F20463C1F644
:10808000FF73DA6049F20463C1F6FF734FF0000238
:108090001A6049F20463C1F6FF739B68022B14D186
:1080A00049F20463C1F6FF734FF001029A604FF486
:1080B0000043C4F2000303F5905303F110034FF49F
:1080C0004142C2F200021A6013E049F20463C1F6B1
:1080D000FF734FF002029A604FF40043C4F20003B2
:1080E00003F5905303F110034DF67002C2F2000243
:1080F0001A604FF00003C4F204034FF00102DA608B
:108100004FF00003C4F20403DA6849F20463C1F6D5
:10811000FF731A614FF40043C4F200034FF01002E2
:10812000DA77BD4680BC704780B400AF49F2046383
:10813000C1F6FF735B6903F101031A4649F2046358
:10814000C1F6FF735A6149F20463C1F6FF739B697C
:108150009A4253D349F20463C1F6FF731B6A03F1D9
:10816000010249F20463C1F6FF731A6249F2046323
:10817000C1F6FF734FF000025A6149F20463C1F681
:10818000FF73DB69022B14D149F20463C1F6FF735C
:108190004FF00102DA614FF40043C4F2000303F52B
:1081A000915303F110034CF6D002C2F200021A60A0
:1081B00013E049F20463C1F6FF734FF00202DA6183
:1081C0004FF40043C4F2000303F5915303F110038D
:1081D0004EF24002C2F200021A604FF00003C4F2F5
:1081E00004034FF00102DA604FF00003C4F204030D
:1081F000DA6849F20463C1F6FF735A624FF4004330
:10820000C4F200034FF01102DA77BD4680BC70471C
:1082100080B400AF49F20463C1F6FF739B6A03F1B7
:1082200001031A4649F20463C1F6FF739A6249F2E8
:108230000463C1F6FF73DB6A9A4253D349F20463C5
:10824000C1F6FF735B6B03F1010249F20463C1F6EF
:10825000FF735A6349F20463C1F6FF734FF00002E3
:108260009A6249F20463C1F6FF731B6B022B14D1AF
:1082700049F20463C1F6FF734FF001021A634FF431
:108280000043C4F2000303F5925303F110034DF2CF
:10829000A002C2F200021A6013E049F20463C1F6C0
:1082A000FF734FF002021A634FF40043C4F200035D
:1082B00003F5925303F110034EF61002C2F20002CE
:1082C0001A604FF00003C4F204034FF00102DA60B9
:1082D0004FF00003C4F20403DA6849F20463C1F604
:1082E000FF739A634FF40043C4F200034FF012028D
:1082F000DA77BD4680BC704780B483B000AF4FF4DE
:108300004143C2F200033B604FF000037B600BE08F
:108310007B684FEA43033A68D3184FF400421A804F
:108320007B6803F101037B607A6841F26F739A42C4
:10833000EED94FF0000249F20463C1F6FF739A626E
:1083400049F20463C1F6FF735A6149F20463C1F64E
:10835000FF731A604FF0020249F20463C1F6FF7323
:10836000DA6249F20463C1F6FF739A6149F2046369
:10837000C1F6FF735A604FF0010249F20463C1F67F
:10838000FF731A6349F20463C1F6FF73DA6149F2BD
:108390000463C1F6FF739A604FF40043C4F2000314
:1083A00003F5905303F110034FF44142C2F200026F
:1083B0001A604FF40043C4F2000303F5915303F134
:1083C00010034CF6D002C2F200021A604FF40043D0
:1083D000C4F2000303F5925303F110034DF2A0021F
:1083E000C2F200021A604FF40043C4F2000303F526
:1083F000905303F11C0341F222321A804FF40043E0
:10840000C4F2000303F5915303F11C0341F222422D
:108410001A804FF40043C4F2000303F5925303F1B2
:108420001C0341F222521A804FF43043C4F203037A
:108430004FF43042C4F20B024FF44041C4F2030146
:1084400049F20460C1F6FF7090F84900C0B20860BC
:1084500001461160196007F10C07BD4680BC7047EA
:1084600080B485B000AF78607B681B68FB607B6878
:108470001A68FB689A42F7D1FB68184607F114079F
:10848000BD4680BC704700BF80B5ACB000AFF8609F
:10849000B9607A603B604FF00003C7F8A0304FF03E
:1084A0000003C7F898304FF01903C7F89430BA6842
:1084B0004CF6CD43CCF6CC43A3FB02034FEAD303E7
:1084C000C7F88430D7F884304FF4FA7202FB03F314
:1084D000C7F880303B68BB62BB6AFB62FA6AD7F8B8
:1084E00080304FEA4303D318FB62FB6A3B633A6B6D
:1084F000D7F880304FEA4303D3183B633B6B7B6371
:108500007A6BD7F880304FEA4303D3187B637B6BD9
:10851000BB63BA6BD7F880304FEA4303D318BB6311
:10852000BB6BFB63FA6BD7F880304FEA4303D31879
:10853000FB63FB68A3F10403032B01F21C8101A17F
:1085400051F823F09196010055850100F58A01004C
:10855000A79001004FF00003C7F8AC30BAE24FF02B
:108560000003C7F890304FF00003C7F8A830D04898
:10857000FFF776FF0246D7F8A8304FEA830307F1EA
:10858000B000C31843F8402CD7F8A83003F101031A
:10859000C7F8A830C748FFF763FF0246D7F8A830EE
:1085A0004FEA830307F1B001CB1843F8402CD7F80A
:1085B000A83003F10103C7F8A830BF48FFF750FF08
:1085C0000246D7F8A8304FEA830307F1B000C3187A
:1085D00043F8402C4FF00003C7F8A830B748FFF726
:1085E0003FFF0246D7F8A8304FEA830307F1B001F6
:1085F000CB1843F8582CD7F8A83003F10103C7F87B
:10860000A830AF48FFF72CFF0246D7F8A8304FEA52
:10861000830307F1B000C31843F8582CD7F8A830EB
:1086200003F10103C7F8A830A648FFF719FF024677
:10863000D7F8A8304FEA830307F1B001CB1843F80D
:10864000582CBB6D022B05D14FF44143C2F20003FD
:108650007B6404E04DF67003C2F200037B643B6E62
:10866000022B05D14DF2A003C2F200033B6404E0EB
:108670004EF61003C2F200033B64FB6D022B05D1E2
:108680004CF6D003C2F20003BB6404E04EF2400398
:10869000C2F20003BB644FF00003C7F8A83017E034
:1086A000D7F8A8304FEA830307F1B002D31853F884
:1086B000882CD7F8A8304FEA830307F1B000C3181D
:1086C00043F8A02CD7F8A83003F10103C7F8A8306D
:1086D000D7F8A830022BE3D94FF00003C7F8A43035
:1086E00046E04FF00003C7F8A83037E007F110026A
:1086F000D7F8A8304FEA8303D118D7F8A8304FEA4B
:10870000830307F1B002D31853F8A02CD7F8A83090
:108710004FEA830307F1B000C31853F8703C1B887D
:10872000138002F102030B60D7F8A8304FEA8303ED
:1087300007F1B001CB1853F8703C03F10402D7F8ED
:10874000A8304FEA830307F1B000C31843F8702C38
:10875000D7F8A83003F10103C7F8A830D7F8A8303C
:10876000022BC3D9D7F8A43003F10103C7F8A43012
:10877000D7F8A42040F2F3139A42B2D94FF0010384
:10878000C7F89C304FF00003C7F8A8301FE0D7F8B7
:10879000A8304FEA830307F1B001CB1853F8402CFF
:1087A000D7F8A83003F101034FEA830307F1B000C3
:1087B000C31853F8403C9A4203D04FF00003C7F867
:1087C0009C30D7F8A83003F10103C7F8A830D7F8D8
:1087D000A830012BDBD93648FFF742FE02463B6F3B
:1087E0009A4203D04FF00003C7F89C303148FFF79E
:1087F00037FE02467B6F9A4203D04FF00003C7F862
:108800009C302D48FFF72CFE0246BB6F9A4203D0E6
:108810004FF00003C7F89C30D7F89C30002B2DD1C7
:10882000D7F890300A2BD4BF00230123DBB2D7F84E
:10883000902002F10102C7F89020002B19D049F2D4
:108840000463C1F6FF73DB6B03F1010249F20463B9
:10885000C1F6FF73DA634FF00103C7F898304FF0A9
:10886000FF03C7F8A03072B6FEF744FEFFF744FDE1
:1088700062B64FF001000DF0B1F903E04FF00003D4
:10888000C7F89030D7F89830012B05D0D7F89C3036
:10889000002B3FF468AE00E000BFD7F89830012B02
:1088A00000F021814FF00003C7F8A83064E000BF5A
:1088B0001096FF1F2496FF1F3896FF1F0C96FF1F70
:1088C0002096FF1F3496FF1FD7F8AC30002B29D01D
:1088D000D7F8A8304FEA830307F1B001CB1853F85B
:1088E0004C3C03F10102D7F8A8304FEA830307F1AB
:1088F000B000C31853F8403C9A4213D049F20463C5
:10890000C1F6FF731B6C03F1010249F20463C1F667
:10891000FF731A644FF00103C7F898304FF0FD035E
:10892000C7F8A030D7F8A8304FEA830307F1B001A9
:10893000CB1853F8402CD7F8A8304FEA830307F13F
:10894000B000C31843F84C2CD7F8A8304FEA830383
:1089500007F1B001CB1853F8A02CD7F8A8304FEA94
:10896000830307F1B000C31843F8882CD7F8A83068
:1089700003F10103C7F8A830D7F8A830022BA3D918
:10898000D7F89830012B00F0B0804FF01903C7F8EA
:1089900094304FF00003C7F8A830C248FFF760FDDD
:1089A0000246D7F8A8304FEA830307F1B001CB188D
:1089B00043F8402CD7F8A83003F10103C7F8A830DA
:1089C000B948FFF74DFD0246D7F8A8304FEA8303B8
:1089D00007F1B000C31843F8402CD7F8A83003F1D2
:1089E0000103C7F8A830B148FFF73AFD0246D7F8AF
:1089F000A8304FEA830307F1B001CB1843F8402CAD
:108A00004FF00103C7F89C304FF00003C7F8A830BF
:108A10001DE0D7F8A8304FEA830307F1B002D3185E
:108A200053F8402CD7F8A8304FEA830307F1B00081
:108A3000C31853F84C3C9A4203D14FF00003C7F8D7
:108A40009C30D7F8A83003F10103C7F8A830D7F855
:108A5000A830022BDDD9D7F89C30002B03D14FF082
:108A600001000DF0BBF8D7F89430002B1DD0D7F8DB
:108A7000943003F1FF33C7F89430D7F89430002BCB
:108A800013D149F20463C1F6FF735B6C03F1010279
:108A900049F20463C1F6FF735A644FF00103C7F84B
:108AA00098304FF0FE03C7F8A030D7F89830012B6C
:108AB00005D0D7F89C30002B3FF46BAF00E000BF2F
:108AC000D7F89830012B12D0D7F8AC3003F101035E
:108AD000C7F8AC30D7F8AC20D7F884309A42FFF40E
:108AE0003EAD00F04DBE00BF02E000BF00E000BFA1
:108AF00000F046BE4FF00003C7F8AC30C5E24FF0BF
:108B00000003C7F890304FF00003C7F8A83065485D
:108B1000FFF7A6FC0246D7F8A8304FEA830307F117
:108B2000B001CB1843F8402CD7F8A83003F101036B
:108B3000C7F8A8305C48FFF793FC0246D7F8A83086
:108B40004FEA830307F1B000C31843F8402CD7F86D
:108B5000A83003F10103C7F8A8305448FFF780FCA0
:108B60000246D7F8A8304FEA830307F1B001CB18CB
:108B700043F8402C4FF00003C7F8A8304C48FFF7EB
:108B80006FFC0246D7F8A8304FEA830307F1B00024
:108B9000C31843F8582CD7F8A83003F10103C7F8DD
:108BA000A8304448FFF75CFC0246D7F8A8304FEAEB
:108BB000830307F1B001CB1843F8582CD7F8A8303D
:108BC00003F10103C7F8A8303B48FFF749FC024610
:108BD000D7F8A8304FEA830307F1B000C31843F871
:108BE000582CFB6D022B05D14CF6D003C2F20003CA
:108BF0007B6404E04EF24003C2F200037B647B6CB2
:108C000003F102037B64BB6D022B05D14FF441439A
:108C1000C2F200033B6404E04DF67003C2F20003AD
:108C20003B643B6C03F102033B643B6E022B05D1BA
:108C30004DF2A003C2F20003BB6404E04EF6100341
:108C4000C2F20003BB64BB6C03F10203BB644FF0D0
:108C50000003C7F8A83017E0D7F8A8304FEA83031D
:108C600007F1B001CB1853F8882CD7F8A8304FEA99
:108C7000830307F1B000C31843F8A02CD7F8A8303D
:108C800003F10103C7F8A830D7F8A830022BE3D9C5
:108C90004FF00003C7F8A43052E04FF00003C7F8CC
:108CA000A83043E01096FF1F2496FF1F3896FF1F41
:108CB0000C96FF1F2096FF1F3496FF1F07F110022E
:108CC000D7F8A8304FEA8303D118D7F8A8304FEA75
:108CD000830307F1B002D31853F8A02CD7F8A830BB
:108CE0004FEA830307F1B000C31853F8703C1B88A8
:108CF000138002F102030B60D7F8A8304FEA830318
:108D000007F1B001CB1853F8703C03F10402D7F817
:108D1000A8304FEA830307F1B000C31843F8702C62
:108D2000D7F8A83003F10103C7F8A830D7F8A83066
:108D3000022BC3D9D7F8A43003F10103C7F8A4303C
:108D4000D7F8A42040F2F3139A42A6D94FF00103BA
:108D5000C7F89C304FF00003C7F8A8301FE0D7F8E1
:108D6000A8304FEA830307F1B001CB1853F8402C29
:108D7000D7F8A83003F101034FEA830307F1B000ED
:108D8000C31853F8403C9A4203D04FF00003C7F891
:108D90009C30D7F8A83003F10103C7F8A830D7F802
:108DA000A830012BDBD9C248FFF75AFB02463B6FC4
:108DB0009A4203D04FF00003C7F89C30BD48FFF73C
:108DC0004FFB02467B6F9A4203D04FF00003C7F877
:108DD0009C30B948FFF744FB0246BB6F9A4203D070
:108DE0004FF00003C7F89C30D7F89C30002B2DD1F2
:108DF000D7F890300A2BD4BF00230123DBB2D7F879
:108E0000902002F10102C7F89020002B19D049F2FE
:108E10000463C1F6FF73DB6B03F1010249F20463E3
:108E2000C1F6FF73DA634FF00103C7F898304FF0D3
:108E3000FF03C7F8A03072B6FEF75CFBFFF75CFAE1
:108E400062B64FF001000CF0C9FE03E04FF00003E2
:108E5000C7F89030D7F89830012B05D0D7F89C3060
:108E6000002B3FF450AE00E000BFD7F89830012B44
:108E700000F013814FF00003C7F8A83057E0D7F88F
:108E8000AC30002B29D0D7F8A8304FEA830307F184
:108E9000B001CB1853F84C3C03F10102D7F8A830CD
:108EA0004FEA830307F1B000C31853F8403C9A42DD
:108EB00013D049F20463C1F6FF731B6C03F1010286
:108EC00049F20463C1F6FF731A644FF00103C7F857
:108ED00098304FF0FD03C7F8A030D7F8A8304FEA1C
:108EE000830307F1B001CB1853F8402CD7F8A83012
:108EF0004FEA830307F1B000C31843F84C2CD7F8AE
:108F0000A8304FEA830307F1B001CB1853F8A02C27
:108F1000D7F8A8304FEA830307F1B000C31843F82D
:108F2000882CD7F8A83003F10103C7F8A830D7F888
:108F3000A830022BA3D9D7F89830012B00F0AF80CE
:108F40004FF01903C7F894304FF00003C7F8A8306A
:108F50005748FFF785FA0246D7F8A8304FEA83034F
:108F600007F1B001CB1843F8402CD7F8A83003F133
:108F70000103C7F8A8304F48FFF772FA0246D7F846
:108F8000A8304FEA830307F1B000C31843F8402C20
:108F9000D7F8A83003F10103C7F8A8304648FFF717
:108FA0005FFA0246D7F8A8304FEA830307F1B00111
:108FB000CB1843F8402C4FF00103C7F89C304FF01A
:108FC0000003C7F8A8301DE0D7F8A8304FEA8303A4
:108FD00007F1B002D31853F8402CD7F8A8304FEA65
:108FE000830307F1B000C31853F84C3C9A4203D1F5
:108FF0004FF00003C7F89C30D7F8A83003F1010305
:10900000C7F8A830D7F8A830022BDDD9D7F89C30A4
:10901000002B03D14FF001000CF0E0FDD7F89430A5
:10902000002B1DD0D7F8943003F1FF33C7F89430EC
:10903000D7F89430002B13D149F20463C1F6FF73C3
:109040005B6C03F1010249F20463C1F6FF735A64D9
:109050004FF00103C7F898304FF0FE03C7F8A03077
:10906000D7F89830012B05D0D7F89C30002B3FF46F
:109070006BAF00E000BFD7F89830012B11D0D7F8C4
:10908000AC3003F10103C7F8AC30D7F8AC20D7F807
:1090900084309A42FFF433AD72E300BF02E000BFB8
:1090A00000E000BF6CE34FF00003C7F8AC30E1E232
:1090B0001096FF1F2496FF1F3896FF1F4FF00003E6
:1090C000C7F890304FF00003C7F8A830D548FFF735
:1090D000C7F90246D7F8A8304FEA830307F1B00179
:1090E000CB1843F8402CD7F8A83003F10103C7F898
:1090F000A830CD48FFF7B4F90246D7F8A8304FEAB8
:10910000830307F1B000C31843F8402CD7F8A83008
:1091100003F10103C7F8A830C448FFF7A1F90246DC
:10912000D7F8A8304FEA830307F1B001CB1843F812
:10913000402C4FF00003C7F8A830BD48FFF790F966
:109140000246D7F8A8304FEA830307F1B000C318EE
:1091500043F8582CD7F8A83003F10103C7F8A8301A
:10916000B448FFF77DF90246D7F8A8304FEA8303E9
:1091700007F1B001CB1843F8582CD7F8A83003F109
:109180000103C7F8A830AC48FFF76AF90246D7F8E0
:10919000A8304FEA830307F1B000C31843F8582CF6
:1091A000FB6D022B05D14CF6D003C2F20003BB6469
:1091B00004E04EF24003C2F20003BB64BB6C03F157
:1091C00002033B65BB6D022B05D14FF44143C2F254
:1091D00000037B6404E04DF67003C2F200037B647D
:1091E0007B6C03F10203FB643B6E022B05D14DF255
:1091F000A003C2F200033B6404E04EF61003C2F287
:1092000000033B643B6C03F102037B654FF00003FA
:10921000C7F8A83017E0D7F8A8304FEA830307F162
:10922000B001CB1853F8882CD7F8A8304FEA830345
:1092300007F1B000C31843F8A02CD7F8A83003F109
:109240000103C7F8A830D7F8A830052BE3D94FF0B1
:109250000003C7F8A43046E04FF00003C7F8A83079
:1092600037E007F11002D7F8A8304FEA8303D1188E
:10927000D7F8A8304FEA830307F1B002D31853F8A8
:10928000A02CD7F8A8304FEA830307F1B000C31829
:1092900053F8703C1B88138002F102030B60D7F86F
:1092A000A8304FEA830307F1B001CB1853F8703CA4
:1092B00003F10402D7F8A8304FEA830307F1B000A6
:1092C000C31843F8702CD7F8A83003F10103C7F88E
:1092D000A830D7F8A830052BC3D9D7F8A43003F1AC
:1092E0000103C7F8A430D7F8A42040F2F3139A4240
:1092F000B2D94FF00103C7F89C304FF00003C7F814
:10930000A8301FE0D7F8A8304FEA830307F1B00177
:10931000CB1853F8402CD7F8A83003F101034FEADB
:10932000830307F1B000C31853F8403C9A4203D0BE
:109330004FF00003C7F89C30D7F8A83003F10103C1
:10934000C7F8A830D7F8A830012BDBD93548FFF78C
:1093500087F802463B6F9A4203D04FF00003C7F8EC
:109360009C303148FFF77CF802467B6F9A4203D06D
:109370004FF00003C7F89C302C48FFF771F8024605
:10938000BB6F9A4203D04FF00003C7F89C30D7F868
:109390009C30002B2DD149F20463C1F6FF73DB6BC7
:1093A00003F1010249F20463C1F6FF73DA63D7F8EF
:1093B00090300A2BD4BF00230123DBB2D7F89020D2
:1093C00002F10102C7F89020002B0DD04FF00103ED
:1093D000C7F898304FF0FF03C7F8A03072B6FEF719
:1093E00089F8FEF789FF62B64FF001000CF0F6FB3A
:1093F00003E04FF00003C7F89030D7F89830012B06
:1094000005D0D7F89C30002B3FF45CAE00E000BFE5
:10941000D7F89830012B00F035814FF00003C7F8E2
:10942000A83079E01096FF1F2496FF1F3896FF1F83
:109430000C96FF1F2096FF1F3496FF1FD7F8AC3005
:10944000002B29D0D7F8A8304FEA830307F1B001E9
:10945000CB1853F84C3C03F10102D7F8A8304FEA7F
:10946000830307F1B000C31853F8403C9A4213D06D
:1094700049F20463C1F6FF731B6C03F1010249F268
:109480000463C1F6FF731A644FF00103C7F8983004
:109490004FF0FD03C7F8A030D7F8A8304FEA830398
:1094A00007F1B001CB1853F8402CD7F8A8304FEA99
:1094B000830307F1B000C31843F84C2CD7F8A83049
:1094C0004FEA830307F1B001CB1853F8A02CD7F86B
:1094D000A8304FEA830307F1B000C31843F8882C83
:1094E000D7F8A83003F10301D7F8A83003F103033C
:1094F0004FEA830307F1B002D31853F8A02C4FEAC8
:10950000810307F1B000C31843F8882CD7F8A830BE
:1095100003F10103C7F8A830D7F8A830022B8DD982
:10952000D7F89830012B00F0AF804FF01903C7F83F
:1095300094304FF00003C7F8A8309548FEF790FF2D
:109540000246D7F8A8304FEA830307F1B001CB18E1
:1095500043F8402CD7F8A83003F10103C7F8A8302E
:109560008C48FEF77DFF0246D7F8A8304FEA830308
:1095700007F1B000C31843F8402CD7F8A83003F126
:109580000103C7F8A8308448FEF76AFF0246D7F8FF
:10959000A8304FEA830307F1B001CB1843F8402C01
:1095A0004FF00103C7F89C304FF00003C7F8A83014
:1095B0001DE0D7F8A8304FEA830307F1B002D318B3
:1095C00053F8402CD7F8A8304FEA830307F1B000D6
:1095D000C31853F84C3C9A4203D14FF00003C7F82C
:1095E0009C30D7F8A83003F10103C7F8A830D7F8AA
:1095F000A830022BDDD9D7F89C30002B03D14FF0D7
:1096000001000CF0EBFAD7F89430002B1DD0D7F8FE
:10961000943003F1FF33C7F89430D7F89430002B1F
:1096200013D149F20463C1F6FF735B6C03F10102CD
:1096300049F20463C1F6FF735A644FF00103C7F89F
:1096400098304FF0FE03C7F8A030D7F89830012BC0
:1096500005D0D7F89C30002B3FF46BAF00E000BF83
:10966000D7F89830012B11D0D7F8AC3003F10103B3
:10967000C7F8AC30D7F8AC20D7F884309A42FFF462
:109680001DAD7DE000BF02E000BF00E000BF77E05D
:10969000BA684CF6CD43CCF6CC43A3FB02134FEA99
:1096A000D3034FF4FA7202FB03F3FB674FF000039E
:1096B000C7F888304FF00003C7F88C3055E0D7F872
:1096C000883003F04003002B0CBF00230123DBB2E2
:1096D000D7F8882002F10102C7F88820002B1FD09C
:1096E000FB6F4FEA4302D7F88C30D3184FEA43039D
:1096F0003A68D118D7F88C20FB6FD3184FEA430390
:109700003A68D318D7F88C204FEA4202386882189A
:109710004CF25030108012881A801B880B801EE09B
:10972000FB6F4FEA4302D7F88C30D3184FEA43035C
:109730003A68D118D7F88C20FB6FD3184FEA43034F
:109740003A68D318D7F88C204FEA4202386882185A
:1097500042F21070108012881A801B880B80D7F894
:109760008C3003F10103C7F88C30D7F88C20FB6FE5
:109770009A42A4D304E04FF0FB03C7F8A03000BF27
:10978000D7F8A030184607F1B007BD4680BD00BF2E
:109790001096FF1F2496FF1F3896FF1F80B58EB0CE
:1097A00000AF78604FF000037B634FF000033B6332
:1097B0004FF00003FB6220E0FB6A4FF47A7202FB79
:1097C00003F24DF26073C7F21213D3181A46FB6A04
:1097D0004FEA830307F13801CB1843F8202CFB6ACA
:1097E0004FEA830307F13802D3184FF0000243F821
:1097F0002C2CFB6A03F10103FB62FB6A022BDBDD0D
:10980000BB6978684FF00A014FF00002FEF73CFE9A
:1098100078637B6B002B40F0E7804FF00003FB6226
:109820002EE04FF00003BB6221E0FB6A4FEA8303A6
:1098300007F13801CB1853F82C2CFB6A4FEA83034D
:1098400007F13801CB1853F8201CBB6A4FEA4303D9
:10985000CB181B88D218FB6A4FEA830307F1380143
:10986000CB1843F82C2CBB6A03F10103BB62BA6A24
:1098700040F2F3139A42D8D9FB6A03F10103FB6269
:10988000FB6A022BCDDD07F10A034FF026001946D3
:10989000FCF7C4FD78637B6B002B40F0A78007F1D9
:1098A00008034FF4BE701946FCF7B8FD78637B6B74
:1098B000002B40F09D804FF000037B627B68062BFD
:1098C00002D14FF003037B6249F25063C1F6FF738C
:1098D0009B6E1A467B689A4202D14FF001033B63AC
:1098E0004FF00003FB6264E0FB6A4FEA830307F179
:1098F0003802D31853F82C2C44F6D353C1F2620328
:10990000A3FB02134FEA5312FB6A4FEA830307F1EA
:109910003801CB1843F82C2CFB6A4FEA830307F17C
:109920003802D31853F82C2C40F28F239A420BD9CB
:10993000FB6A4FEA830307F13801CB1853F82C2C4C
:109940004FF66F539A420DD93B6B002B0AD13B89DE
:109950001A46F96A7B6ACB1842FA03F303F0010353
:10996000002B11D1FA6A7B6AD3184FF0010202FA78
:1099700003F39BB26FEA03039AB27B899BB2134055
:109980009BB29BB27B8110E04FF0FC037B63FA6AD1
:109990007B6AD3184FF0010202FA03F39AB27B8973
:1099A0009BB213439BB29BB27B81FB6A03F1010321
:1099B000FB62FB6A022B97DD7B8903F03F039BB2BE
:1099C000002B07D07B896FEA43436FEA53439BB276
:1099D0007B8102E04FF000037B817B894FF0260002
:1099E0001946FCF7F3FC04E000BF02E000BF00E012
:1099F00000BF7B6B184607F13807BD4680BD00BF2E
:109A000080B582B000AF4FF000037B604FF410438D
:109A1000C4F204034FF480729A614FF41043C4F20D
:109A200004034FF48072DA614FF41043C4F204036C
:109A30004FF480721A624FF41043C4F204034FF4DF
:109A400080725A624FF41043C4F204034FF48072E0
:109A50009A624FF41043C4F204034FF48072DA6246
:109A60004FF41043C4F204034FF480721A634FF4AE
:109A70001043C4F204034FF480725A634FF410434E
:109A8000C4F204034FF480729A634FF41043C4F29B
:109A900004034FF48072DA634FF41043C4F20403FA
:109AA0004FF480721A644FF41043C4F204034FF46D
:109AB00080725A644FF41043C4F204034FF480726E
:109AC000DA644FF41043C4F204034FF480721A6650
:109AD0004FF41043C4F204034FF480725A664FF4FB
:109AE0001043C4F204034FF480729A664FF410439B
:109AF000C4F204034FF48072DA664FF41043C4F2E8
:109B000004034FF480721A674FF41043C4F2040345
:109B10004FF480725A674FF47043C4F20F034FF64C
:109B2000C072CFF6FB729A604FF47042C4F20F021B
:109B30004FF47043C4F20F0359694FF6C073CFF668
:109B4000FB730B4353614FF42043C4F204034FF4FF
:109B500080721A604FF42043C4F204034FF4807201
:109B60005A604FF42043C4F204034FF480729A60A9
:109B70004FF42043C4F204034FF48072DA604FF4D0
:109B80002043C4F204034FF480721A614FF420435F
:109B9000C4F204034FF480725A614FF42043C4F2BC
:109BA00004034FF480729A614FF42043C4F204031B
:109BB0004FF48072DA614FF42043C4F204034FF48F
:109BC00080721A624FF42043C4F204034FF480728F
:109BD0005A624FF42043C4F204034FF480729A6235
:109BE0004FF42043C4F204034FF48072DA624FF45E
:109BF0002043C4F204034FF480721A644FF42043EC
:109C0000C4F204034FF480725A644FF42043C4F248
:109C100004034FF480729A644FF42043C4F20403A7
:109C20004FF48072DA644FF42043C4F204034FF41B
:109C300080721A654FF42043C4F204034FF480721B
:109C40005A654FF42043C4F204034FF480729A65BE
:109C50004FF42043C4F204034FF48072DA654FF2EC
:109C60004003C4F20F034FF0FF329A604FF24003FB
:109C7000C4F20F035B694FF24003C4F20F034FF0CD
:109C8000FF325A614FF43043C4F204034FF4807240
:109C90001A604FF43043C4F204034FF480725A60E8
:109CA0004FF43043C4F204034FF480729A604FF4CF
:109CB0003043C4F204034FF48072DA604FF430434F
:109CC000C4F204034FF480721A614FF43043C4F2BB
:109CD00004034FF480725A614FF43043C4F204031A
:109CE0004FF480729A614FF43043C4F204034FF48E
:109CF0008072DA614FF43043C4F204034FF480728F
:109D00001A624FF43043C4F204034FF480725A6273
:109D10004FF43043C4F204034FF480729A624FF45C
:109D20003043C4F204034FF48072DA624FF43043DC
:109D3000C4F204034FF480721A634FF43043C4F248
:109D400004034FF480725A634FF43043C4F20403A7
:109D50004FF480729A634FF43043C4F204034FF41B
:109D60008072DA634FF43043C4F204034FF480721C
:109D70001A644FF43043C4F204034FF480725A64FF
:109D80004FF43043C4F204034FF480729A644FF4EA
:109D90003043C4F204034FF48072DA644FF280035C
:109DA000C4F20F034FF0FF329A604FF28003C4F207
:109DB0000F035B694FF28003C4F20F034FF0FF32D1
:109DC0005A614FF44043C4F204034FF480721A60A6
:109DD0004FF44043C4F204034FF480725A604FF4CE
:109DE0004043C4F204034FF480729A604FF440433E
:109DF000C4F204034FF48072DA604FF44043C4F2BB
:109E000004034FF480721A614FF44043C4F2040318
:109E10004FF480725A614FF44043C4F204034FF48C
:109E200080729A614FF44043C4F204034FF480728D
:109E3000DA614FF44043C4F204034FF480721A62B3
:109E40004FF44043C4F204034FF480725A624FF45B
:109E50004043C4F204034FF480729A624FF44043CB
:109E6000C4F204034FF48072DA624FF44043C4F248
:109E700004034FF480721A634FF44043C4F20403A6
:109E80004FF480725A634FF44043C4F204034FF41A
:109E900080729A634FF44043C4F204034FF480721B
:109EA000DA634FF2C003C4F20F034FF0FF329A603F
:109EB0004FF2C003C4F20F035B694FF2C003C4F258
:109EC0000F034FF0FF325A614FF45043C4F20403C2
:109ED0004FF480721A604FF45043C4F204034FF4FD
:109EE00080725A604FF45043C4F204034FF48072FE
:109EF0009A604FF45043C4F204034FF48072DA6066
:109F00004FF45043C4F204034FF480721A614FF4CB
:109F10005043C4F204034FF480725A614FF450432B
:109F2000C4F204034FF480729A614FF45043C4F2B8
:109F300004034FF48072DA614FF45043C4F2040317
:109F40004FF480721A624FF45043C4F204034FF48A
:109F500080725A624FF45043C4F204034FF480728B
:109F60009A624FF45043C4F204034FF48072DA62F1
:109F70004FF45043C4F204034FF480721A664FF456
:109F80005043C4F204034FF480725A664FF45043B6
:109F9000C4F204034FF480729A664FF45043C4F243
:109FA00004034FF48072DA664FF45043C4F20403A2
:109FB0004FF480721A674FF47143C4F20F034FF6E7
:109FC000EC72CFF2F0429A604FF47142C4F20F0289
:109FD0004FF47143C4F20F0359694FF6EC73CFF29B
:109FE000F0430B4353614FF46043C4F204034FF456
:109FF0008072DA604FF46043C4F204034FF480725D
:10A000001A614FF46043C4F204034FF48072DA61C2
:10A010004FF46043C4F204034FF480721A624FF4A9
:10A020006043C4F204034FF480725A624FF46043F9
:10A03000C4F204034FF480729A624FF46043C4F296
:10A0400004034FF48072DA624FF46043C4F20403F5
:10A050004FF480721A634FF46043C4F204034FF468
:10A0600080725A634FF46043C4F204034FF4807269
:10A070009A634FF46043C4F204034FF48072DA63CE
:10A080004FF46043C4F204034FF480721A644FF437
:10A090006043C4F204034FF480725A644FF4604387
:10A0A000C4F204034FF480729A644FF46043C4F224
:10A0B00004034FF48072DA644FF46043C4F2040383
:10A0C0004FF480725A654FF46043C4F204034FF4B6
:10A0D00080729A654FF46043C4F204034FF48072B7
:10A0E000DA654FF46043C4F204034FF480721A66D9
:10A0F0004FF46043C4F204034FF480725A664FF485
:10A100006043C4F204034FF480729A664FF46043D4
:10A11000C4F204034FF48072DA664FF24013C4F2C3
:10A120000F034FF69872CFF2EF729A604FF240121F
:10A13000C4F20F024FF24013C4F20F0359694FF6F5
:10A140009873CFF2EF730B4353614FF46043C4F243
:10A1500004034FF480725A614FF46043C4F2040365
:10A160004FF480729A614FF24013C4F20F034FF024
:10A1700020029A604FF24013C4F20F034FF04002E6
:10A180009A604FF24013C4F20F034FF24012C4F230
:10A190000F02526942F060025A614FF47143C4F2F7
:10A1A0000F034FF010025A604FF45043C4F20403FF
:10A1B0004FF480721A614FF47143C4F20F034FF4ED
:10A1C0007142C4F20F02526942F010025A614FF418
:10A1D0006043C4F204034FF480729A604FF240135C
:10A1E000C4F20F034FF004029A604FF45043C4F2DC
:10A1F00004034FF480721A634FF45043C4F2040313
:10A200004FF481729A644FF47143C4F20F034FF418
:10A210007142C4F20F02526922F480225A614FF057
:10A22000010008F0B1FB4FF47143C4F20F031B6946
:10A230004FEA934303F00103002B3BD040F2A80305
:10A24000C1F6FF734FF001021A604FF47143C4F27C
:10A250000F034FF480225A604FF45043C4F20403BA
:10A260004FF490729A644FF47143C4F20F034FF4A9
:10A270007142C4F20F02526942F480225A614FF4D3
:10A280007143C4F20F034FF400225A604FF450435D
:10A29000C4F204034FF49072DA644FF47143C4F2D1
:10A2A0000F034FF47142C4F20F02526942F40022CC
:10A2B0005A613AE040F2A803C1F6FF734FF0000282
:10A2C0001A604FF47143C4F20F034FF480229A6076
:10A2D0004FF45043C4F204034FF490729A644FF465
:10A2E0007143C4F20F034FF47142C4F20F0252697A
:10A2F00042F480225A614FF47143C4F20F034FF4C9
:10A3000000229A604FF45043C4F204034FF4907259
:10A31000DA644FF47143C4F20F034FF47142C4F294
:10A320000F02526942F400225A614FF47143C4F2A1
:10A330000F034FF001025A604FF45043C4F204037C
:10A340004FF480729A644FF47143C4F20F034FF4D8
:10A350007142C4F20F02526942F001025A614FF495
:10A360005043C4F204034FF440721A604FF4504358
:10A37000C4F204034FF440725A604FF45043C4F2E5
:10A3800004034FF440721A664FF45043C4F20403BE
:10A3900040F203325A664FF47143C4F20F034FF494
:10A3A0007142C4F20F02526922F000725A614FF4F6
:10A3B0007143C4F20F034FF000629A604FF45043B0
:10A3C000C4F204034FF48072DA664FF47143C4F2AE
:10A3D0000F034FF47142C4F20F02526942F000625F
:10A3E0005A614FF47143C4F20F034FF480729A60C4
:10A3F0004FF45043C4F204034FF480721A624FF4D6
:10A400007143C4F20F034FF47142C4F20F02526958
:10A4100042F480725A614FF46043C4F204034FF473
:10A4200080721A654FF24013C4F20F034FF24012CC
:10A43000C4F20F02526922F480125A617B681846F6
:10A4400007F10807BD4680BD80B400AF40F2A80305
:10A45000C1F6FF731B681846BD4680BC704700BF3D
:10A4600080B500AF49F25060C1F6FF704FF00001B7
:10A470004FF0780216F025F84FF001000AF016FCB4
:10A48000024649F25063C1F6FF739A634FF0010030
:10A490000AF00CFC024649F25063C1F6FF73DA631E
:10A4A00049F25063C1F6FF734FF0020283F8402077
:10A4B00049F25063C1F6FF734FF0020283F8412066
:10A4C00049F25063C1F6FF734FF0020283F8422055
:10A4D00049F25063C1F6FF734FF0020283F8432044
:10A4E00049F25063C1F6FF734FF0000283F8442035
:10A4F00049F25063C1F6FF734FF0000283F8452024
:10A5000049F25063C1F6FF734FF0000283F8462012
:10A5100049F25063C1F6FF734FF0000283F8472001
:10A5200049F25063C1F6FF734FF0000283F84820F0
:10A5300049F25063C1F6FF734FF0000283F84920DF
:10A5400049F25063C1F6FF734FF0000283F84A20CE
:10A5500049F25063C1F6FF734FF0000283F84B20BD
:10A5600049F25063C1F6FF734FF0000283F84D20AB
:10A5700049F25063C1F6FF734FF0000283F84C209C
:10A5800049F25063C1F6FF734FF00002A3F8722046
:10A5900049F25063C1F6FF734FF6FF72A3F87020C3
:10A5A00049F25063C1F6FF734FF00002A3F8742024
:10A5B00049F25063C1F6FF734FF6FF72A3F876209D
:10A5C00049F25063C1F6FF734FF000021A6149F27D
:10A5D0005063C1F6FF734FF0000283F84E2049F23A
:10A5E0005063C1F6FF734FF000025A6249F25063A4
:10A5F000C1F6FF734FF000029A6149F25063C1F651
:10A60000FF734FF00002DA6149F25063C1F6FF7345
:10A610004FF000021A6249F25063C1F6FF734FF027
:10A6200000029A6249F25063C1F6FF734FF00002D4
:10A63000DA6249F25063C1F6FF734FF000021A6309
:10A6400049F25063C1F6FF734FF00002DA6549F238
:10A650005063C1F6FF734FF000021A6649F250636F
:10A66000C1F6FF734FF000029A6649F25063C1F6DB
:10A67000FF734FF000021A6049F25063C1F6FF7396
:10A680004FF000025A6049F25063C1F6FF734FF079
:10A6900000029A6049F25063C1F6FF734FF0000266
:10A6A000DA6049F25063C1F6FF734FF44142C2F2DF
:10A6B0000002DA6680BD00BF80B500AF00BF49F27E
:10A6C0005063C1F6FF739B6B18464FF000014FF0CB
:10A6D0000A024FF000030AF00BFD0346012BEED1F6
:10A6E00080BD00BF80B500AF49F25063C1F6FF7373
:10A6F0009B6B18464FF000014FF000024FF0000333
:10A700000AF0D0FB80BD00BF80B582B000AF034629
:10A710003960FB71FB79012B02D0022B08D00FE0CE
:10A72000386842F6B411C0F2030113F04DFA0FE09D
:10A73000386842F6BC11C0F2030113F045FA07E095
:10A74000386842F6C411C0F2030113F03DFA00BFAD
:10A750003B68184607F10807BD4680BD80B489B044
:10A7600000AFF860B9607A603B604FF000037B6136
:10A770004FF00103FB747B68FB617B68BB612CE0DD
:10A78000BB68052B01D1BB69FB60BB68062B09D1F7
:10A79000BB694FEA0342BB694FEA03434FEA1343E5
:10A7A0001343FB60BB68072B03D1BB694FEA03432C
:10A7B000FB60BB68082B05D1BB694FEA03434FEA36
:10A7C0001343FB60FB69FA681A60FB6903F1040339
:10A7D000FB61BB6903F10103BB617A683B68D21876
:10A7E000BB699A42CCD87B68FB617B68BB613AE06D
:10A7F000BB68052B01D1BB69FB60BB68062B09D187
:10A80000BB694FEA0342BB694FEA03434FEA134374
:10A810001343FB60BB68072B03D1BB694FEA0343BB
:10A82000FB60BB68082B05D1BB694FEA03434FEAC5
:10A830001343FB60FB691A68FB689A420BD049F22C
:10A840005063C1F6FF734FF0020283F845204FF0CA
:10A8500001037B610DE0FB6903F10403FB61BB694C
:10A8600003F10103BB617A683B68D218BB699A4265
:10A87000BED87B69184607F12407BD4680BC7047E7
:10A8800080B584B000AF4FF0E043FB604FF0200391
:10A89000BB60FB687B604FF000004FF001017A68FD
:10A8A000BB68FFF75BFF4FF0FF304FF002017A68A3
:10A8B000BB68FFF753FF4FF0AA304FF003017A68EF
:10A8C000BB68FFF74BFF4FF055304FF004017A683B
:10A8D000BB68FFF743FF4FF000004FF005017A68B7
:10A8E000BB68FFF73BFF4FF000004FF006017A68AE
:10A8F000BB68FFF733FF4FF000004FF007017A68A5
:10A90000BB68FFF72BFF4FF000004FF008017A689B
:10A91000BB68FFF723FFFB6803F180737B604FF098
:10A9200000004FF001017A68BB68FFF717FF4FF096
:10A93000FF304FF002017A68BB68FFF70FFF4FF05E
:10A94000AA304FF003017A68BB68FFF707FF4FF0AA
:10A9500055304FF004017A68BB68FFF7FFFE4FF0F7
:10A9600000004FF005017A68BB68FFF7F7FE4FF073
:10A9700000004FF006017A68BB68FFF7EFFE4FF06A
:10A9800000004FF007017A68BB68FFF7E7FE4FF061
:10A9900000004FF008017A68BB68FFF7DFFEFA6835
:10A9A000BB68D31A03F100737B604FF000004FF0D7
:10A9B00001017A68BB68FFF7D1FE4FF0FF304FF01E
:10A9C00002017A68BB68FFF7C9FE4FF0AA304FF06A
:10A9D00003017A68BB68FFF7C1FE4FF055304FF0B6
:10A9E00004017A68BB68FFF7B9FE4FF000004FF032
:10A9F00005017A68BB68FFF7B1FE4FF000004FF029
:10AA000006017A68BB68FFF7A9FE4FF000004FF01F
:10AA100007017A68BB68FFF7A1FE4FF000004FF016
:10AA200008017A68BB68FFF799FE07F11007BD4679
:10AA300080BD00BF80B500AF00BF49F25063C1F6D2
:10AA4000FF73DB6B18464FF000014FF00A024FF026
:10AA500000030AF04DFB0346012BEED180BD00BF81
:10AA600080B500AF49F25063C1F6FF73DB6B184647
:10AA70004FF000014FF000024FF000030AF012FA0D
:10AA800080BD00BF80B400AF4FF40053CEF2080386
:10AA90004FF40052CEF20802126842F0A0621A602F
:10AAA0004FF40053CEF208034FF40052CEF20802E6
:10AAB000126842F000421A6000BF4FF40053CEF219
:10AAC00008031B68002BF8DB4FF40053CEF2080399
:10AAD0004FF40052CEF20802126842F001021A60EE
:10AAE0004FF40053CEF208034FF0A062C3F80028E1
:10AAF0004FF40053CEF208034FF40052CEF2080296
:10AB0000126842F000421A6000BF4FF40053CEF2C8
:10AB100008031B68002BF8DB4FF40053CEF2080348
:10AB20004FF40052CEF20802D2F8002842F001029F
:10AB3000C3F80028BD4680BC704700BF80B400AF9A
:10AB40004FF24013C4F20F034FF020029A604FF20D
:10AB50004013C4F20F034FF040025A604FF240130B
:10AB6000C4F20F034FF040029A604FF24013C4F258
:10AB70000F034FF020025A60E2E700BF80B500AF3C
:10AB8000FFF7DCFF80BD00BF80B500AFFFF7D6FF49
:10AB900080BD00BF80B500AFFFF7D0FF80BD00BF14
:10ABA00080B500AFFFF7CAFF80BD00BF80B500AF22
:10ABB000FFF7C4FF80BD00BF80B500AFFFF7BEFF49
:10ABC00080BD00BF0000000090B58BB002AF786080
:10ABD00039607B689B68184613F054FE02460B46AA
:10ABE0004FF000004FF00001C3F6F07113F0DAFFF0
:10ABF00002460B461046194614F06CF90346BB6139
:10AC00007B685B68B3F5005F0ADC40F20403C1F6C1
:10AC1000FF731A6840F2AC03C1F6FF731A6009E0D3
:10AC200040F20803C1F6FF731A6840F2AC03C1F6A4
:10AC3000FF731A6049F2C863C1F6FF734FF0010257
:10AC40001A60786800F0F2F87B6818687B685968C9
:10AC500007F1140207F1100307F10C04009400F04F
:10AC60000DFED7ED057AB0EEE77AD7ED047AF0EE77
:10AC7000E77AB0EE470AF0EE670A00F0A5FEF0EEC4
:10AC8000407A3B68C3ED017AD7ED057AB0EEE77AFA
:10AC9000D7ED047AF0EEE77A77EE277A3B68C3EDDA
:10ACA000027AFA683B681A604FF0030006F0ACFEC7
:10ACB0000346002B3BD149F2CC63C1F6FF731B68FE
:10ACC0007A69DA6449F2CC63C1F6FF731B683A69AA
:10ACD0001A6549F2CC63C1F6FF731B68FA685A65BE
:10ACE00049F2CC63C1F6FF731B68BA699A6549F2F1
:10ACF000CC63C1F6FF731C6849F2CC63C1F6FF73E5
:10AD00001B6803F5102303F22C7338684FF02401FD
:10AD10001A4606F0A5FE0346236149F2CC63C1F64C
:10AD2000FF731B681B69002B01D006F029FE49F256
:10AD3000C863C1F6FF734FF000021A6049F2506316
:10AD4000C1F6FF73DB6D002B5ED04FF00003FB619B
:10AD500017E07B681A68FB694FEA8303D3187A68A7
:10AD60001168FA694FEA82028A1892ED007ADFEDE3
:10AD70002E7A67EE277AC3ED007AFB6903F10103AF
:10AD8000FB617B685A68FB699A42E2DC7B681A685F
:10AD90007B685B681046194697ED060A00F024FDB3
:10ADA000786800F043F87B6818687B68596807F199
:10ADB000140207F1100307F10C04009400F05EFD8B
:10ADC000D7ED057AB0EEE77AD7ED047AF0EEE77AC0
:10ADD000B0EE470AF0EE670A00F0F6FDF0EE407ABA
:10ADE0003B68C3ED047AD7ED057AB0EEE77AD7ED8C
:10ADF000047AF0EEE77A77EE277A3B68C3ED057ABE
:10AE0000FA683B68DA600BE03B684FF000021A61B9
:10AE10003B684FF000025A613B684FF00002DA6075
:10AE200007F12407BD4690BD570BC143B0B58CB0A8
:10AE300000AF78607B685B687B617B685B683B61C7
:10AE40003B694FEA430303F10103FB6000F046FF57
:10AE500003467B8340F2AC03C1F6FF731B684FF0DF
:10AE600000021A604FF00003FB6224E040F2AC03E2
:10AE7000C1F6FF731A68FB6A4FEAC30303F10403C8
:10AE8000D3187A681168FA6A4FEA82028A1812683F
:10AE90001A6040F2AC03C1F6FF731A68FB6A4FEA0E
:10AEA000C30303F10803D3184FF000021A60FB6AD2
:10AEB00003F10103FB62FA6A7B699A42D6DB7B8B62
:10AEC000012B30D13B69B3F5005F12D140F2AC03E6
:10AED000C1F6FF731B6803F1040342F64C30C0F265
:10AEE000030019464FF000024FF0010311F01AFF62
:10AEF00019E03B69B3F5805F12D140F2AC03C1F6B3
:10AF0000FF731B6803F1040342F65C30C0F20300D8
:10AF100019464FF000024FF0010311F003FF02E069
:10AF20004FF000037B837B8B002B0AD140F2AC03F4
:10AF3000C1F6FF731B68184639694FF0010200F033
:10AF400089FA49F2C863C1F6FF731B68002B2DD044
:10AF50004FF0030006F058FD0346002B26D149F2BE
:10AF6000CC63C1F6FF731C6840F2AC03C1F6FF73FB
:10AF70001A6849F2CC63C1F6FF731B6803F54133CD
:10AF800003F53F7310464FF00801C0F202011A4664
:10AF900006F066FD0346236149F2CC63C1F6FF73F8
:10AFA0001B681B69002B01D006F0EAFC03F016FCBD
:10AFB00003467B817A894FF6FF739A4200F08980BD
:10AFC000386913F05FFC04460D467B8907EE103AA2
:10AFD000F8EE477A17EE900A13F066FC02460B462D
:10AFE000104619464FF000024FF00003C4F224034C
:10AFF00013F0D8FD02460B462046294613F0A8FC64
:10B0000002460B4614461D467B689B68184613F0A3
:10B0100039FC02460B462046294613F0C3FD024682
:10B020000B461046194613F02DFF03467B627B6AE0
:10B030004FEA430303F101033B62FB6803F1FF3373
:10B04000FB624FF00103BB623FE040F2AC03C1F68C
:10B05000FF731A68BB6A4FEA8303D3184FF00002EC
:10B060001A60BB6A03F10103BB6240F2AC03C1F694
:10B07000FF731A68BB6A4FEA8303D3184FF00002CC
:10B080001A60BB6A03F10103BB6240F2AC03C1F674
:10B09000FF731A68FB6A4FEA8303D3184FF000026C
:10B0A0001A60FB6A03F1FF33FB6240F2AC03C1F6A6
:10B0B000FF731A68FB6A4FEA8303D3184FF000024C
:10B0C0001A60FB6A03F1FF33FB62BA6A3B6A9A4279
:10B0D000BBDB49F2C863C1F6FF731B68002B29D0A4
:10B0E0004FF0030006F090FC0346002B22D149F2FA
:10B0F000CC63C1F6FF731B687A899A6149F2CC630D
:10B10000C1F6FF731B687A6ADA6149F2CC63C1F653
:10B11000FF731B683A6A1A6249F2CC63C1F6FF7387
:10B120001B68FA6A5A6249F2CC63C1F6FF731B6866
:10B13000BA6A9A6203F070FB03467B817A894FF604
:10B14000FF739A4265D0386913F09CFB04460D46A4
:10B150007B8907EE103AF8EE477A17EE900A13F063
:10B16000A3FB02460B46104619464FF000024FF073
:10B170000003C4F2240313F015FD02460B462046DB
:10B18000294613F0E5FB02460B4614461D467B6834
:10B190009B68184613F076FB02460B46204629466C
:10B1A00013F000FD02460B461046194613F06AFEE6
:10B1B00003467B627B6A4FEA430303F10103FB61B1
:10B1C000FA68FB69D31A3B62FB69BB621DE040F27F
:10B1D000AC03C1F6FF731A68BB6A4FEA8303D31846
:10B1E0004FF000021A6040F2AC03C1F6FF731A6818
:10B1F000BB6A03F101034FEA8303D3184FF0000247
:10B200001A60BB6A03F10203BB62BA6A3B6A9A42E4
:10B21000DDDB49F2C863C1F6FF731B68002B57D012
:10B220004FF0030006F0F0FB0346002B50D149F22B
:10B23000CC63C1F6FF731B687A89DA6249F2CC638A
:10B24000C1F6FF731B687A6A1A6349F2CC63C1F6D0
:10B25000FF731B683A6A5A6349F2CC63C1F6FF7305
:10B260001B68FA699A6349F2CC63C1F6FF731B68E5
:10B27000FA6ADA6349F2CC63C1F6FF731B68BA6AF3
:10B280001A6449F2CC63C1F6FF731C6840F2AC0348
:10B29000C1F6FF731A6849F2CC63C1F6FF731B68ED
:10B2A00003F5A02303F2047310464FF00801C0F227
:10B2B00002011A4606F0D4FB0346236149F2CC632F
:10B2C000C1F6FF731B681B69002B01D006F058FB09
:10B2D0007B8B012B30D13B69B3F5005F12D140F27B
:10B2E000AC03C1F6FF731B6803F1040342F64C3054
:10B2F000C0F2030019464FF001024FF0010311F0B4
:10B3000011FD19E03B69B3F5805F12D140F2AC0347
:10B31000C1F6FF731B6803F1040342F65C30C0F210
:10B32000030019464FF001024FF0010311F0FAFC3F
:10B3300002E04FF000037B837B8B002B32D140F285
:10B34000AC03C1F6FF731B68184639694FF0FF3232
:10B3500000F080F84FF00003FB621EE07B681A6883
:10B36000FB6A4FEA8303D21840F2AC03C1F6FF73C5
:10B370001968FB6A4FEAC30303F10403CB1893ED8A
:10B38000007AD7ED047AF8EEE77AC7EE277AC2EDB5
:10B39000007AFB6A03F10103FB62FA6A3B699A4295
:10B3A000DCDB1EE04FF00003FB6216E07B681A68EE
:10B3B000FB6A4FEA8303D21840F2AC03C1F6FF7375
:10B3C0001968FB6A4FEAC30303F10403CB181B6837
:10B3D0001360FB6A03F10103FB62FA6A3B699A425C
:10B3E000E4DB49F2C863C1F6FF731B68002B2DD064
:10B3F0004FF0030006F008FB0346002B26D149F26C
:10B40000CC63C1F6FF731C6840F2AC03C1F6FF7356
:10B410001A6849F2CC63C1F6FF731B6803F5E02399
:10B4200003F20C7310464FF00801C0F202011A46F5
:10B4300006F016FB0346236149F2CC63C1F6FF73A5
:10B440001B681B69002B01D006F09AFA07F1300740
:10B45000BD46B0BDB0B592B000AFF860B9607A60DB
:10B46000BB684FEA4303FB624FF001033B644FF0BC
:10B4700001037B645BE03A6C7B6C9A423BDD7B6C46
:10B480004FEA8303FA68D3181B68BB627B6C4FEAF0
:10B490008303FA68D3183A6C4FEA8202F9688A1873
:10B4A00012681A603B6C4FEA8303FA68D318BA6AD1
:10B4B0001A607B6C03F101034FEA8303FA68D31827
:10B4C0001B68BB627B6C03F101034FEA8303FA68DC
:10B4D000D3183A6C02F101024FEA8202F9688A1825
:10B4E00012681A603B6C03F101034FEA8303FA68A8
:10B4F000D318BA6A1A60FB6A4FEA6303FB6307E07A
:10B500003A6CFB6BD31A3B64FB6B4FEA6303FB6340
:10B51000FB6B012B03DD3A6CFB6B9A42F0DC3A6C5F
:10B52000FB6BD3183B647B6C03F102037B647A6C86
:10B53000FB6A9A429FDB4FF00203BB6344E1BB6BA3
:10B540004FEA43037B627B68BA6B02FB03F3184646
:10B5500013F098F902460B46A1A1D1E9000113F0BE
:10B5600021FB02460B461046194613F0B3FC034676
:10B570003B62386A13F098F902460B4610461946AA
:10B580004FF000024FF00003C3F6E07313F0E0F950
:10B5900002460B4643EC172BB0EE470AF0EE670A63
:10B5A00013F0EAFC53EC102B1046194613F092FCF2
:10B5B0000346FB61F86913F077F902460B46104623
:10B5C00019464FF000024FF0404313F0C1F9024614
:10B5D0000B4614461D46F86913F066F902460B4601
:10B5E0002046294613F0B4F902460B461046194688
:10B5F00013F070FC0346BB61386A13F055F902463C
:10B600000B4643EC102B13F0B7FC53EC102B1046F9
:10B61000194613F05FFC03467B614FF07E537B635A
:10B620004FF000033B634FF00103FB63C5E0FB6B8E
:10B630007B648FE07A6CBB6BD3183B643B6C4FEA46
:10B640008303FA68D31893ED007AD7ED0D7A27EECD
:10B65000277A3B6C03F101034FEA8303FA68D3189E
:10B66000D3ED006AD7ED0C7A66EEA77A77EE677AAB
:10B67000C7ED0A7A3B6C03F101034FEA8303FA68D2
:10B68000D31893ED007AD7ED0D7A27EE277A3B6C2D
:10B690004FEA8303FA68D318D3ED006AD7ED0C7A2A
:10B6A00066EEA77A77EE277AC7ED047A3B6C4FEA0D
:10B6B0008303FA68D3187A6C4FEA8202F9688A1811
:10B6C00092ED007AD7ED0A7A77EE677AC3ED007AC9
:10B6D0003B6C03F101034FEA8303FA68D3187A6CD9
:10B6E00002F101024FEA8202F9688A1892ED007AAB
:10B6F000D7ED047A77EE677AC3ED007A7B6C4FEA78
:10B700008303FA68D3187A6C4FEA8202F9688A18C0
:10B7100092ED007AD7ED0A7A77EE277AC3ED007AB8
:10B720007B6C03F101034FEA8303FA68D3187A6C48
:10B7300002F101024FEA8202F9688A1892ED007A5A
:10B74000D7ED047A77EE277AC3ED007A7A6C7B6ABC
:10B75000D3187B647A6CFB6A9A42FFF66BAF7B6B03
:10B76000FB6197ED077AD7ED067A27EE277AD7EDBA
:10B770000C6AD7ED057A66EEA77A77EE677A97EDD1
:10B780000D7A77EE277AC7ED0D7A97ED0C7AD7ED23
:10B79000067A27EE277AD7ED076AD7ED057A66EEA7
:10B7A000A77A77EE277A97ED0C7A77EE277AC7EDAE
:10B7B0000C7AFB6B03F10203FB63FA6BBB6B9A42DF
:10B7C000FFF635AF7B6ABB63FA6ABB6B9A423FF701
:10B7D000B6AE07F14807BD46B0BD00BFAFF300806D
:10B7E00000000060FB21194080B48BB000AFF8600E
:10B7F000B96087ED010AFB681B68FB614FF000032D
:10B800003B62FB683A6A1A604FF001037B622BE0EF
:10B810007B6A4FEA8303FA68D3181B68BB6197ED14
:10B82000077AD7ED067A37EE277AF0EE007A87EEC0
:10B83000277AD7ED087A77EE277AC7ED057A7B6904
:10B840003B62BB69FB617B6A4FEA8303FA68D318EA
:10B8500097ED057AD7ED017A67EE277AC3ED007A86
:10B860007B6A03F101037B627A6ABB689A42CFDB91
:10B8700007F12C07BD4680BC704700BF80B58AB079
:10B8800000AFF860B9607A603B60FB681A687B685B
:10B890001A60FB681A683B681A604FF000037B620D
:10B8A0004FF000033B622CE03B6A4FEA8303FA68E7
:10B8B000D3181B68FB617B6893ED007AD7ED077A9C
:10B8C000B4EEE77AF1EE10FA02DD7B68FA691A60ED
:10B8D0003B6893ED007AD7ED077AB4EEE77AF1EEA4
:10B8E00010FA02D53B68FA691A6097ED097AD7ED2C
:10B8F000077A77EE277AC7ED097A3B6A03F10103ED
:10B900003B623A6ABB689A42CEDBD7ED027AF8EE28
:10B91000E77A97ED097AC7EE277AC7ED067A4FF0F6
:10B9200000037B624FF000033B621CE03B6A4FEA7E
:10B930008303FA68D31893ED007AD7ED067A77EE91
:10B94000677AC7ED057A97ED057AD7ED057A67EE48
:10B95000277A97ED097A77EE277AC7ED097A3B6A5D
:10B9600003F101033B623A6ABB689A42DEDBBB68C3
:10B9700003F1FF3307EE103AF8EEC77A97ED097A34
:10B98000C7EE277AB0EE670A13F04EFB87ED040A84
:10B9900097ED067AD7ED067A27EE277AD7ED046A77
:10B9A000D7ED047A66EEA77A77EE277AB0EE670ACB
:10B9B00013F03AFBF0EE407A3B6BC3ED007A07F1EF
:10B9C0002807BD4680BD00BF80B483B000AF87EDBF
:10B9D000010AC7ED000A97ED017AD7ED007AB4EEBF
:10B9E000E77AF1EE10FA01DB7B6800E03B6807EED6
:10B9F000903AB0EE670A07F10C07BD4680BC70476D
:10BA000080B400AF4FF00003C4F202034FF0000215
:10BA1000C4F202021278D2B262F07F02D2B21A707D
:10BA200000BF4FF00003C4F202031B78DBB2DBB2AD
:10BA30005BB2002BF5DABD4680BC704780B582B0A2
:10BA400000AF4FF000037B6000F092F84FF000036E
:10BA5000C4F202034FF00302DA714FF00003C4F2A4
:10BA600002034FF080029A714FF00003C4F2020308
:10BA70004FF003025A714FF00003C4F202034FF07B
:10BA8000F8021A714FF00003C4F202034FF00002F3
:10BA9000DA7272B6FFF7B4FF62B64FF00003C4F279
:10BAA00002031B78DBB2802B03D04FF48A737B60D8
:10BAB00026E04FF00003C4F202035B7BDBB2F02B05
:10BAC00003D040F215137B601AE04FF00003C4F27C
:10BAD00002031B7BDBB2F62B03D040F215137B6015
:10BAE0000EE04FF00003C4F202035B78DBB203F018
:10BAF0000303DBB2012B03D04FF48B737B6000BFD9
:10BB00007B68184607F10807BD4680BD80B582B046
:10BB100000AF4FF000037B6000F02AF84FF0000305
:10BB2000C4F202034FF08002DA714FF00003C4F256
:10BB300002034FF03002DA724FF00003C4F2020346
:10BB40004FF006029A7272B615F0CEFB62B64FF055
:10BB50000003C4F202031B78DBB2802B02D04FF447
:10BB60008A737B607B68184607F10807BD4680BD75
:10BB700080B400AF4FF00003C4F202031B78DBB2C5
:10BB800003F07003002B0DD04FF00003C4F202034A
:10BB90004FF00002C4F202021278D2B242F07002F8
:10BBA000D2B21A70BD4680BC704700BF80B582B06B
:10BBB00000AF4FF000037B60FFF740FF78607A68CA
:10BBC00040F215139A420AD1FFF7A0FF78607B6814
:10BBD000002B03D1FFF732FF786000E000BF7B68E5
:10BBE000184607F10807BD4680BD00BF80B485B088
:10BBF00000AF786039604FF00003FB607A6840F670
:10BC0000FF739A4203D940F21913FB601DE07B6871
:10BC10004FEA830303F1A0537B607B68BB60BB6882
:10BC20003A681A6000BF4FF00003C4F202031B78A9
:10BC3000DBB2DBB25BB2002BF5DABB681A683B689B
:10BC40009A4202D040F21713FB60FB68184607F1D6
:10BC50001407BD4680BC704780B584B000AF7860E3
:10BC60007B68012B07D107F10E0340F267101946DC
:10BC7000FAF7D4FB0DE07B68022B07D107F10E0326
:10BC800040F26B101946FAF7C9FB02E04FF480430B
:10BC9000FB81FB89B3F5006F19D0B3F5006F09DCA8
:10BCA000B3F5007F13D0B3F5806F10D0B3F5807F6C
:10BCB0000DD008E0B3F5005F09D0B3F5804F06D092
:10BCC000B3F5805F03D04FF40053FB8100E000BF69
:10BCD000FB89184607F11007BD4680BD80B582B0CC
:10BCE00000AF07F1060340F27D101946FAF796FB04
:10BCF000FB8803F001039BB2002B02D04FF001033D
:10BD000001E04FF00003184607F10807BD4680BD6B
:10BD1000B0B584B000AF786007F10E034FF4B77090
:10BD20001946FAF77BFBFB89022B6BD140F200131B
:10BD3000C1F6FF731B68184612F0B6FD02460B46AB
:10BD400010461946ACA3D3E9002313F091F803463B
:10BD5000002B27D140F20013C1F6FF735B68184631
:10BD600012F0A2FD02460B4610461946A2A3D3E9E3
:10BD7000002313F07DF80346002B13D140F200138B
:10BD8000C1F6FF739B68184612F08EFD02460B4603
:10BD90001046194698A3D3E9002313F069F8034627
:10BDA000002B17D040F2B802C1F6FF7240F2001328
:10BDB000C1F6FF7314461D460FCD0FC40FCD0FC43F
:10BDC0002B68236049F25063C1F6FF734FF0050200
:10BDD0009A660CE140F2B802C1F6FF7240F2DC0351
:10BDE000C1F6FF7314461D460FCD0FC40FCD0FC40F
:10BDF0002B68236049F25063C1F6FF734FF00002D5
:10BE00009A66F4E0FB89062B6BD140F2DC03C1F6A5
:10BE1000FF731B68184612F047FD02460B4610469A
:10BE2000194675A3D3E9002313F022F80346002B2B
:10BE300027D140F2DC03C1F6FF735B68184612F0AD
:10BE400033FD02460B46104619466BA3D3E9002387
:10BE500013F00EF80346002B13D140F2DC03C1F6B9
:10BE6000FF739B68184612F01FFD02460B461046F2
:10BE7000194661A3D3E9002312F0FAFF0346002B11
:10BE800017D040F2B802C1F6FF7240F2DC03C1F6EF
:10BE9000FF7314461D460FCD0FC40FCD0FC42B6882
:10BEA000236049F25063C1F6FF734FF006029A66B1
:10BEB0009DE040F2B802C1F6FF7240F20013C1F6F5
:10BEC000FF7314461D460FCD0FC40FCD0FC42B6852
:10BED000236049F25063C1F6FF734FF000029A6687
:10BEE00085E0FB89082B6BD140F20013C1F6FF738C
:10BEF0001B68184612F0D8FC02460B46104619463D
:10BF00003FA3D3E9002312F0B3FF0346002B27D150
:10BF100040F20013C1F6FF735B68184612F0C4FCD0
:10BF200002460B461046194635A3D3E9002312F00A
:10BF30009FFF0346002B13D140F20013C1F6FF739D
:10BF40009B68184612F0B0FC02460B461046194694
:10BF50002BA3D3E9002312F08BFF0346002B17D04D
:10BF600040F2B802C1F6FF7240F20013C1F6FF734F
:10BF700014461D460FCD0FC40FCD0FC42B68236090
:10BF800049F25063C1F6FF734FF005029A662EE046
:10BF900040F2B802C1F6FF7240F2DC03C1F6FF7353
:10BFA00014461D460FCD0FC40FCD0FC42B68236060
:10BFB00049F25063C1F6FF734FF000029A6616E033
:10BFC00040F2B802C1F6FF7240F2DC03C1F6FF7323
:10BFD00014461D460FCD0FC40FCD0FC42B68236030
:10BFE00049F25063C1F6FF734FF006029A6607F1FB
:10BFF0001007BD46B0BD00BF39B4C876BE9FF63F3E
:10C0000039B4C876BE9F064080B586B000AF40F216
:10C01000B403C1F6FF734FF000021A6040F2B003A0
:10C02000C1F6FF734FF001021A606748FCF718FA77
:10C0300003463B6107F102034FF00E001946FAF781
:10C04000EDF97B8803F001039BB2002B00F0B88070
:10C0500007F1020340F269101946FAF7DFF97B880D
:10C0600003F001039BB2002B00F0AA8007F102034A
:10C070004FF4B3701946FAF7D1F97B884FF47A720E
:10C0800002FB03F3FB60FA6843F698239A4202D955
:10C0900043F69823FB604FF000037B6125E007F136
:10C0A00002034FF00E001946FAF7B8F97B8803F047
:10C0B00001039BB2002B20D049F25063C1F6FF73FD
:10C0C000DB6A03F1010249F25063C1F6FF73DA62E1
:10C0D0004FF0010009F082FD7B6903F101037B61F0
:10C0E0007A6941F288339A4209DC40F2B003C1F622
:10C0F000FF731B68002BD2D002E000BF00E000BF3E
:10C1000040F2B003C1F6FF734FF000021A6049F22B
:10C110005063C1F6FF73FA681A6340F20C03C1F66C
:10C12000FF731B684FF00700F9684FF00002FCF73F
:10C13000ABF9B8602448FCF793F903467B60BB6811
:10C14000002B35D140F2B403C1F6FF734FF001026A
:10C150001A6049F25063C1F6FF739B6A03F1010252
:10C1600049F25063C1F6FF739A624FF0040009F080
:10C1700035FDFA684CF6CD43CCF6CC43A3FB021355
:10C180004FEAD3023B69D3183B613A697B689A4214
:10C190000BD049F25063C1F6FF735B6B03F10102F0
:10C1A00049F25063C1F6FF735A637B683B6141E714
:10C1B00040F2B003C1F6FF734FF001021A6039E795
:10C1C00007F11807BD4680BD1096FF1FB0B5A2B09D
:10C1D00000AF4EF2E803C7F2B2237B6607F1020319
:10C1E0004FF00E001946FAF719F97B8803F00103A6
:10C1F0009BB2002B07D14FF47A7009F0EFFC4FF09F
:10C20000000302F0E5BA07F1020340F26910194693
:10C21000FAF704F97B8803F001039BB2002B07D1E6
:10C220004FF47A7009F0DAFC4FF0000302F0D0BA54
:10C2300040F2B403C1F6FF731B68012B03D04FF02B
:10C24000000302F0C5BA40F2B403C1F6FF734FF029
:10C2500000021A6007F102034FF4B3701946FAF7AF
:10C26000DDF87B884FF47A7202FB03F3C7F8803065
:10C27000D7F8802043F698239A4203D943F69823AF
:10C28000C7F8803040F20C03C1F6FF731B683B66B1
:10C290003B6EFB6540F20C03C1F6FF731A684EF269
:10C2A0001833C7F212139A4219D1D7F880204CF6EE
:10C2B000CD43CCF6CC43A3FB02034FEAD30341F2B8
:10C2C000707202FB03F24EF21833C7F21213D31846
:10C2D0001A4640F20C03C1F6FF731A6008E040F200
:10C2E0000C03C1F6FF734EF21832C7F212121A6035
:10C2F00040F2B003C1F6FF734FF001021A6007F17C
:10C3000002034FF004001946FAF788F87B8803F01F
:10C3100020039BB2002B03D04FF0000302F058BA69
:10C3200049F25063C1F6FF734FF000029A6149F27F
:10C330005063C1F6FF734FF001021A6248F698335A
:10C34000C7F22523BB624FF00003C4F24003FB6336
:10C3500007F102034FF4B4701946FAF75FF87B88CF
:10C36000012B03D14FF001037B6302E04FF0000388
:10C370007B634FF00100FFF76FFC0346FB62FB6A33
:10C380001A46D7F8801044F6D353C1F26203A3FBD8
:10C3900001034FEA9313B2FBF3F33B634FF0000347
:10C3A000FB6707F102034FF4BE701946FAF736F83F
:10C3B0007B8803F001039BB2002B03D0FB6F43F09B
:10C3C0000303FB677B8803F002039BB2002B03D0BF
:10C3D000FB6F43F01803FB677B8803F004039BB2F9
:10C3E000002B03D0FB6F43F0C003FB677B8803F097
:10C3F00008039BB2002B03D0FB6F43F4C063FB67C1
:10C400007B8803F010039BB2002B03D0FB6F43F437
:10C410004053FB677B8803F020039BB2002B03D0C3
:10C42000FB6F43F4C033FB6740F22413C1F6FF7384
:10C430001B68FA6F9A420FD04FF0AC03FB6608E01E
:10C44000F86E4FF6FF71F9F7C1FFFB6E03F10103C0
:10C45000FB66FB6EE12BF3DD40F22413C1F6FF73A4
:10C46000FA6F1A60FB6F002B07D14FF47A7009F056
:10C47000B5FB4FF0000302F0ABB9FEF7DBFA4FF06B
:10C48000020005F0C1FA0346002B0FD14FF0030064
:10C4900005F0D2FA05F0A0FA024649F2CC63C1F6E3
:10C4A000FF731A604FF0030005F086FAFEF7D8FA22
:10C4B00007F1020340F279101946F9F7AFFF7B88C4
:10C4C000002B46D07A884FF6FF739A4241D007F18D
:10C4D000020340F289101946F9F7A0FF7B88022B6E
:10C4E00017D140F289104FF00001F9F76FFF4FF0BC
:10C4F00002037B807B884FF4C5701946F9F766FF0D
:10C5000040F21003C1F6FF734FF00002CBF68072C9
:10C510001A607B88022B02D07B88012B19D1D7F8B7
:10C5200080204CF6CD43CCF6CC43A3FB02134FEA5C
:10C53000D30341F2707202FB03F3BB6548F6A843D4
:10C54000C7F229237B657B6D1846396EBA6D13F0EF
:10C55000AFFFFEF76FFA4FF0030005F055FA034600
:10C56000002B1ED149F2CC63C1F6FF731B6803F1A7
:10C570005C03386E48F2A061C0F201011A4605F072
:10C580006FFAC7F88400D7F88430002B09D049F23D
:10C59000CC63C1F6FF731B68D7F884201A6105F0DD
:10C5A000EFF9FEF75DFAFB6A1A46D7F880104CF6F1
:10C5B000CD43CCF6CC43A3FB01034FEAD3034FF4A6
:10C5C000FA7101FB03F3386E11461A46F7F73EFF86
:10C5D000FEF730FA4FF0030005F016FA0346002B81
:10C5E0001ED149F2CC63C1F6FF731B6803F5C33358
:10C5F00003F1FC03386E4FF400411A4605F030FA9F
:10C60000C7F88400D7F88430002B09D049F2CC63F6
:10C61000C1F6FF731B68D7F884201A6105F0B0F9E2
:10C62000FEF71EFA07F1280303F1100340F22B1066
:10C630001946FAF703FAFB6B184612F035F9024671
:10C640000B46104619464FF000024FF48043C4F2E7
:10C650008F0312F07DF902460B46104619464FF043
:10C6600000024FF0804312F09DFA02460B4614463A
:10C670001D46BB6B184612F017F902460B462046C2
:10C68000294612F08FFA02460B464FF000004FF693
:10C69000E071C4F2DF0112F085FA02460B46104643
:10C6A000194612F017FC03463B654FF00003BB67C9
:10C6B0004FF6FF737B674FF000033B673B6FFB66F2
:10C6C00028E03B6F4FEA43033A6ED3181B88A7F864
:10C6D0004E30BA6A3B6F4FEA8303D318B7F84E2047
:10C6E00007EE102AF8EE477AC3ED007AB7F84E202D
:10C6F000BB6F9A4202D9B7F84E30BB67B7F84E20ED
:10C700007B6F9A4202D2B7F84E307B673B6F03F1E2
:10C7100001033B67FA6A3B6F9A42D2DC7B6F4FEAB8
:10C72000530307EE103AF8EE477AC7ED127ABB6F63
:10C730004FEA530307EE103AF8EE477AC7ED107A46
:10C740004FF000033B673B6FFB661DE0BA6A3B6F2F
:10C750004FEA8303D318B96A3A6F4FEA82028A1804
:10C7600092ED007AD7ED127A37EE677AD7ED107A2C
:10C7700037EE677AD7ED147AC7EE277AC3ED007AE1
:10C780003B6F03F101033B67FA6A3B6F9A42DDDCC2
:10C79000FEF750F94FF0030005F036F90346002B81
:10C7A00040D1BA6A49F2CC63C1F6FF731B6803F546
:10C7B000013303F53F7310464FF480311A4605F0FC
:10C7C0004FF9C7F88400D7F88430002B09D049F21C
:10C7D000CC63C1F6FF731B68D7F884201A6105F09B
:10C7E000CFF849F2CC63C1F6FF731B6803F5102341
:10C7F00003F2147307F1280210464FF018011A468D
:10C8000005F02EF9C7F88400D7F88430002B09D042
:10C8100049F2CC63C1F6FF731B68D7F884201A6114
:10C8200005F0AEF8FEF71CF9FEF704F9FB6F03F014
:10C830000203002B07D049F25063C1F6FF734FF09B
:10C840000102DA6506E049F25063C1F6FF734FF06A
:10C850000002DA65FB6F03F00103002B08D007F13B
:10C86000280207F1040310461946FEF7ADF906E069
:10C870004FF000037B627B6A3B613B697B60FEF7A4
:10C88000EFF87A6840F2DC03C1F6FF731A603A6988
:10C8900040F2DC03C1F6FF73DA607A6A40F2DC032F
:10C8A000C1F6FF739A61FEF7C5F84FF0030005F07B
:10C8B000ABF80346002B4FD149F2CC63C1F6FF73AE
:10C8C0001B6803F5102303F5EA6307F128021046FD
:10C8D0004FF018011A4605F0C3F8C7F88400D7F8DE
:10C8E0008430002B09D049F2CC63C1F6FF731B687A
:10C8F000D7F884201A6105F043F849F2CC63C1F6F9
:10C90000FF731B6803F5102303F5ED6307F10402C1
:10C9100010464FF024011A4605F0A2F8C7F884002B
:10C92000D7F88430002B09D049F2CC63C1F6FF73ED
:10C930001B68D7F884201A6105F022F849F2CC630D
:10C94000C1F6FF731B68BA6C5A6449F2CC63C1F636
:10C95000FF731B683A6C9A6405F022F80346032BB8
:10C9600030D149F2CC63C1F6FF731A684FF44173BA
:10C97000C0F20213536049F2CC63C1F6FF731C6826
:10C9800005F036F80346A36049F2CC63C1F6FF73A5
:10C990001B683A6E5A6149F2CC63C1F6FF731C689A
:10C9A00049F2CC63C1F6FF731B6803F10403184618
:10C9B0004FF4F161C0F2090111F09EFB03462360C0
:10C9C00004F0C8FFFEF74CF8FB6A4FEA43033A6EE7
:10C9D000D3183B6607F1280303F1100340F22D1032
:10C9E0001946FAF72BF8FB6B184611F05DFF02466B
:10C9F0000B46104619464FF000024FF48043C4F234
:10CA00008F0311F0A5FF02460B46104619464FF062
:10CA100000024FF0804312F0C5F802460B46144660
:10CA20001D46BB6B184611F03FFF02460B462046E1
:10CA3000294612F0B7F802460B464FF000004FF6B9
:10CA4000E071C4F2DF0112F0ADF802460B46104669
:10CA5000194612F03FFA03463B654FF00003BB67EF
:10CA60004FF6FF737B674FF000033B673B6FFB663E
:10CA700028E03B6F4FEA43033A6ED3181B88A7F8B0
:10CA80004E30BA6A3B6F4FEA8303D318B7F84E2093
:10CA900007EE102AF8EE477AC3ED007AB7F84E2079
:10CAA000BB6F9A4202D9B7F84E30BB67B7F84E2039
:10CAB0007B6F9A4202D2B7F84E307B673B6F03F12F
:10CAC00001033B67FA6A3B6F9A42D2DC7B6F4FEA05
:10CAD000530307EE103AF8EE477AC7ED127ABB6FB0
:10CAE0004FEA530307EE103AF8EE477AC7ED107A93
:10CAF0004FF000033B673B6FFB661DE0BA6A3B6F7C
:10CB00004FEA8303D318B96A3A6F4FEA82028A1850
:10CB100092ED007AD7ED127A37EE677AD7ED107A78
:10CB200037EE677AD7ED147AC7EE277AC3ED007A2D
:10CB30003B6F03F101033B67FA6A3B6F9A42DDDC0E
:10CB4000FDF778FFFB6F03F01003002B07D049F2CD
:10CB50005063C1F6FF734FF00102DA6506E049F257
:10CB60005063C1F6FF734FF00002DA65FB6F03F00C
:10CB70000803002B08D007F1280207F10403104630
:10CB80001946FEF721F806E04FF000037B627B6A4E
:10CB90003B613B697B60FDF763FF7A6840F2DC0331
:10CBA000C1F6FF735A603A6940F2DC03C1F6FF73C5
:10CBB0001A617A6A40F2DC03C1F6FF73DA61FB6A3C
:10CBC0004FEA43033A6ED3183B6607F1280303F19B
:10CBD000100340F22F101946F9F730FFFB6B18468F
:10CBE00011F062FE02460B46104619464FF0000255
:10CBF0004FF48043C4F28F0311F0AAFE02460B46A5
:10CC0000104619464FF000024FF0804311F0CAFF62
:10CC100002460B4614461D46BB6B184611F044FEF7
:10CC200002460B462046294611F0BCFF02460B4641
:10CC30004FF000004FF6E071C4F2DF0111F0B2FFD7
:10CC400002460B461046194612F044F903463B656E
:10CC50004FF00003BB674FF6FF737B674FF0000395
:10CC60003B673B6FFB6628E03B6F4FEA43033A6E3E
:10CC7000D3181B88A7F84E30BA6A3B6F4FEA83037C
:10CC8000D318B7F84E2007EE102AF8EE477AC3ED16
:10CC9000007AB7F84E20BB6F9A4202D9B7F84E30EF
:10CCA000BB67B7F84E207B6F9A4202D2B7F84E307E
:10CCB0007B673B6F03F101033B67FA6A3B6F9A4264
:10CCC000D2DC7B6F4FEA530307EE103AF8EE477A57
:10CCD000C7ED127ABB6F4FEA530307EE103AF8EE36
:10CCE000477AC7ED107A4FF000033B673B6FFB6656
:10CCF0001DE0BA6A3B6F4FEA8303D318B96A3A6FF3
:10CD00004FEA82028A1892ED007AD7ED127A37EE56
:10CD1000677AD7ED107A37EE677AD7ED147AC7EED7
:10CD2000277AC3ED007A3B6F03F101033B67FA6A90
:10CD30003B6F9A42DDDCFDF77DFEFB6F03F0800365
:10CD4000002B07D049F25063C1F6FF734FF0010288
:10CD5000DA6506E049F25063C1F6FF734FF0000256
:10CD6000DA65FB6F03F04003002B08D007F12802BF
:10CD700007F1040310461946FDF726FF06E04FF0C1
:10CD800000037B627B6A3B613B697B60FDF768FE69
:10CD90007A6840F2DC03C1F6FF739A603A6940F2A8
:10CDA000DC03C1F6FF735A617A6A40F2DC03C1F614
:10CDB000FF731A62D7F880204CF6CD43CCF6CC43F3
:10CDC000A3FB02034FEAD30340F6B83202FB03F39E
:10CDD000FA6DD3183B664FF00200FEF73DFF0346A5
:10CDE000FB62FB6A1A46D7F8801044F6D353C1F2AF
:10CDF0006203A3FB01034FEA9313B2FBF3F33B631C
:10CE0000FB6A1A46D7F880104CF6CD43CCF6CC43DB
:10CE1000A3FB01034FEAD3034FF4FA7101FB03F3C1
:10CE2000386E11461A46F7F711FB07F1280303F194
:10CE3000100340F231101946F9F700FEFB6B18465B
:10CE400011F032FD02460B46104619464FF0000223
:10CE50004FF48043C4F28F0311F07AFD02460B4673
:10CE6000104619464FF000024FF0804311F09AFE31
:10CE700002460B4614461D46BB6B184611F014FDC6
:10CE800002460B462046294611F08CFE02460B4610
:10CE90004FF000004FF6E071C4F2DF0111F082FEA6
:10CEA00002460B461046194612F014F803463B653D
:10CEB0004FF00003BB674FF6FF737B674FF0000333
:10CEC0003B673B6FFB6628E03B6F4FEA43033A6EDC
:10CED000D3181B88A7F84E30BA6A3B6F4FEA83031A
:10CEE000D318B7F84E2007EE102AF8EE477AC3EDB4
:10CEF000007AB7F84E20BB6F9A4202D9B7F84E308D
:10CF0000BB67B7F84E207B6F9A4202D2B7F84E301B
:10CF10007B673B6F03F101033B67FA6A3B6F9A4201
:10CF2000D2DC7B6F4FEA530307EE103AF8EE477AF4
:10CF3000C7ED127ABB6F4FEA530307EE103AF8EED3
:10CF4000477AC7ED107A4FF000033B673B6FFB66F3
:10CF50001DE0BA6A3B6F4FEA8303D318B96A3A6F90
:10CF60004FEA82028A1892ED007AD7ED127A37EEF4
:10CF7000677AD7ED107A37EE677AD7ED147AC7EE75
:10CF8000277AC3ED007A3B6F03F101033B67FA6A2E
:10CF90003B6F9A42DDDCFDF74DFDFB6F03F48063D0
:10CFA000002B07D049F25063C1F6FF734FF0010226
:10CFB000DA6506E049F25063C1F6FF734FF00002F4
:10CFC000DA65FB6F03F40073002B08D007F1280229
:10CFD00007F1040310461946FDF7F6FD06E04FF091
:10CFE00000037B627B6A3B613B697B60FDF738FD38
:10CFF0007A6840F20013C1F6FF731A603A6940F292
:10D000000013C1F6FF73DA607A6A40F20013C1F6CA
:10D01000FF739A61FB6A4FEA43033A6ED3183B668B
:10D0200007F1280303F1100340F233101946F9F712
:10D0300005FDFB6B184611F037FC02460B46104607
:10D0400019464FF000024FF48043C4F28F0311F0F1
:10D050007FFC02460B46104619464FF000024FF087
:10D06000804311F09FFD02460B4614461D46BB6BE4
:10D07000184611F019FC02460B462046294611F0CD
:10D0800091FD02460B464FF000004FF6E071C4F2EE
:10D09000DF0111F087FD02460B461046194611F0DC
:10D0A00019FF03463B654FF00003BB674FF6FF7364
:10D0B0007B674FF000033B673B6FFB6628E03B6FED
:10D0C0004FEA43033A6ED3181B88A7F84E30BA6A6A
:10D0D0003B6F4FEA8303D318B7F84E2007EE102AB0
:10D0E000F8EE477AC3ED007AB7F84E20BB6F9A424C
:10D0F00002D9B7F84E30BB67B7F84E207B6F9A4223
:10D1000002D2B7F84E307B673B6F03F101033B67F8
:10D11000FA6A3B6F9A42D2DC7B6F4FEA530307EE09
:10D12000103AF8EE477AC7ED127ABB6F4FEA530315
:10D1300007EE103AF8EE477AC7ED107A4FF0000389
:10D140003B673B6FFB661DE0BA6A3B6F4FEA8303A8
:10D15000D318B96A3A6F4FEA82028A1892ED007AC0
:10D16000D7ED127A37EE677AD7ED107A37EE677A15
:10D17000D7ED147AC7EE277AC3ED007A3B6F03F13F
:10D1800001033B67FA6A3B6F9A42DDDCFDF752FC14
:10D19000FB6F03F40053002B07D049F25063C1F634
:10D1A000FF734FF00102DA6506E049F25063C1F601
:10D1B000FF734FF00002DA65FB6F03F48053002B1E
:10D1C00008D007F1280207F1040310461946FDF7BD
:10D1D000FBFC06E04FF000037B627B6A3B613B692E
:10D1E0007B60FDF73DFC7A6840F20013C1F6FF73E7
:10D1F0005A603A6940F20013C1F6FF731A617A6A05
:10D2000040F20013C1F6FF73DA61FB6A4FEA430391
:10D210003A6ED3183B6607F1280303F1100340F27E
:10D2200035101946F9F70AFCC7F88400D7F884309E
:10D23000002B03D0D7F8843001F0CABAFB6B184634
:10D2400011F032FB02460B46104619464FF0000221
:10D250004FF48043C4F28F0311F07AFB02460B4671
:10D26000104619464FF000024FF0804311F09AFC2F
:10D2700002460B4614461D46BB6B184611F014FBC4
:10D2800002460B462046294611F08CFC02460B460E
:10D290004FF000004FF6E071C4F2DF0111F082FCA4
:10D2A00002460B461046194611F014FE03463B6534
:10D2B0004FF00003BB674FF6FF737B674FF000032F
:10D2C0003B673B6FFB6628E03B6F4FEA43033A6ED8
:10D2D000D3181B88A7F84E30BA6A3B6F4FEA830316
:10D2E000D318B7F84E2007EE102AF8EE477AC3EDB0
:10D2F000007AB7F84E20BB6F9A4202D9B7F84E3089
:10D30000BB67B7F84E207B6F9A4202D2B7F84E3017
:10D310007B673B6F03F101033B67FA6A3B6F9A42FD
:10D32000D2DC7B6F4FEA530307EE103AF8EE477AF0
:10D33000C7ED127ABB6F4FEA530307EE103AF8EECF
:10D34000477AC7ED107A4FF000033B673B6FFB66EF
:10D350001DE0BA6A3B6F4FEA8303D318B96A3A6F8C
:10D360004FEA82028A1892ED007AD7ED127A37EEF0
:10D37000677AD7ED107A37EE677AD7ED147AC7EE71
:10D38000277AC3ED007A3B6F03F101033B67FA6A2A
:10D390003B6F9A42DDDCFDF74DFBFB6F03F48033FE
:10D3A000002B07D049F25063C1F6FF734FF0010222
:10D3B000DA6506E049F25063C1F6FF734FF00002F0
:10D3C000DA65FB6F03F40043002B08D007F1280255
:10D3D00007F1040310461946FDF7F6FB06E04FF08F
:10D3E00000037B627B6A3B613B697B60FDF738FB36
:10D3F0007A6840F20013C1F6FF739A603A6940F20E
:10D400000013C1F6FF735A617A6A40F20013C1F645
:10D41000FF731A62FA6F4BF2DB63C0F20103134031
:10D420004BF2DB62C0F20102934203D1F86FFEF7C8
:10D430006FFCE9E0FB6F03F00103002B0AD040F220
:10D44000DC03C1F6FF731A6840F2B803C1F6FF733C
:10D450001A6016E0FB6F03F40073002B0AD040F251
:10D460000013C1F6FF731A6840F2B803C1F6FF73E8
:10D470001A6006E040F2B803C1F6FF734FF00002F5
:10D480001A60FB6F03F00803002B0AD040F2DC03A4
:10D49000C1F6FF735A6840F2B803C1F6FF735A60D1
:10D4A00016E0FB6F03F48053002B0AD040F2001308
:10D4B000C1F6FF735A6840F2B803C1F6FF735A60B1
:10D4C00006E040F2B803C1F6FF734FF000025A6065
:10D4D000FB6F03F04003002B0AD040F2DC03C1F6DF
:10D4E000FF739A6840F2B803C1F6FF739A6016E0C2
:10D4F000FB6F03F40043002B0AD040F20013C1F687
:10D50000FF739A6840F2B803C1F6FF739A6006E0B1
:10D5100040F2B803C1F6FF734FF000029A60FB6F50
:10D5200003F00203002B0AD040F2DC03C1F6FF73C4
:10D53000DA6840F2B803C1F6FF73DA6016E0FB6FF9
:10D5400003F48063002B0AD040F20013C1F6FF738E
:10D55000DA6840F2B803C1F6FF73DA6006E040F221
:10D56000B803C1F6FF734FF00002DA60FB6F03F0FF
:10D570001003002B0AD040F2DC03C1F6FF731A69D6
:10D5800040F2B803C1F6FF731A6116E0FB6F03F4B3
:10D590000053002B0AD040F20013C1F6FF731A6942
:10D5A00040F2B803C1F6FF731A6106E040F2B80317
:10D5B000C1F6FF734FF000021A61FB6F03F08003A6
:10D5C000002B0AD040F2DC03C1F6FF735A6940F227
:10D5D000B803C1F6FF735A6116E0FB6F03F48033A2
:10D5E000002B0AD040F20013C1F6FF735A6940F2D3
:10D5F000B803C1F6FF735A6106E040F2B803C1F602
:10D60000FF734FF000025A614FF00003BB6640F217
:10D61000B803C1F6FF7393ED007AF3EE0E7AB4EE21
:10D62000E77AF1EE10FA0BDD40F2B803C1F6FF73B2
:10D630004FF00002C4F2F0121A604FF49773BB6609
:10D6400040F2B803C1F6FF73D3ED007AF5EEC07A6D
:10D65000F1EE10FA09D540F2B803C1F6FF734FF0AE
:10D6600000021A604FF49773BB6640F2B803C1F62C
:10D67000FF7393ED017AF3EE0E7AB4EEE77AF1EEF2
:10D6800010FA0BDD40F2B803C1F6FF734FF0000251
:10D69000C4F2F0125A604FF49773BB6640F2B803BD
:10D6A000C1F6FF73D3ED017AF5EEC07AF1EE10FA10
:10D6B00009D540F2B803C1F6FF734FF000025A607B
:10D6C0004FF49773BB6640F2B803C1F6FF7393ED56
:10D6D000027AF3EE0E7AB4EEE77AF1EE10FA0BDD91
:10D6E00040F2B803C1F6FF734FF00002C4F2F0122B
:10D6F0009A604FF49773BB6640F2B803C1F6FF73AC
:10D70000D3ED027AF5EEC07AF1EE10FA09D540F2C7
:10D71000B803C1F6FF734FF000029A604FF497739D
:10D72000BB6640F2B803C1F6FF7393ED037ADFEDF9
:10D73000837AB4EEE77AF1EE10FA0BDD40F2B8032B
:10D74000C1F6FF734FF00002C4F24832DA604FF4C2
:10D750009773BB6640F2B803C1F6FF73D3ED037A4B
:10D76000F5EEC07AF1EE10FA09D540F2B803C1F631
:10D77000FF734FF00002DA604FF49773BB6640F21C
:10D78000B803C1F6FF7393ED047ADFED6C7AB4EE63
:10D79000E77AF1EE10FA0BDD40F2B803C1F6FF7341
:10D7A0004FF00002C4F248321A614FF49773BB661F
:10D7B00040F2B803C1F6FF73D3ED047AF5EEC07AF8
:10D7C000F1EE10FA09D540F2B803C1F6FF734FF03D
:10D7D00000021A614FF49773BB6640F2B803C1F6BA
:10D7E000FF7393ED057ADFED557AB4EEE77AF1EE4B
:10D7F00010FA0BDD40F2B803C1F6FF734FF00002E0
:10D80000C4F248325A614FF49773BB6640F2B803D2
:10D81000C1F6FF73D3ED057AF5EEC07AF1EE10FA9A
:10D8200009D540F2B803C1F6FF734FF000025A6108
:10D830004FF49773BB6648F6A033C7F227237B6487
:10D840004FF00003FB6609E0FB6E7A6CD318FA6EAA
:10D85000D2B21A70FB6E03F10103FB66FA6E4FF051
:10D860000703C0F202039A42EED94FF00003FB66B1
:10D8700022E0FB6EDAB2FB6E796CCB181B789A4211
:10D8800016D04FF49873BB6605F0C0F807F1020399
:10D890004FF00C001946F8F7C1FD7B8803F1010336
:10D8A0009BB27B807B884FF00C001946F8F78EFD09
:10D8B000FB6E03F10103FB66FA6E4FF00703C0F243
:10D8C00002039A42D5D9BB6E002B07D140F2281330
:10D8D000C1F6FF734FF000021A6044E007F1020343
:10D8E00040F229101946F8F799FD7B8803F10103EE
:10D8F0009BB27B807B8840F229101946F8F766FDC1
:10D9000040F22813C1F6FF731B6803F1010240F2D5
:10D910002813C1F6FF731A6040F22813C1F6FF7393
:10D920001B680A2B18D1BB6EB3F5987F08D14FF056
:10D9300032004FF00301FEF759F907E000004843B9
:10D940004FF032004FF00201FEF750F94FF0640043
:10D9500008F044F9F6F75AFD40F21403C1F6FF73DC
:10D960004FF000021A6040F21403C1F6FF731B6807
:10D97000012B40F3128307F102034FF4C5701946DF
:10D98000F8F74CFD7B88022B03D07B88012B40F0FD
:10D99000048307F140034FF4BD701946F9F74EF8C0
:10D9A00040F21003C1F6FF731A6840F21803C1F683
:10D9B000FF731A6007F1020340F279101946F8F775
:10D9C0002DFD7B8823F480739BB27B807B880A2BA0
:10D9D0007AD140F2B803C1F6FF7393ED037AD7ED25
:10D9E000107AB4EEE77AF1EE10FA1ADD40F2B803DD
:10D9F000C1F6FF7393ED037A40F21003C1F6FF7393
:10DA0000D3ED007AB4EEE77AF1EE10FA09DD40F2D8
:10DA1000B803C1F6FF73DA6840F21003C1F6FF7372
:10DA20001A6040F2B803C1F6FF7393ED047AD7EDA4
:10DA3000107AB4EEE77AF1EE10FA1ADD40F2B8038C
:10DA4000C1F6FF7393ED047A40F21003C1F6FF7341
:10DA5000D3ED007AB4EEE77AF1EE10FA09DD40F288
:10DA6000B803C1F6FF731A6940F21003C1F6FF73E1
:10DA70001A6040F2B803C1F6FF7393ED057AD7ED53
:10DA8000107AB4EEE77AF1EE10FA40F3A88140F292
:10DA9000B803C1F6FF7393ED057A40F21003C1F6A7
:10DAA000FF73D3ED007AB4EEE77AF1EE10FA40F3AB
:10DAB000968140F2B803C1F6FF735A6940F2100331
:10DAC000C1F6FF731A608AE17B88152B2AD140F2D8
:10DAD000B803C1F6FF7393ED037AD7ED107AB4EE75
:10DAE000E77AF1EE10FA40F37A8140F2B803C1F61A
:10DAF000FF7393ED037A40F21003C1F6FF73D3ED89
:10DB0000007AB4EEE77AF1EE10FA40F3688140F261
:10DB1000B803C1F6FF73DA6840F21003C1F6FF7371
:10DB20001A605CE17B88162B2AD140F2B803C1F65B
:10DB3000FF7393ED047AD7ED107AB4EEE77AF1EE45
:10DB400010FA40F34C8140F2B803C1F6FF7393ED35
:10DB5000047A40F21003C1F6FF73D3ED007AB4EEFD
:10DB6000E77AF1EE10FA40F33A8140F2B803C1F6D9
:10DB7000FF731A6940F21003C1F6FF731A602EE1B9
:10DB80007B88172B2AD140F2B803C1F6FF7393EDBF
:10DB9000057AD7ED107AB4EEE77AF1EE10FA40F399
:10DBA0001E8140F2B803C1F6FF7393ED057A40F28F
:10DBB0001003C1F6FF73D3ED007AB4EEE77AF1EE0D
:10DBC00010FA40F30C8140F2B803C1F6FF735A69B2
:10DBD00040F21003C1F6FF731A6000E17B88142B3A
:10DBE0007AD140F2B803C1F6FF7393ED007AD7ED16
:10DBF000107AB4EEE77AF1EE10FA1ADD40F2B803CB
:10DC0000C1F6FF7393ED007A40F21003C1F6FF7383
:10DC1000D3ED007AB4EEE77AF1EE10FA09DD40F2C6
:10DC2000B803C1F6FF731A6840F21003C1F6FF7320
:10DC30001A6040F2B803C1F6FF7393ED017AD7ED95
:10DC4000107AB4EEE77AF1EE10FA1ADD40F2B8037A
:10DC5000C1F6FF7393ED017A40F21003C1F6FF7332
:10DC6000D3ED007AB4EEE77AF1EE10FA09DD40F276
:10DC7000B803C1F6FF735A6840F21003C1F6FF7390
:10DC80001A6040F2B803C1F6FF7393ED027AD7ED44
:10DC9000107AB4EEE77AF1EE10FA40F3A08040F289
:10DCA000B803C1F6FF7393ED027A40F21003C1F698
:10DCB000FF73D3ED007AB4EEE77AF1EE10FA40F399
:10DCC0008E8040F2B803C1F6FF739A6840F21003E9
:10DCD000C1F6FF731A6082E07B88152B28D140F2D1
:10DCE000B803C1F6FF7393ED007AD7ED107AB4EE66
:10DCF000E77AF1EE10FA72DD40F2B803C1F6FF7375
:10DD000093ED007A40F21003C1F6FF73D3ED007A71
:10DD1000B4EEE77AF1EE10FA61DD40F2B803C1F635
:10DD2000FF731A6840F21003C1F6FF731A6056E0E1
:10DD30007B88162B28D140F2B803C1F6FF7393ED10
:10DD4000017AD7ED107AB4EEE77AF1EE10FA46DDFB
:10DD500040F2B803C1F6FF7393ED017A40F210036D
:10DD6000C1F6FF73D3ED007AB4EEE77AF1EE10FA64
:10DD700035DD40F2B803C1F6FF735A6840F2100374
:10DD8000C1F6FF731A602AE07B88172B27D140F277
:10DD9000B803C1F6FF7393ED027AD7ED107AB4EEB3
:10DDA000E77AF1EE10FA1ADD40F2B803C1F6FF731C
:10DDB00093ED027A40F21003C1F6FF73D3ED007ABF
:10DDC000B4EEE77AF1EE10FA09DD40F2B803C1F6DD
:10DDD000FF739A6840F21003C1F6FF731A6040F2B5
:10DDE0001803C1F6FF7393ED007A40F21003C1F6F9
:10DDF000FF73D3ED007AB4EEE77AF1EE10FA6AD54C
:10DE0000D7F880204CF6CD43CCF6CC43A3FB0203DD
:10DE10004FEAD30341F2707202FB03F3BB6548F68D
:10DE2000A843C7F229237B65BB6D03F580734EF2CF
:10DE3000E800C7F2B22048F6A831C7F229211A46F5
:10DE400012F036FB4EF2E800C7F2B2204FF0FF01AD
:10DE50004FF4807212F035FB7A6E40F20123C0F26B
:10DE6000034313607B6E4FF000025A607B6EBA6D05
:10DE70009A607B6ED7F88020DA607B6E4FF00602E6
:10DE80001A6140F21803C1F6FF731A687B6E9A613B
:10DE900040F21003C1F6FF731A687B6EDA617A6D87
:10DEA0007B6E9B681046194610F026F903461A4609
:10DEB0007B6E5A617B6E18464FF0FC0110F01CF926
:10DEC00003461A467B6EC3F8FC204FF4C5704FF032
:10DED0000101F8F77BFA07F102034FF4C570194608
:10DEE000F8F79CFA7B88012B57D107F1020340F227
:10DEF00089101946F8F792FA7B88012B0ED007F1AA
:10DF0000020340F279101946F8F788FA7B8803F487
:10DF10008073002B02D04FF001037B807B88012BA4
:10DF20003BD17B6E9B6803F5807249F20013C1F60A
:10DF3000FF73DA6449F20013C1F6FF734EF2E80290
:10DF4000C7F2B2225A6549F20013C1F6FF73DB6CC7
:10DF50009BB24FF025001946F8F738FA49F2001342
:10DF6000C1F6FF73DB6C4FEA13439BB24FF0240002
:10DF70001946F8F72BFA40F289104FF00001F8F734
:10DF800025FA4FF4C5704FF00401F8F71FFA4FF06F
:10DF900022004FF00101F8F719FAF8F7C9F940F239
:10DFA0001403C1F6FF731B68012B40F3B0834FF0DD
:10DFB000AC0040F2B801C1F6FF71F8F7DFFD4FF099
:10DFC000BE0040F2DC01C1F6FF71F8F7D7FD4FF05B
:10DFD000D00040F20011C1F6FF71F8F7CFFD4FF00D
:10DFE0000003FB6630E0FB6E03F1B80349F2001258
:10DFF000C1F6FF7203F1F4034FEA4303D3184FF65F
:10E00000FF729A80FB6E03F1CA0349F20012C1F657
:10E01000FF7203F1F4034FEA4303D3184FF6FF7284
:10E020009A80FB6E03F1DC0349F20012C1F6FF7225
:10E0300003F1F4034FEA4303D3184FF6FF729A80BB
:10E04000FB6E03F10103FB66FB6E052BCBDDFB6F63
:10E0500003F00103002B0FD149F20013C1F6FF7347
:10E060004FF6FF72A3F8682349F20013C1F6FF735D
:10E070004FF6FF72A3F86A23FB6F03F00803002B2F
:10E080000FD149F20013C1F6FF734FF6FF72A3F8E8
:10E090006C2349F20013C1F6FF734FF6FF72A3F829
:10E0A0006E23FB6F03F04003002B0FD149F20013E6
:10E0B000C1F6FF734FF6FF72A3F8702349F2001305
:10E0C000C1F6FF734FF6FF72A3F87223FB6F03F0E4
:10E0D0000203002B0FD149F20013C1F6FF734FF674
:10E0E000FF72A3F8742349F20013C1F6FF734FF6D1
:10E0F000FF72A3F87623FB6F03F01003002B0FD100
:10E1000049F20013C1F6FF734FF6FF72A3F87823AC
:10E1100049F20013C1F6FF734FF6FF72A3F87A239A
:10E12000FB6F03F08003002B0FD149F20013C1F6FF
:10E13000FF734FF6FF72A3F87C2349F20013C1F678
:10E14000FF734FF6FF72A3F87E23FB6F03F4007397
:10E15000002B0FD149F20013C1F6FF734FF6FF7287
:10E16000A3F88C2349F20013C1F6FF734FF6FF7238
:10E17000A3F88E23FB6F03F48053002B0FD149F2D9
:10E180000013C1F6FF734FF6FF72A3F8902349F214
:10E190000013C1F6FF734FF6FF72A3F89223FB6FD3
:10E1A00003F40043002B0FD149F20013C1F6FF73B3
:10E1B0004FF6FF72A3F8942349F20013C1F6FF73E0
:10E1C0004FF6FF72A3F89623FB6F03F48063002BD6
:10E1D0000FD149F20013C1F6FF734FF6FF72A3F897
:10E1E000982349F20013C1F6FF734FF6FF72A3F8AC
:10E1F0009A23FB6F03F40053002B0FD149F2001355
:10E20000C1F6FF734FF6FF72A3F89C2349F2001387
:10E21000C1F6FF734FF6FF72A3F89E23FB6F03F462
:10E220008033002B0FD149F20013C1F6FF734FF674
:10E23000FF72A3F8A02349F20013C1F6FF734FF653
:10E24000FF72A3F8A223FB6F03F00103002B14D18C
:10E25000FB6F03F40073002B0FD149F20013C1F6DA
:10E26000FF734FF6FF72A3F8442349F20013C1F67F
:10E27000FF734FF6FF72A3F84623FB6F03F008030A
:10E28000002B14D1FB6F03F48053002B0FD149F204
:10E290000013C1F6FF734FF6FF72A3F8482349F24B
:10E2A0000013C1F6FF734FF6FF72A3F84A23FB6F0A
:10E2B00003F04003002B14D1FB6F03F40043002B49
:10E2C0000FD149F20013C1F6FF734FF6FF72A3F8A6
:10E2D0004C2349F20013C1F6FF734FF6FF72A3F807
:10E2E0004E23FB6F03F00203002B14D1FB6F03F4EA
:10E2F0008063002B0FD149F20013C1F6FF734FF674
:10E30000FF72A3F8502349F20013C1F6FF734FF6D2
:10E31000FF72A3F85223FB6F03F01003002B14D1FC
:10E32000FB6F03F40053002B0FD149F20013C1F629
:10E33000FF734FF6FF72A3F8542349F20013C1F69E
:10E34000FF734FF6FF72A3F85623FB6F03F08003B1
:10E35000002B14D1FB6F03F48033002B0FD149F253
:10E360000013C1F6FF734FF6FF72A3F8582349F26A
:10E370000013C1F6FF734FF6FF72A3F85A234FF054
:10E380000003FB6627E0FB6E03F1B80249F20013BD
:10E39000C1F6FF739B184FF0030283F86020FB6EF9
:10E3A00003F1CA0249F20013C1F6FF739B184FF044
:10E3B000030283F86020FB6E03F1DC0249F20013D4
:10E3C000C1F6FF739B184FF0030283F86020FB6EC9
:10E3D00003F10103FB66FB6E052BD4DDFB6F03F03D
:10E3E0000103002B0FD149F20013C1F6FF734FF068
:10E3F000030283F81E2149F20013C1F6FF734FF0A8
:10E40000030283F81F21FB6F03F00803002B0FD1D9
:10E4100049F20013C1F6FF734FF0030283F8202185
:10E4200049F20013C1F6FF734FF0030283F8212174
:10E43000FB6F03F04003002B0FD149F20013C1F62C
:10E44000FF734FF0030283F8222149F20013C1F653
:10E45000FF734FF0030283F82321FB6F03F00203E5
:10E46000002B0FD149F20013C1F6FF734FF00302E6
:10E4700083F8242149F20013C1F6FF734FF0030221
:10E4800083F82521FB6F03F01003002B0FD149F215
:10E490000013C1F6FF734FF0030283F8262149F2FF
:10E4A0000013C1F6FF734FF0030283F82721FB6FBF
:10E4B00003F08003002B0FD149F20013C1F6FF7364
:10E4C0004FF0030283F8282149F20013C1F6FF73CD
:10E4D0004FF0030283F82921FB6F03F40073002B34
:10E4E0000FD149F20013C1F6FF734FF0030283F816
:10E4F000302149F20013C1F6FF734FF0030283F895
:10E500003121FB6F03F48053002B0FD149F200132C
:10E51000C1F6FF734FF0030283F8322149F2001372
:10E52000C1F6FF734FF0030283F83321FB6F03F44E
:10E530000043002B0FD149F20013C1F6FF734FF0D7
:10E54000030283F8342149F20013C1F6FF734FF040
:10E55000030283F83521FB6F03F48063002B0FD196
:10E5600049F20013C1F6FF734FF0030283F836211E
:10E5700049F20013C1F6FF734FF0030283F837210D
:10E58000FB6F03F40053002B0FD149F20013C1F6C7
:10E59000FF734FF0030283F8382149F20013C1F6EC
:10E5A000FF734FF0030283F83921FB6F03F48033CC
:10E5B000002B0FD149F20013C1F6FF734FF0030295
:10E5C00083F83A2149F20013C1F6FF734FF00302BA
:10E5D00083F83B21FB6F03F00103002B14D1FB6F89
:10E5E00003F40073002B0FD149F20013C1F6FF733F
:10E5F0004FF0030283F80C2149F20013C1F6FF73B8
:10E600004FF0030283F80D21FB6F03F00803002B8A
:10E6100014D1FB6F03F48053002B0FD149F2001388
:10E62000C1F6FF734FF0030283F80E2149F2001385
:10E63000C1F6FF734FF0030283F80F21FB6F03F065
:10E640004003002B14D1FB6F03F40043002B0FD1C8
:10E6500049F20013C1F6FF734FF0030283F8102153
:10E6600049F20013C1F6FF734FF0030283F8112142
:10E67000FB6F03F00203002B14D1FB6F03F48063E4
:10E68000002B0FD149F20013C1F6FF734FF00302C4
:10E6900083F8122149F20013C1F6FF734FF0030211
:10E6A00083F81321FB6F03F01003002B14D1FB6FD1
:10E6B00003F40053002B0FD149F20013C1F6FF738E
:10E6C0004FF0030283F8142149F20013C1F6FF73DF
:10E6D0004FF0030283F81521FB6F03F08003002B3A
:10E6E00021D1FB6F03F48033002B1CD149F20013BE
:10E6F000C1F6FF734FF0030283F8162149F20013AD
:10E70000C1F6FF734FF0030283F817210BE040F2CC
:10E710001403C1F6FF731B6803F1010240F21403F6
:10E72000C1F6FF731A60F7F719FE49F25063C1F69C
:10E73000FF739A6949F25063C1F6FF73DA6149F2D7
:10E740005063C1F6FF734FF000029A6149F25063C3
:10E75000C1F6FF734FF000021A624FF00500FBF79D
:10E760001DF8C7F88400D7F88430002B05D14FF08E
:10E770000600FBF713F8C7F88400D7F88430002BA5
:10E7800016D049F25063C1F6FF734FF0020283F8CE
:10E7900046204FF004004FF00201F8F7D3F8D7F805
:10E7A00084309BB24FF00D001946F7F70FFE0DE0D5
:10E7B00049F25063C1F6FF734FF0010283F846201F
:10E7C0004FF004004FF00201F8F7E8F8D7F8843072
:10E7D000184607F18807BD46B0BD00BF80B582B0BE
:10E7E00000AF07F106034FF4BC701946F7F716FEA9
:10E7F000FA884FF6FF739A4208D14FF00F03FB805F
:10E80000FB884FF4BC701946F7F7E0FDFB8818460B
:10E8100007F10807BD4680BD80B582B000AF07F1A3
:10E82000060340F277101946F7F7F8FDFA884FF61D
:10E83000FF739A4208D144F62063FB80FB8840F2C4
:10E8400077101946F7F7C2FDFB88184607F108074D
:10E85000BD4680BDB0B58CB000AFF860B9607A60DD
:10E86000FB681B8807EE103AF8EE477AC7ED077A87
:10E870007B684FEA4303FA68D3181B8807EE103A07
:10E88000F8EE477AC7ED067A7B684FEA8303FA68A9
:10E89000D3181B8807EE103AF8EE477AC7ED087ACE
:10E8A0004FF00103BB6284E0BB6A4FEA4303FA689E
:10E8B000D3181B8807EE103AF8EE477AC7ED057AB1
:10E8C0007B69FB61BB6A4FEA4303FA68D318D7ED53
:10E8D000077AFCEEE77A17EE902A92B21A80BA6AAB
:10E8E0007B68D3184FEA4303FA68D3181B8807EEF6
:10E8F000103AF8EE477AC7ED057A7B69BB61BA6AD0
:10E900007B68D3184FEA4303FA68D318D7ED067A29
:10E91000FCEEE77A17EE902A92B21A807B684FEAF3
:10E920004302BB6AD3184FEA4303FA68D3181B8823
:10E9300007EE103AF8EE477AC7ED057A386A0FF01D
:10E94000B3FF04460D4697ED057AD7ED087A77EECA
:10E95000677A17EE900A0FF0A7FF02460B461046A3
:10E96000194669A3D3E900230FF0F2FF02460B46D4
:10E97000204629460FF03AFE02460B46104619463D
:10E9800010F0A8FA03463B627B684FEA4302BB6A79
:10E99000D3184FEA4303FA68D318D7ED087AFCEE90
:10E9A000E77A17EE902A92B21A80BB6A03F101034C
:10E9B000BB627A68BB6A9A423FF676AFD7ED017ABE
:10E9C000B8EE677AD7ED027AF8EE677AC7EE277A63
:10E9D000C7ED047A7A68BB689A42C0F08F804FF026
:10E9E0000103FB62D7ED0B7AF8EE677AC7ED097A7F
:10E9F0004FF00003BB6241E0BB6A4FEA4303FA6891
:10EA0000D318FA6A4FEA4202F9688A1812881A8003
:10EA1000BA6A7B68D3184FEA4303FA68D318F96AD5
:10EA20007A688A184FEA4202F9688A1812881A80AE
:10EA30007B684FEA4302BB6AD3184FEA4303FA6884
:10EA4000D3187A684FEA4201FA6A8A184FEA4202FA
:10EA5000F9688A1812881A8097ED097AD7ED047A36
:10EA600077EE277AC7ED097AD7ED097AFCEEE77AD7
:10EA7000C7ED0B7ABB6A03F10103BB62BA6ABB68DC
:10EA80009A42B9D34FF00003BB6213E0BA6ABB6885
:10EA9000D3184FEA4303FA68D318B96A7A688A1818
:10EAA0004FEA4202F9688A1812881A80BB6A03F199
:10EAB0000103BB62BA6ABB689A42E7D34FF0000316
:10EAC000BB6217E0BB684FEA4302BB6AD3184FEA48
:10EAD0004303FA68D3187A684FEA4201BA6A8A187F
:10EAE0004FEA4202F9688A1812881A80BB6A03F159
:10EAF0000103BB62BA6ABB689A42E3D307F13007ED
:10EB0000BD46B0BDAFF3008085EB51B81E85D33F45
:10EB100080B598B000AF07F106034FF00400194626
:10EB2000F7F77CFCFB8803F020039BB2002B02D09C
:10EB30004FF00003ACE307F108034FF4BA70194635
:10EB4000F7F76CFCB863BB6B002B01D0BB6B9FE38A
:10EB50003B891A4613464FEA83039B184FEA430347
:10EB60001A464FF42643C0F20E03B3FBF2F21346EB
:10EB70004FEA83039B184FEA4303FB65FA6D43F6A4
:10EB800098239A4203D943F698233B8102E0FB6D18
:10EB90009BB23B814EF21833C7F212137B633B8961
:10EBA0004FF0050019464FF000027B6BF9F76CFC43
:10EBB000B863BB6B002B01D0BB6B69E349F25063B8
:10EBC000C1F6FF734FF000029A6149F25063C1F63B
:10EBD000FF734FF001021A6207F10C0340F22D108F
:10EBE0001946F7F72BFFB863BB6B002B01D0BB6B4B
:10EBF0004EE307F10A0340F261101946F7F70EFCE5
:10EC0000B863BB6B002B01D0BB6B41E34FF0020339
:10EC10003B634FF00203FB623A894CF6CD43CCF6DE
:10EC2000CC43A3FB02134FEAD3039BB24FF4FA7217
:10EC300002FB03F3BB623B6B4FF4FA7202FB03F27D
:10EC40004CF6CD43CCF6CC43A3FB02134FEAD303DF
:10EC50003B63FB6A4FF4FA7202FB03F24CF6CD43BE
:10EC6000CCF6CC43A3FB02134FEAD303FB6207F1BC
:10EC700014034FF4B8701946F7F7E0FE97ED057AE4
:10EC8000D7ED037A67EE277AC7ED097A97ED097A0F
:10EC9000DFEDB47A27EE277ADFEDB37AC7EE277A75
:10ECA000C7ED097AD7ED097AFCEEE77A17EE903ACC
:10ECB0007B847A8C4CF6CD43CCF6CC43A3FB021379
:10ECC0004FEAD3039BB27A8CD31A3B8407F110032B
:10ECD0004FF4B9701946F7F7B1FE97ED047AD7ED06
:10ECE000037A67EE277AC7ED097A97ED097ADFEDA7
:10ECF0009D7A27EE277ADFED9C7AC7EE277AC7ED5B
:10ED0000097AD7ED097AFCEEE77A17EE903AFB83A1
:10ED1000FA8B4CF6CD43CCF6CC43A3FB02134FEA5F
:10ED2000D3039BB2FA8BD31ABB833A894CF6CD43FB
:10ED3000CCF6CC43A3FB02134FEAD3039BB24FF4B0
:10ED40007A7202FB03F24EF21833C7F21213D31891
:10ED50007B634FF00003A7F84430B7F84430A7F8BE
:10ED600046304FF00003FB654FF6FF73FB874FF013
:10ED70000003BB874FF00003BB644FF00003BB658B
:10ED800035E0BA6C4CF24F339A420CD8BB6D4FEA67
:10ED900043037A6BD3181B88FA6DD318FB65BB6CE1
:10EDA00003F10103BB64BB6D4FEA43037A6BD318D5
:10EDB0001B88FA8F9A4206D9BB6D4FEA43037A6BE0
:10EDC000D3181B88FB87BB6D4FEA43037A6BD318BC
:10EDD0001B88BA8F9A4206D2BB6D4FEA43037A6B07
:10EDE000D3181B88BB87BB6D03F10103BB65BA6AEF
:10EDF000BB6D9A42C5DCBB6C002B05D0BB6CFA6DB9
:10EE0000B2FBF3F3FB6502E047F6FF73FB65FB6DB6
:10EE10009BB27B81FB8F4FF008001946F7F7D6FABB
:10EE20004FF008004FF00101F7F7AAFABB8F4FF03F
:10EE300009001946F7F7CAFA4FF009004FF001012F
:10EE4000F7F79EFA4FF00003BB6581E0BB6D4FEA18
:10EE500043037A6BD3181A887B899A420AD9BB6D0F
:10EE60004FEA43037A6BD3181A887B89D31AA7F821
:10EE7000423009E07A89BB6D4FEA4303796BCB18C6
:10EE80001B88D31AA7F84230B7F842207B8C9A42ED
:10EE90005AD9B7F8463003F10103A7F84630BA6DE6
:10EEA0003B6BD318BB653B6B3B65BA6D3B6DD218B2
:10EEB000BB6A9A4203DDBA6ABB6DD31A3B654FF059
:10EEC0000003FB644FF000037B6530E0BA6D7B6D9F
:10EED000D3184FEA43037A6BD3181A887B899A4276
:10EEE0000CD9BA6D7B6DD3184FEA43037A6BD318F4
:10EEF0001A887B89D31AA7F842300BE07A89B96D5A
:10EF00007B6DCB184FEA4303796BCB181B88D31A60
:10EF1000A7F84230B7F842203B8C9A4203D94FF011
:10EF20000103FB6407E07B6D03F101037B653A6D30
:10EF30007B6D9A42CADCFB6C002BB0D13A6BFB6A4A
:10EF4000D318BA6DD318BB65BB6D03F10103BB6564
:10EF5000BA6ABB6D9A423FF779AF4FF00003BB65C9
:10EF600086E000BF00FF7F4700803B45BB6D4FEA56
:10EF700043037A6BD3181A887B899A420AD9BB6DEE
:10EF80004FEA43037A6BD3181A887B89D31AA7F800
:10EF9000423009E07A89BB6D4FEA4303796BCB18A5
:10EFA0001B88D31AA7F84230B7F84220FB8B9A424D
:10EFB0005AD9B7F8443003F10103A7F84430BA6DC9
:10EFC0003B6BD318BB653B6B3B65BA6D3B6DD21891
:10EFD000BB6A9A4203DDBA6ABB6DD31A3B654FF038
:10EFE0000003FB644FF000037B6530E0BA6D7B6D7E
:10EFF000D3184FEA43037A6BD3181A887B899A4255
:10F000000CD9BA6D7B6DD3184FEA43037A6BD318D2
:10F010001A887B89D31AA7F842300BE07A89B96D38
:10F020007B6DCB184FEA4303796BCB181B88D31A3F
:10F03000A7F84230B7F84220BB8B9A4203D94FF071
:10F040000103FB6407E07B6D03F101037B653A6D0F
:10F050007B6D9A42CADCFB6C002BB0D13A6BFB6A29
:10F06000D318BA6DD318BB65BB6D03F10103BB6543
:10F07000BA6ABB6D9A423FF779AF7B6BBB614FF0C9
:10F080000003BB6509E0BB6DBA69D318BA6DD2B293
:10F090001A70BB6D03F10103BB65BA6D4FF6FF73C8
:10F0A0009A42F0D94FF00003BB652AE0BB6DDAB29B
:10F0B000BB6DB969CB181B789A421ED040F22C1355
:10F0C000C1F6FF734FF000021A604FF48033BB6546
:10F0D00003F09CFC07F106034FF00C001946F7F70C
:10F0E0009DF9FB8803F101039BB2FB80FB884FF085
:10F0F0000C001946F7F76AF908E0BB6D03F101034C
:10F10000BB65BA6D4FF6FF739A42CFD940F22C130C
:10F11000C1F6FF731B68012B40F39580B7F84630AA
:10F120004FF02D001946F7F751F9B7F844304FF07A
:10F130002E001946F7F74AF97B89BA8F9A4204D90B
:10F140007B89BA8FD31ABB8703E07A89BB8FD31A26
:10F15000BB877B89FA8F9A4204D97B89FA8FD31AAD
:10F16000FB8703E07A89FB8FD31AFB87BA8FFB8F6B
:10F170009A4203D9BB8FA7F8403002E0FB8FA7F873
:10F180004030B7F8402013464FEA83039B184FEAFC
:10F19000430307EE103AF8EE477AC7ED097A786A2A
:10F1A0000FF082FB02460B46104619463CA3D3E9FA
:10F1B00000230FF0CDFB02460B46104619463AA33A
:10F1C000D3E900230FF0EEFC02460B461046194629
:10F1D0000FF080FE03467B62D7ED037A97ED097A44
:10F1E000C7EE277AC7ED097AD7ED097AFCEEE77A00
:10F1F00017EE903AA7F84030B7F840304FF02F00A4
:10F200001946F7F7E3F8B7F840304FF030001946E9
:10F21000F7F7DCF84FF02D004FF00101F7F7B0F8E9
:10F220004FF02E004FF00101F7F7AAF84FF02F0032
:10F230004FF00101F7F7A4F84FF030004FF0010153
:10F24000F7F79EF80BE040F22C13C1F6FF731B6832
:10F2500003F1010240F22C13C1F6FF731A6049F268
:10F260005063C1F6FF739A6949F25063C1F6FF73A8
:10F27000DA6149F25063C1F6FF734FF000029A6100
:10F2800049F25063C1F6FF734FF000021A62BB6B84
:10F29000184607F16007BD4680BD00BFAFF3008090
:10F2A000000000000070A74000000000E0FFEF40F9
:10F2B00080B485B000AF78604FF00003FB604AE097
:10F2C00049F2D063C1F6FF73FA684FEA02129B1845
:10F2D00003F108034FF000021A8049F2D063C1F62F
:10F2E000FF73FA684FEA02129B184FF000029A80EF
:10F2F00049F2D063C1F6FF73FA684FEA02129B1815
:10F300004FF00002DA8049F2D063C1F6FF73FA6869
:10F310004FEA02129B1803F108034FF000021A7122
:10F3200049F2D063C1F6FF73FA684FEA02129B18E4
:10F330007A681A6049F2D063C1F6FF73FA684FEA3F
:10F3400002129B1803F108034FF000025A80FB6879
:10F3500003F10103FB60FB68032BB1DD07F1140728
:10F36000BD4680BC704700BF80B584B000AF4FF091
:10F370000003BB604FF00003FB6057E0FB6803F144
:10F38000E20207F1060310461946F7F747F8FB8833
:10F39000002B3AD0FB88042B37D049F2D063C1F65A
:10F3A000FF73FA684FEA02129B1803F108035B88A7
:10F3B00003F101039AB249F2D063C1F6FF73F96811
:10F3C0004FEA01115B1803F108035A8049F2D06338
:10F3D000C1F6FF73FA684FEA02129B1803F10803A3
:10F3E0005B88002B1ED049F2D063C1F6FF73FA6828
:10F3F0004FEA02129B1803F108034FF000025A80F3
:10F40000BB6803F10103BB600CE049F2D063C1F6B5
:10F41000FF73FA684FEA02129B1803F108034FF0DA
:10F4200000025A80FB6803F10103FB60FB68032BB9
:10F43000A4DDBB68184607F11007BD4680BD00BFBC
:10F4400080B483B000AF786049F2D063C1F6FF7337
:10F450007A684FEA02129B1803F108034FF0020288
:10F460001A7107F10C07BD4680BC704780B59CB08F
:10F4700000AF4FF00003FB6607F102034FF00400FA
:10F480001946F6F7CBFF7B8803F020039BB2002BD5
:10F4900041F07B80F6F74CFF07F12C034FF0AC00F6
:10F4A0001946F7F799FBF866F6F758FFFB6E002B45
:10F4B00041F06D8007F1020340F237101946F6F76C
:10F4C000ADFFF866FB6E002B41F063807B88FB6527
:10F4D000FA6D4CF6CD43CCF6CC43A3FB02134FEAB6
:10F4E000D303FB654FF00003BB6601F049B8BA6E69
:10F4F00013464FEA83039B184FEA4303BB6507F1AA
:10F5000018037B65F6F714FFBB6D03F59C7349F296
:10F510000012C1F6FF7203F1F4034FEA4303D3185C
:10F520009B883B83BB6D03F2391349F20012C1F68D
:10F53000FF7203F1F4034FEA4303D3189B887B83E4
:10F5400007F1180303F104037B65BB6D03F23B1362
:10F5500049F20012C1F6FF7203F1F4034FEA4303CC
:10F56000D3189A887B6D1A807B6D03F102037B654B
:10F57000BB6D03F59D7349F20012C1F6FF7203F1F2
:10F58000F4034FEA4303D3189A887B6D1A8007F17E
:10F59000180303F108037B65BB6D03F23D1349F2C9
:10F5A0000012C1F6FF7203F1F4034FEA4303D318CC
:10F5B0009A887B6D1A807B6D03F102037B65BB6DBE
:10F5C00003F59E7349F20012C1F6FF7203F1F403D2
:10F5D0004FEA4303D3189A887B6D1A8007F118030A
:10F5E00003F10C037B65BB6D03F23F1349F200127C
:10F5F000C1F6FF7203F1F4034FEA4303D3189A886C
:10F600007B6D1A807B6D03F102037B65BB6D03F597
:10F610009F7349F20012C1F6FF7203F1F4034FEA3F
:10F620004303D3189A887B6D1A8007F1180303F1FE
:10F6300010037B65BB6D03F2411349F20012C1F662
:10F64000FF7203F1F4034FEA4303D3189A887B6DEA
:10F650001A807B6D03F102037B65BB6D03F5A0731C
:10F6600049F20012C1F6FF7203F1F4034FEA4303BB
:10F67000D3189A887B6D1A80F6F770FE3B8B002BAF
:10F6800006D07B8B002B03D0FB6E002B00F0DD80BF
:10F6900049F2D063C1F6FF73BA6E4FEA02129B18AB
:10F6A00003F108034FF000021A8049F2D063C1F65B
:10F6B000FF73BA6E4FEA02129B184FF00002DA8015
:10F6C00049F2D063C1F6FF73BA6E4FEA02129B187B
:10F6D00003F108034FF000021A7149F2D063C1F63A
:10F6E000FF73BA6E4FEA02129B184FF000029A8025
:10F6F000BB6E03F1E20318464FF00001F6F766FE19
:10F70000BB6E03F1E20318464FF00101F6F738FE35
:10F710004FF00003CBF680733B61BB6E03F17303C4
:10F720004FEA43033B65F6F703FE3A6D07F110031A
:10F7300010461946F7F7B8F9F6F710FE386D4FF096
:10F740000301F6F71DFE3B6D03F1010318464FF070
:10F750000301F6F715FEBB6E4FEA430303F1EF0317
:10F760003B65F6F7E5FD3A6D07F1100310461946C3
:10F77000F7F79AF9F6F7F2FD386D4FF00301F6F757
:10F78000FFFD3B6D03F1010318464FF00301F6F74F
:10F79000F7FDBB6E4FEA430303F1F7033B65F6F752
:10F7A000C7FD3A6D07F1100310461946F7F77CF9CB
:10F7B000F6F7D4FD386D4FF00301F6F7E1FD3B6D30
:10F7C00003F1010318464FF00301F6F7D9FDBB6EB4
:10F7D0004FEA430303F1FF033B65F6F7A9FD3A6DDA
:10F7E00007F1100310461946F7F75EF9F6F7B6FD74
:10F7F000386D4FF00301F6F7C3FD3B6D03F10103D4
:10F8000018464FF00301F6F7BBFDBB6E4FEA43030A
:10F8100003F207133B65F6F78BFD3A6D07F1100312
:10F8200010461946F7F740F9F6F798FD386D4FF096
:10F830000301F6F7A5FD3B6D03F1010318464FF0F8
:10F840000301F6F79DFD00F097BE3B8B03F1FF33FC
:10F850000E2B00F2FD8201A252F823F099F801006C
:10F860003DF90100E1F9010085FA0100C1FA01004A
:10F8700069FB010001FC01006BFC0100D5FC0100EB
:10F880003FFD01003FFD01003FFD0100B1FD010012
:10F89000B1FD0100B1FD01007B8B012B25D0022BB6
:10F8A00047D107F102034FF00E001946F6F7B6FDF7
:10F8B0007B8803F001039BB2002B03D14FF4B2739A
:10F8C000FB663AE007F102034FF0AC001946F6F789
:10F8D000A5FD7A884FF6FF739A4203D140F2631375
:10F8E000FB662AE0FB6A7B6127E007F102034FF029
:10F8F0000E001946F6F792FD7B8803F001039BB2D8
:10F90000002B03D14FF4B273FB6616E007F102033C
:10F910004FF0B2001946F6F781FD7A884FF6FF7373
:10F920009A4203D140F26313FB6606E0BB6B7B6136
:10F9300003E040F26113FB6600BF8DE27B8B012B7D
:10F9400025D0022B47D107F102034FF00E001946D4
:10F95000F6F764FD7B8803F001039BB2002B03D113
:10F960004FF4B273FB663AE007F102034FF0AE00CA
:10F970001946F6F753FD7A884FF6FF739A4203D182
:10F9800040F26313FB662AE03B6B7B6127E007F1E3
:10F9900002034FF00E001946F6F740FD7B8803F096
:10F9A00001039BB2002B03D14FF4B273FB6616E048
:10F9B00007F102034FF0B4001946F6F72FFD7A88DD
:10F9C0004FF6FF739A4203D140F26313FB6606E0E1
:10F9D000FB6B7B6103E040F26113FB6600BF3BE21F
:10F9E0007B8B012B25D0022B47D107F102034FF06F
:10F9F0000E001946F6F712FD7B8803F001039BB257
:10FA0000002B03D14FF4B273FB663AE007F1020317
:10FA10004FF0B0001946F6F701FD7A884FF6FF73F4
:10FA20009A4203D140F26313FB662AE07B6B7B6151
:10FA300027E007F102034FF00E001946F6F7EEFC3F
:10FA40007B8803F001039BB2002B03D14FF4B27308
:10FA5000FB6616E007F102034FF0B6001946F6F711
:10FA6000DDFC7A884FF6FF739A4203D140F26313AC
:10FA7000FB6606E03B6C7B6103E040F26113FB66D2
:10FA800000BFE9E149F25063C1F6FF7393F84430D7
:10FA9000012B03D040F26313FB66DDE149F25063B2
:10FAA000C1F6FF73B3F870301BB207EE903AB8EEB0
:10FAB000E77AF2EE047AC7EE277AC7ED057ACBE152
:10FAC00007F102034FF00E001946F6F7A7FC7B88FA
:10FAD00003F002039BB2002B03D14FF4B273FB6619
:10FAE000BAE17B8B052B02D0062B1CD037E007F147
:10FAF00002034FF02F001946F6F790FC7A884FF674
:10FB0000FF739A4203D140F26313FB662BE07B88BC
:10FB100007EE903AB8EE677AF2EE047AC7EE277AEB
:10FB2000C7ED057A1FE007F102034FF030001946D8
:10FB3000F6F774FC7A884FF6FF739A4203D140F2CD
:10FB40006313FB660FE07B8807EE903AB8EE677AA6
:10FB5000F2EE047AC7EE277AC7ED057A03E040F2A9
:10FB60006113FB6600BF77E107F102034FF00E005F
:10FB70001946F6F753FC7B8803F002039BB2002B77
:10FB800003D14FF4B273FB6666E17B8B052B02D089
:10FB9000062B18D02FE007F102034FF02D00194675
:10FBA000F6F73CFC7A884FF6FF739A4203D140F295
:10FBB0006313FB6623E07B8807EE103AF8EE477A82
:10FBC000C7ED057A1BE007F102034FF02E0019463E
:10FBD000F6F724FC7A884FF6FF739A4203D140F27D
:10FBE0006313FB660BE07B8807EE103AF8EE477A6A
:10FBF000C7ED057A03E040F26113FB6600BF2BE11D
:10FC000007F102034FF00E001946F6F707FC7B8858
:10FC100003F004039BB2002B03D14FF4B273FB66D5
:10FC20001AE17B8B072B1BD107F102034FF0270052
:10FC30001946F6F7F3FB7A884FF6FF739A4203D121
:10FC400040F26313FB660FE07B8807EE903AB8EE54
:10FC5000677AF2EE047AC7EE277AC7ED057A03E0F9
:10FC600040F26113FB6600BFF6E007F102034FF0BC
:10FC70000E001946F6F7D2FB7B8803F004039BB213
:10FC8000002B03D14FF4B273FB66E5E07B8B072BAF
:10FC90001BD107F102034FF028001946F6F7BEFB0F
:10FCA0007A884FF6FF739A4203D140F26313FB66E2
:10FCB0000FE07B8807EE903AB8EE677AF2EE047AAE
:10FCC000C7EE277AC7ED057A03E040F26113FB66C1
:10FCD00000BFC1E007F102034FF00E001946F6F72E
:10FCE0009DFB7B8803F004039BB2002B03D14FF4F0
:10FCF000B273FB66B0E07B8B072B1BD107F10203CD
:10FD00004FF029001946F6F789FB7A884FF6FF7302
:10FD10009A4203D140F26313FB660FE07B8807EE43
:10FD2000903AB8EE677AF2EE047AC7EE277AC7ED1A
:10FD3000057A03E040F26113FB6600BF8CE007F137
:10FD400002034FF00E001946F6F768FB7B8803F0BC
:10FD500008039BB2002B03D14FF4B273FB667BE028
:10FD60007B8BA3F10503012B1DD83B8B03F58C7214
:10FD700007F1020310461946F6F750FB7A884FF652
:10FD8000FF739A4203D140F26313FB660FE07B8856
:10FD900007EE903AB8EE677AF2EE047AC7EE277A69
:10FDA000C7ED057A03E040F26113FB6600BF53E044
:10FDB00007F102034FF00E001946F6F72FFB7B8880
:10FDC00003F008039BB2002B03D14FF4B273FB6620
:10FDD00042E07B8B052B02D0062B1AD033E03B8B05
:10FDE00003F2091207F1020310461946F6F716FB53
:10FDF0007A884FF6FF739A4203D140F26313FB6691
:10FE000025E07B8807EE103AF8EE477AC7ED057AD1
:10FE10001DE03B8B03F20F1207F102031046194657
:10FE2000F6F7FCFA7A884FF6FF739A4203D140F254
:10FE30006313FB660BE07B8807EE103AF8EE477A17
:10FE4000C7ED057A03E040F26113FB6600BF03E0F3
:10FE50004FF4B073FB6600BFFB6E002B4CD049F231
:10FE6000D063C1F6FF73BA6E4FEA02129B1803F11A
:10FE700008034FF000021A8049F2D063C1F6FF7305
:10FE8000BA6E4FEA02129B184FF00002DA8049F274
:10FE9000D063C1F6FF73BA6E4FEA02129B1803F1EA
:10FEA00008034FF000021A7149F2D063C1F6FF73E4
:10FEB000BA6E4FEA02129B184FF000029A80BB6E96
:10FEC00003F1E20318464FF00001F6F77FFABB6E2C
:10FED00003F1E20318464FF00101F6F751FAFA6E0A
:10FEE00040F263139A4202D14FF00003FB66FB6EAF
:10FEF000002B00F0368351E307F102034FF0EE00D0
:10FF00001946F6F78BFA7B881A46BB6E22FA03F382
:10FF100003F00103002B18D0BB6E4FF0EE00194622
:10FF2000F6F73CFD4FF000033B61F6F701FABB6EBC
:10FF300003F173034FEA43031A4607F11003104617
:10FF40001946F6F7B1FDF6F709FABB6E03F1730334
:10FF50004FEA43031A4607F1100310461946F6F715
:10FF60006DFD07F110031B68B3F1FF3F02D14FF0A5
:10FF700000033B6197ED047AD7ED057AB4EEE77A9A
:10FF8000F1EE10FA25D8F6F7D3F9BB6E03F173033F
:10FF90004FEA43031A4607F1140310461946F6F7D1
:10FFA00083FDF6F7DBF9BB6E03F173034FEA4303FE
:10FFB00018464FF00101F6F7E3F9BB6E03F1730346
:10FFC0004FEA430303F1010318464FF00101F6F72E
:10FFD000D7F94FF00003A7F8623049F2D063C1F6B9
:10FFE000FF73BA6E4FEA02129B18DB88002B40F0B9
:10FFF000AF8197ED077AD7ED0A7A37EE677AD7EDBA
:020000022000DC
:10000000057AB4EEE77AF1EE10FA57DD49F2D063E3
:10001000C1F6FF73BA6E4FEA02129B189B88012B40
:1000200000F0A18249F2D063C1F6FF73BA6E4FEAC5
:1000300002129B1803F108031B881A46FB6D9A42B3
:1000400019D249F2D063C1F6FF73BA6E4FEA0212B9
:100050009B1803F108031B8803F101039AB249F2CC
:10006000D063C1F6FF73B96E4FEA01115B1803F15B
:1000700008031A8080E24FF00103A7F86230BB6EDC
:100080004FEA430303F1F7033B65F6F751F93A6D85
:1000900007F1140310461946F6F706FDF6F75EF968
:1000A000386D4FF00101F6F76BF93B6D03F1010379
:1000B00018464FF00101F6F763F95FE197ED097A11
:1000C000D7ED0A7A37EE277AD7ED057AB4EEE77ADC
:1000D000F1EE10FA57D549F2D063C1F6FF73BA6E4C
:1000E0004FEA02129B189B88032B00F03E8249F2D4
:1000F000D063C1F6FF73BA6E4FEA02129B1803F188
:1001000008031B881A46FB6D9A4219D249F2D06344
:10011000C1F6FF73BA6E4FEA02129B1803F108038F
:100120001B8803F101039AB249F2D063C1F6FF7351
:10013000B96E4FEA01115B1803F108031A801BE244
:100140004FF00303A7F86230BB6E4FEA430303F29C
:1001500007133B65F6F7ECF83A6D07F11403104608
:100160001946F6F7A1FCF6F7F9F8386D4FF00101E2
:10017000F6F706F93B6D03F1010318464FF0010154
:10018000F6F7FEF8FAE097ED087AD7ED0A7A37EE3F
:10019000277AD7ED057AB4EEE77AF1EE10FA57D563
:1001A00049F2D063C1F6FF73BA6E4FEA02129B1890
:1001B0009B88022B00F0DB8149F2D063C1F6FF730C
:1001C000BA6E4FEA02129B1803F108031B881A4605
:1001D000FB6D9A4219D249F2D063C1F6FF73BA6E31
:1001E0004FEA02129B1803F108031B8803F1010375
:1001F0009AB249F2D063C1F6FF73B96E4FEA0111AA
:100200005B1803F108031A80B6E14FF00203A7F868
:100210006230BB6E4FEA430303F1FF033B65F6F721
:1002200087F83A6D07F1140310461946F6F73CFCBF
:10023000F6F794F8386D4FF00101F6F7A1F83B6D31
:1002400003F1010318464FF00101F6F799F895E024
:1002500097ED077AD7ED0A7A37EE277AD7ED057A48
:10026000B4EEE77AF1EE10FA71D597ED097AD7ED91
:100270000A7A37EE677AD7ED057AB4EEE77AF1EECF
:1002800010FA64DD97ED087AD7ED0A7A37EE677ACF
:10029000D7ED057AB4EEE77AF1EE10FA57DD49F2C0
:1002A000D063C1F6FF73BA6E4FEA02129B189B88A7
:1002B000042B00F05E8149F2D063C1F6FF73BA6E81
:1002C0004FEA02129B1803F108031B881A46FB6DC4
:1002D0009A4219D249F2D063C1F6FF73BA6E4FEA5F
:1002E00002129B1803F108031B8803F101039AB261
:1002F00049F2D063C1F6FF73B96E4FEA01115B1882
:1003000003F108031A8037E14FF00403A7F86230C5
:10031000BB6E4FEA430303F1EF033B65F6F708F8C2
:100320003A6D07F1140310461946F6F7BDFBF6F7D0
:1003300015F8386D4FF00101F6F722F83B6D03F127
:10034000010318464FF00101F6F71AF816E013E121
:1003500049F2D063C1F6FF73BA6E4FEA02129B18DE
:10036000DB88A7F8623049F2D063C1F6FF73BA6E3A
:100370004FEA02129B184FF000029A8049F2D063B4
:10038000C1F6FF73BA6E4FEA02129B1803F108031D
:100390004FF000021A80B7F86230002B00F0EB80BB
:1003A00007F102034FF010001946F6F737F8F86628
:1003B000FB6E002B40F0EF807B686FF304037B60E3
:1003C0007B88DAB27B6862F34C137B607B684FF00A
:1003D000040262F350337B607B686FF351437B60B0
:1003E0007B684FF0080262F395437B607B686FF394
:1003F00099537B607B686FF39F637B604FF00003D2
:100400007B660AE007F104027B6ED3184FF000020E
:100410001A717B6E03F101037B667B6E072BF1DDA6
:1004200049F2D063C1F6FF73BA6E4FEA02129B180D
:100430001A6807F10403104619464FF00A024FF0FC
:10044000000304F02FFD0346012B0BD049F6B8033F
:10045000C1F6FF735B6803F1010249F6B803C1F608
:10046000FF735A6049F2D063C1F6FF73BA6E4FEA68
:1004700002129B18B7F862209A8049F2D063C1F645
:10048000FF73BA6E4FEA02129B18B7F86220DA8047
:1004900049F2D063C1F6FF73BA6E4FEA02129B189D
:1004A00003F108031B79002B0CD149F2D063C1F68C
:1004B000FF73BA6E4FEA02129B1803F108034FF064
:1004C00001021A71BB6E03F1E202B7F86230104606
:1004D0001946F5F77BFFF866FB6E002B5DD1BB6E0E
:1004E00003F1E20318464FF00101F5F749FF4FF021
:1004F00000037B6631E049F2D063C1F6FF73BA6E48
:100500004FEA02129B1803F108031B79022B1CD13E
:1005100049F2D063C1F6FF73BA6E4FEA02129B181C
:1005200003F108034FF000021A7149F2D063C1F6DB
:10053000FF73BA6E4FEA02129B184FF00002DA8086
:100540004FF00003A7F8623016E04FF00A0005F004
:1005500045FB7B6E03F101037B667B6E632BCADD7B
:100560000AE000BF08E000BF06E000BF04E000BFF3
:1005700002E000BF00E000BFBB6E03F10103BB66F9
:10058000BB6E032B7EF7B3AF08E000BF06E000BFF1
:1005900004E000BF02E000BF00E000BFFB6E1846B1
:1005A00007F17007BD4680BD80B582B000AF4FF047
:1005B00000037B604FF0FF333B6040F26C13C1F6E9
:1005C000FF731B684FF43040C4F2060019464FF425
:1005D000165202F0B9FD4FF43040C4F206004FF05D
:1005E000F00102F0CDFE00BF4FF43043C4F2060329
:1005F0001B79DBB203F04003002BF5D04FF4304001
:10060000C4F2060002F0D2FE0346002B17D04FF4CE
:100610003040C4F2060002F09DFE38603B68F02BCB
:1006200003D140F26F137B600CE03B68E02B02DCEF
:100630003B688F2B06DC4FF4B8737B6002E04FF40D
:10064000B7737B607B68184607F10807BD4680BD1D
:1006500080B586B000AF78604FF000033B6140F298
:100660006C13C1F6FF731B684FF43040C4F20600F0
:1006700019464FF4E13202F067FD4FF000037B6151
:100680004FF00003FB733BE0FB7B4FEA5303FB732C
:100690004FF43040C4F206004FF0FF0102F070FE4C
:1006A00000BF4FF43043C4F206031B79DBB203F002
:1006B0004003002BF5D04FF43040C4F2060002F0A6
:1006C00075FE0346002B13D04FF43040C4F20600F1
:1006D00002F040FEB860BB68FF2B04D1FB7B63F0E7
:1006E0007F03FB7308E0FB7B03F07F03FB7303E0F6
:1006F00040F271133B6106E07B6903F101037B610A
:100700007B69072BC0DD3B69002B02D17B68FA7B3C
:100710001A703B69184607F11807BD4680BD00BF37
:1007200080B586B000AF0346FB714FF000033B611C
:1007300040F26C13C1F6FF731B684FF43040C4F2F3
:10074000060019464FF4E13202F0FEFC4FF00003C0
:100750007B6141E0FB7903F00103002B03D04FF0F4
:10076000FF03FB7302E04FF00003FB73FB7B4FF4CE
:100770003040C4F20600194602F002FE00BF4FF4FA
:100780003043C4F206031B79DBB203F04003002BB5
:10079000F5D04FF43040C4F2060002F007FE0346E5
:1007A000002B0DD04FF43040C4F2060002F0D2FD11
:1007B0000246FB7B9A4207D040F273133B610EE086
:1007C0004FF4B9733B610AE0FB794FEA5303FB71C5
:1007D0007B6903F101037B617B69072BBADD3B6910
:1007E000184607F11807BD4680BD00BF80B485B02C
:1007F00000AF78604FF00003FB734FF000037B7392
:100800002DE07B7B7A68D3181B783B734FF0000395
:10081000BB731DE0FA7B3B7B534003F00103002BCD
:100820000AD0FB7B4FEA5303FB73FB7B83F073031C
:100830006FEA0303FB7303E0FB7B4FEA5303FB7395
:100840003B7B4FEA53033B73BB7B03F10103BB7359
:10085000BB7B072BDED97B7B03F101037B737B7BA7
:10086000072BCED9FB7B184607F11407BD4680BC89
:10087000704700BF80B582B000AFFFF795FE78608B
:100880007B68002B0ED049F25063C1F6FF734FF026
:10089000020283F840207A6849F25063C1F6FF7380
:1008A0001A6642E14FF0EE00FFF73AFF78607B688E
:1008B000002B0ED049F25063C1F6FF734FF00202D5
:1008C00083F840207A6849F25063C1F6FF731A66D4
:1008D0002BE14FF47A7005F081F9FFF765FE78603F
:1008E0007B68002B0ED049F25063C1F6FF734FF0C6
:1008F000020283F840207A6849F25063C1F6FF7320
:100900001A6612E14FF0AA00FFF70AFF78607B68D1
:10091000002B0ED049F25063C1F6FF734FF0020274
:1009200083F840207A6849F25063C1F6FF731A6673
:10093000FBE007F103031846FFF78AFE78607B6847
:10094000002B0ED049F25063C1F6FF734FF0020244
:1009500083F840207A6849F25063C1F6FF731A6643
:10096000E3E0FB785BB29AB249F25063C1F6FF73E1
:10097000A3F8722049F25063C1F6FF73B3F87230E6
:100980001BB2FF2B29D140F23013C1F6FF731B6855
:100990000A2BD4BF00220122D2B203F1010140F29E
:1009A0003013C1F6FF731960002A16D049F2506364
:1009B000C1F6FF734FF0020283F8402049F2506302
:1009C000C1F6FF734FF4BA721A6640F23013C1F6E3
:1009D000FF734FF000021A60A7E049F25063C1F6BE
:1009E000FF73B3F872309BB21A464FEA8202D318F3
:1009F0004FEA43039BB29AB249F25063C1F6FF73C8
:100A0000A3F8702049F25063C1F6FF73B3F8722067
:100A100049F25063C1F6FF73A3F8742049F25063A2
:100A2000C1F6FF73B3F8702049F25063C1F6FF734B
:100A3000A3F8762049F25063C1F6FF73B3F8703023
:100A40001AB24FF6DA53CFF6FF739A4217DA49F229
:100A50005063C1F6FF734FF6DA52A3F8702049F2E3
:100A60005063C1F6FF734FF0020283F8402049F251
:100A70005063C1F6FF734FF4BA721A663BE049F255
:100A80005063C1F6FF73B3F870301AB240F2E2431C
:100A90009A4217DD49F25063C1F6FF7340F2E24219
:100AA000A3F8702049F25063C1F6FF734FF00202C1
:100AB00083F8402049F25063C1F6FF734FF4BA72D5
:100AC0001A6618E049F25063C1F6FF73B3F870304C
:100AD0009BB2A3F1A0039BB29AB249F25063C1F654
:100AE000FF73A3F8702049F25063C1F6FF734FF013
:100AF000010283F8402049F25063C1F6FF7393F876
:100B00004030012B11D149F25063C1F6FF73B3F8A5
:100B100070309BB24FF01F001946F5F757FC4FF0AD
:100B20001F004FF00101F5F72BFC07F10807BD4648
:100B300080BD00BF80B588B000AFFFF735FDB8615C
:100B4000BB69002B0ED049F25063C1F6FF734FF022
:100B5000020283F84120BA6949F25063C1F6FF737B
:100B60005A66D9E14FF03300FFF7DAFDB861BB698F
:100B7000002B0ED049F25063C1F6FF734FF0020212
:100B800083F84120BA6949F25063C1F6FF735A668F
:100B9000C2E107F103031846FFF75AFDB861BB69CC
:100BA000002B0ED049F25063C1F6FF734FF00202E2
:100BB00083F84120BA6949F25063C1F6FF735A665F
:100BC000AAE1FB78282B0FD049F25063C1F6FF73DE
:100BD0004FF0020283F8412049F25063C1F6FF73DF
:100BE00040F297125A6697E1FFF7DEFCB861BB69E5
:100BF000002B0ED049F25063C1F6FF734FF0020292
:100C000083F84120BA6949F25063C1F6FF735A660E
:100C100082E14FF0CC00FFF783FDB861BB69002B88
:100C20000ED049F25063C1F6FF734FF0020283F811
:100C30004120BA6949F25063C1F6FF735A666BE10D
:100C40004FF04400FFF76CFDB861BB69002B0ED07C
:100C500049F25063C1F6FF734FF0020283F841205E
:100C6000BA6949F25063C1F6FF735A6654E14FF412
:100C70007A7004F0B3FFFFF797FCB861BB69002BF3
:100C80000ED049F25063C1F6FF734FF0020283F8B1
:100C90004120BA6949F25063C1F6FF735A663BE1DD
:100CA0004FF0CC00FFF73CFDB861BB69002B0ED0C4
:100CB00049F25063C1F6FF734FF0020283F84120FE
:100CC000BA6949F25063C1F6FF735A6624E14FF0E6
:100CD000BE00FFF725FDB861BB69002B0ED049F2BD
:100CE0005063C1F6FF734FF0020283F84120BA69E6
:100CF00049F25063C1F6FF735A660DE14FF00003ED
:100D0000FB611DE007F10402FB69D3181846FFF7E9
:100D10009FFCB861BB69002B0ED049F25063C1F64D
:100D2000FF734FF0020283F84120BA6949F2506321
:100D3000C1F6FF735A66EFE0FB6903F10103FB6143
:100D4000FB69082BDEDD07F104031846FFF74EFDB3
:100D50000346FB753B7BFA7D9A420ED049F2506305
:100D6000C1F6FF734FF0020283F84120BA6949F2DD
:100D70005063C1F6FF735A66CEE03B79FB757B7911
:100D8000BB75BB7D9AB249F25063C1F6FF73A3F8FD
:100D9000722049F25063C1F6FF73B3F872301BB290
:100DA0004FEA03239AB249F25063C1F6FF73A3F8E6
:100DB000722049F25063C1F6FF73B3F87220FB7DD5
:100DC0009BB213439AB249F25063C1F6FF73A3F882
:100DD000722049F25063C1F6FF73B3F872301BB250
:100DE00007EE903AB8EEE77AF6EE047A67EE277AE5
:100DF000C7ED047AD7ED047AFDEEE77A17EE903A64
:100E00009AB249F25063C1F6FF73A3F8702049F219
:100E10005063C1F6FF73B3F8722049F25063C1F614
:100E2000FF73A3F8742049F25063C1F6FF73B3F85F
:100E3000702049F25063C1F6FF73A3F8762049F29F
:100E40005063C1F6FF73B3F870301AB24FF6DA533D
:100E5000CFF6FF739A4210DA49F25063C1F6FF737E
:100E60004FF6DA52A3F8702049F25063C1F6FF73CF
:100E70004FF0020283F8412034E049F25063C1F69A
:100E8000FF73B3F870301AB240F2E2439A4210DDB9
:100E900049F25063C1F6FF7340F2E242A3F87020BA
:100EA00049F25063C1F6FF734FF0020283F841200C
:100EB00018E049F25063C1F6FF73B3F870309BB28B
:100EC000A3F1A0039BB29AB249F25063C1F6FF733B
:100ED000A3F8702049F25063C1F6FF734FF001028E
:100EE00083F8412049F25063C1F6FF7393F8413013
:100EF000012B11D149F25063C1F6FF73B3F8703082
:100F00009BB24FF01F001946F5F760FA4FF01F0033
:100F10004FF00101F5F734FA07F12007BD4680BD17
:100F200080B584B000AF396013460246FA71BB71D8
:100F3000F9F7C2FB40F21C00C1F6FF7006F0B4FEE8
:100F4000FA79BB79104639681A4607F02DF803463E
:100F5000FB73FB7B002B0AD006F00AFC49F25063BE
:100F6000C1F6FF734FF0020283F8422007E049F216
:100F70005063C1F6FF734FF0010283F84220F9F786
:100F8000B1FBFB7B184607F11007BD4680BD00BFD3
:100F900080B584B000AF396013460246FA71BB7168
:100FA000F9F78AFB40F21C00C1F6FF7006F07CFEE8
:100FB000FA79BB79104639681A4607F065F8034696
:100FC000FB73FB7B002B0AD006F0D2FB49F2506387
:100FD000C1F6FF734FF0020283F8422007E049F2A6
:100FE0005063C1F6FF734FF0010283F84220F9F716
:100FF00079FBFB7B184607F11007BD4680BD00BF9B
:1010000080B584B000AFF9F71FFA0346002B08D172
:1010100049F25063C1F6FF734FF0020283F8422099
:1010200041E14FF0320004F0D9FD4FF001033B7174
:1010300007F104034FF0AC0019464FF00102FFF72F
:10104000A7FF0346FB73FB7B002B06D0FA7B49F21C
:101050005063C1F6FF731A6125E14FF0320004F0CE
:10106000BDFD07F104034FF0510019464FF0000297
:10107000FFF78EFF0346FB73FB7B002B06D0FA7B4A
:1010800049F25063C1F6FF731A610CE14FF47A70B4
:1010900004F0A4FD07F104034FF0AC0019464FF033
:1010A0000102FFF73DFF0346FB73FB7B002B06D0DD
:1010B000FA7B49F25063C1F6FF731A61F3E03B79A2
:1010C000DBB25BB2002B07DB49F25063C1F6FF7362
:1010D0004FF014021A61E6E04FF0320004F07EFD9A
:1010E00007F104034FF0AA0019464FF00202FFF780
:1010F00017FF0346FB73FB7B002B06D0FA7B49F2FC
:101100005063C1F6FF731A61CDE04FF0320004F076
:1011100065FD3B791A4649F25063C1F6FF73A3F8A7
:10112000722049F25063C1F6FF73B3F872301BB2FC
:101130004FEA03239AB249F25063C1F6FF73A3F852
:10114000722049F25063C1F6FF73B3F872207B79C5
:1011500013439AB249F25063C1F6FF73A3F87220A9
:1011600049F25063C1F6FF73B3F872301BB207EE59
:10117000903AB8EEE77ADFED4E7A67EE277AC7ED60
:10118000027AD7ED027AFDEEE77A17EE903A9AB23C
:1011900049F25063C1F6FF73A3F8702049F250631F
:1011A000C1F6FF73B3F8722049F25063C1F6FF73C2
:1011B000A3F8742049F25063C1F6FF73B3F87020AE
:1011C00049F25063C1F6FF73A3F8762049F25063E9
:1011D000C1F6FF73B3F870301AB24FF6DA53CFF698
:1011E000FF739A4210DA49F25063C1F6FF734FF66B
:1011F000DA52A3F8702049F25063C1F6FF734FF042
:10120000020283F8422034E049F25063C1F6FF73D2
:10121000B3F870301AB240F2E2439A4210DD49F25C
:101220005063C1F6FF7340F2E242A3F8702049F226
:101230005063C1F6FF734FF0020283F8422018E0BA
:1012400049F25063C1F6FF73B3F870309BB2A3F15B
:10125000A0039BB29AB249F25063C1F6FF73A3F8A0
:10126000702049F25063C1F6FF734FF0010283F81A
:10127000422049F25063C1F6FF7393F84230012BCC
:1012800011D149F25063C1F6FF73B3F870309BB2CD
:101290004FF01F001946F5F799F84FF01F004FF077
:1012A0000101F5F76DF807F11007BD4680BD00BFDD
:1012B0000000203D0000000080B584B000AF40F287
:1012C0003813C1F6FF734FF000021A6040F2341376
:1012D000C1F6FF734FF001021A6007F106034FF0E9
:1012E0000E001946F5F79AF8FB8803F004039BB249
:1012F000002B00F0878007F1060340F269101946C1
:10130000F5F78CF8FB8803F001039BB2002B79D032
:101310004FF00003FB6024E007F106034FF00E00DE
:101320001946F5F77BF8FB8803F004039BB2002B0A
:101330001FD049F25063C1F6FF73DB6A03F101026B
:1013400049F25063C1F6FF73DA624FF0010004F016
:1013500045FCFB6803F10103FB60FB68B3F57A7F92
:1013600009DC40F23413C1F6FF731B68002BD3D0A5
:1013700002E000BF00E000BF40F23413C1F6FF738B
:101380004FF000021A6040F23003C1F6FF731A6892
:1013900049F25063C1F6FF731A6340F23003C1F69D
:1013A000FF731A6840F23403C1F6FF731B684FF0F5
:1013B000070011464FF00002F7F766F8B860BB6807
:1013C000002B17D140F23813C1F6FF734FF0010222
:1013D0001A6049F25063C1F6FF739B6A03F1010280
:1013E00049F25063C1F6FF739A624FF0320004F085
:1013F000F5FB72E740F23413C1F6FF734FF00102C0
:101400001A606AE707F11007BD4680BD80B594B049
:1014100000AF4FF000037B634FF00003FB644FF01D
:1014200000037B8707F11E034FF004001946F4F711
:10143000F5FFFB8B03F020039BB2002B06D04FF48B
:101440007A7004F0CBFB4FF0000324E207F11E0397
:101450004FF00E001946F4F7E1FFFB8B03F0040395
:101460009BB2002B06D14FF47A7004F0B7FB4FF01B
:10147000000310E207F11E0340F269101946F4F769
:10148000CDFFFB8B03F001039BB2002B06D14FF481
:101490007A7004F0A3FB4FF00003FCE140F2381334
:1014A000C1F6FF731B68012B02D04FF00003F2E17D
:1014B00040F23813C1F6FF734FF000021A6040F299
:1014C0003403C1F6FF731A6840F23C13C1F6FF7390
:1014D0001A6040F23403C1F6FF731A684EF21833F3
:1014E000C7F212139A421CD140F23003C1F6FF73C7
:1014F0001A684CF6CD43CCF6CC43A3FB02134FEA5B
:10150000D30341F2707202FB03F24EF21833C7F2BA
:101510001213D3181A4640F23403C1F6FF731A604F
:1015200008E040F23403C1F6FF734EF21832C7F2FE
:1015300012121A6040F23413C1F6FF734FF0010229
:101540001A6049F25063C1F6FF734FF000029A61CE
:1015500049F25063C1F6FF734FF001021A6240F284
:101560003003C1F6FF731B684FF47A72B2FBF3F3DA
:101570004CF25032B2FBF3F33B634FF000037B6459
:10158000DEE04FF00003FB874FF6FF73BB8740F2AE
:101590003C13C1F6FF731A687B6C396B01FB03F3D4
:1015A0004FEA4303D318FB627B6C9BB24FEA4303C1
:1015B0009BB203F22B137B857A8D07F12003104633
:1015C0001946F5F73BFA3B6A18460DF06DF90246ED
:1015D0000B46B3A1D1E900010DF0E4FA02460B4637
:1015E0004FF000004FF6E071C4F2DF010DF0DAFABF
:1015F00002460B46104619460DF06CFC03463B6252
:101600004FF00003BB6416E0BB6C4FEA4303FA6A79
:10161000D3181B88FB83FB8BFA8F9A4201D2FB8B7A
:10162000FB87FB8BBA8F9A4201D9FB8BBB87BB6CC4
:1016300003F10103BB64BA6C3B6B9A42E4D37B6C4D
:10164000012B20D1FB6C002B1DD1BB8F4FF008006C
:101650001946F4F7BBFE4FF008004FF00101F4F714
:101660008FFEFB8F4FF009001946F4F7AFFE4FF0E5
:1016700009004FF00101F4F783FE7B8FFA2B02D9AA
:101680004FF00103FB647B6C9BB203F5B0737B8569
:101690007A8D07F11C0310461946F4F7BFFEBB8B89
:1016A000FA8F9A4204D9BB8BFA8FD31AFB8703E0D7
:1016B000BA8BFB8FD31AFB87BB8BBA8F9A4204D9A4
:1016C000BB8BBA8FD31ABB8703E0BA8BBB8FD31AFD
:1016D000BB87BA8FFB8F9A4201D9BB8FFB87FB8FE9
:1016E00007EE903AB8EE677AD7ED087A87EE277A58
:1016F000F2EE047A67EE277AC7ED087A7B6C9BB22C
:1017000003F127037B85D7ED087AFCEEE77A17EE25
:10171000903A7B877B6C4FEA430307F15001CB186B
:101720007A8D23F8402C7B6C4FEA430307F150027B
:10173000D3187A8F23F84C2C7B6C03F101037B6464
:101740007B6C052B7FF61DAF40F23C13C1F6FF7397
:101750001B687B624FF000033B6409E07A6A3B6CD4
:10176000D3183A6CD2B21A703B6C03F101033B649C
:101770003A6C4FF6FF739A42F0D94FF000033B6486
:101780002AE03B6CDAB2796A3B6CCB181B789A4240
:101790001ED040F24013C1F6FF734FF000021A60F2
:1017A0004FF480333B6401F031F907F11E034FF031
:1017B0000C001946F4F732FEFB8B03F101039BB2D8
:1017C000FB83FB8B4FF00C001946F4F7FFFD08E09C
:1017D0003B6C03F101033B643A6C4FF6FF739A4292
:1017E000CFD940F24013C1F6FF731B68012B2DDDEA
:1017F0004FF000037B6425E07B6C4FEA430307F165
:101800005001CB1833F8403C1A467B6C4FEA430337
:1018100007F15001CB1833F84C3C10461946F4F749
:10182000D5FD7B6C4FEA430307F15002D31833F820
:10183000403C18464FF00101F4F7A2FD7B6C03F128
:1018400001037B647B6C052BD6D90BE040F240137F
:10185000C1F6FF731B6803F1010240F24013C1F6A9
:10186000FF731A6049F25063C1F6FF739A6949F237
:101870005063C1F6FF73DA6149F25063C1F6FF733A
:101880004FF000029A6149F25063C1F6FF734FF0C6
:1018900000021A627B6B184607F15007BD4680BDF7
:1018A000000000000070974080B500AF40F2441087
:1018B000C1F6FF704FF000014FF010020EF001FE74
:1018C00080BD00BF80B584B000AFF860B9607A60B9
:1018D00040F24413C1F6FF731B7B002B02D040F291
:1018E000951332E040F24413C1F6FF734FF000024B
:1018F0001A6040F24413C1F6FF737A685A6040F2EE
:101900004413C1F6FF73BA689A6040F24413C1F6FB
:10191000FF734FF002021A73FB68DAB240F244130D
:10192000C1F6FF735A7340F24413C1F6FF739A680D
:1019300040F24413C1F6FF735B6810464FF000019C
:101940001A460EF0BEFD4FF00003184607F11007CF
:10195000BD4680BD80B400AF40F24413C1F6FF73B2
:101960004FF001025A7340F24413C1F6FF734FF077
:1019700004021A734FF000031846BD4680BC70473E
:1019800080B400AF40F24413C1F6FF734FF0010280
:101990005A734FF000031846BD4680BC704700BF25
:1019A00080B400AF40F24413C1F6FF731B7B1846AE
:1019B000BD4680BC704700BF80B483B000AF034613
:1019C000FB7140F24413C1F6FF73FA791A7307F101
:1019D0000C07BD4680BC704780B400AF40F2441392
:1019E000C1F6FF739B681846BD4680BC704700BFB8
:1019F00080B400AF40F24413C1F6FF731B68184671
:101A0000BD4680BC704700BF80B483B000AF0346C2
:101A1000FB7140F24413C1F6FF735B7BFA799A4283
:101A200002D14FF0000301E040F29113184607F194
:101A30000C07BD4680BC704780B483B000AF03463E
:101A4000FB7140F24413C1F6FF73FA795A734FF0F9
:101A50000003184607F10C07BD4680BC704700BF65
:101A600080B586B000AFF860B9607A607A6840F2FD
:101A70004413C1F6FF739B68D31A7B6140F2441391
:101A8000C1F6FF739B68002B02D14FF4C9732CE0A1
:101A9000BA687B69D21840F24413C1F6FF735B68E1
:101AA0009A4202D940F293131FE040F24413C1F668
:101AB000FF739A687B69D3181846F968BA680EF004
:101AC000F7FC7A69BB68D21840F24413C1F6FF7381
:101AD0001B689A4207D97A69BB68D21840F244134E
:101AE000C1F6FF731A604FF00003184607F118079C
:101AF000BD4680BD0000000080B584B000AF40F25C
:101B00005813C1F6FF734FF000021A6040F25413ED
:101B1000C1F6FF734FF001021A6007F106034FF49C
:101B2000BA701946F4F77AFCFB881A4613464FEA56
:101B300083039B184FEA43031A464FF42643C0F22F
:101B40000E03B3FBF2F213464FEA83039B184FEAEE
:101B500043031A4640F25C13C1F6FF731A6040F269
:101B60005C13C1F6FF731A6843F698239A4206D9AC
:101B700040F25C13C1F6FF7343F698221A6007F136
:101B800006034FF00E001946F4F748FCFB8803F0FB
:101B900008039BB2002B00F0878007F1060340F298
:101BA00069101946F4F73AFCFB8803F001039BB275
:101BB000002B79D04FF00003FB6024E007F106030F
:101BC0004FF00E001946F4F729FCFB8803F00803D8
:101BD0009BB2002B1FD049F25063C1F6FF73DB6A42
:101BE00003F1010249F25063C1F6FF73DA624FF06C
:101BF000010003F0F3FFFB6803F10103FB60FB68E6
:101C0000B3F57A7F09DC40F25413C1F6FF731B6809
:101C1000002BD3D002E000BF00E000BF40F254131D
